{
  "contractName": "FakeUni",
  "abi": [
    {
      "inputs": [
        {
          "internalType": "uint256",
          "name": "amountIn",
          "type": "uint256"
        },
        {
          "internalType": "uint256",
          "name": "amountOutMin",
          "type": "uint256"
        },
        {
          "internalType": "address[]",
          "name": "path",
          "type": "address[]"
        },
        {
          "internalType": "address",
          "name": "to",
          "type": "address"
        },
        {
          "internalType": "uint256",
          "name": "deadline",
          "type": "uint256"
        }
      ],
      "name": "swapExactTokensForTokens",
      "outputs": [
        {
          "internalType": "uint256[]",
          "name": "amounts",
          "type": "uint256[]"
        }
      ],
      "stateMutability": "nonpayable",
      "type": "function"
    }
  ],
  "bytecode": "0x608060405234801561001057600080fd5b50610359806100206000396000f3fe608060405234801561001057600080fd5b5060043610610047577c0100000000000000000000000000000000000000000000000000000000600035046338ed1739811461004c575b600080fd5b6100e4600480360360a081101561006257600080fd5b81359160208101359181019060608101604082013564010000000081111561008957600080fd5b82018360208201111561009b57600080fd5b803590602001918460208302840111640100000000831117156100bd57600080fd5b919350915073ffffffffffffffffffffffffffffffffffffffff8135169060200135610134565b60408051602080825283518183015283519192839290830191858101910280838360005b83811015610120578181015183820152602001610108565b505050509050019250505060405180910390f35b60606000821161014357600080fd5b8484600081811061015057fe5b604080517f23b872dd000000000000000000000000000000000000000000000000000000008152336004820152306024820152604481018c905290516020928302949094013573ffffffffffffffffffffffffffffffffffffffff16936323b872dd9350606480830193928290030181600087803b1580156101d157600080fd5b505af11580156101e5573d6000803e3d6000fd5b505050506040513d60208110156101fb57600080fd5b5085905084600019810181811061020e57fe5b9050602002013573ffffffffffffffffffffffffffffffffffffffff1673ffffffffffffffffffffffffffffffffffffffff1663a9059cbb84886040518363ffffffff167c0100000000000000000000000000000000000000000000000000000000028152600401808373ffffffffffffffffffffffffffffffffffffffff1673ffffffffffffffffffffffffffffffffffffffff16815260200182815260200192505050602060405180830381600087803b1580156102cd57600080fd5b505af11580156102e1573d6000803e3d6000fd5b505050506040513d60208110156102f757600080fd5b50506040805160028082526060808301845292602083019080368337019050509897505050505050505056fea264697066735822122011118389454daf1cd5875a73740f93dbed663f85a8652e5954f9662f1af9115664736f6c63430006060033",
  "immutableReferences": {},
  "source": "pragma solidity ^0.6.0;\n\nimport \"@openzeppelin/contracts/token/ERC20/IERC20.sol\";\n\n\ncontract FakeUni {\n  function swapExactTokensForTokens(\n        uint amountIn,\n        uint amountOutMin,\n        address[] calldata path,\n        address to,\n        uint deadline\n    ) external returns (uint[] memory amounts) {\n      require(deadline > 0);\n      IERC20(path[0]).transferFrom(msg.sender, address(this), amountIn);\n      IERC20(path[path.length-1]).transfer(to, amountOutMin);\n      uint256[] memory out = new uint256[](2);\n      return out;\n    }\n}",
  "sourcePath": "/home/lzhang/dfund/order_contract/contracts/FakeUni.sol",
  "compiler": {
    "name": "solc",
    "version": "0.6.6+commit.6c089d02.Emscripten.clang"
  },
  "schemaVersion": "3.4.3",
  "updatedAt": "2021-10-08T15:32:51.150Z",
  "devdoc": {
    "methods": {}
  },
  "userdoc": {
    "methods": {}
  }
}