{
  "contractName": "Helper",
  "abi": [
    {
      "inputs": [
        {
          "internalType": "address",
          "name": "_admin",
          "type": "address"
        },
        {
          "internalType": "address",
          "name": "_mToken",
          "type": "address"
        },
        {
          "internalType": "address",
          "name": "_swap",
          "type": "address"
        },
        {
          "internalType": "address",
          "name": "_feeTo",
          "type": "address"
        },
        {
          "internalType": "address",
          "name": "_operator",
          "type": "address"
        },
        {
          "internalType": "uint256",
          "name": "_discount",
          "type": "uint256"
        }
      ],
      "stateMutability": "nonpayable",
      "type": "constructor"
    },
    {
      "anonymous": false,
      "inputs": [
        {
          "indexed": true,
          "internalType": "bytes32",
          "name": "role",
          "type": "bytes32"
        },
        {
          "indexed": true,
          "internalType": "bytes32",
          "name": "previousAdminRole",
          "type": "bytes32"
        },
        {
          "indexed": true,
          "internalType": "bytes32",
          "name": "newAdminRole",
          "type": "bytes32"
        }
      ],
      "name": "RoleAdminChanged",
      "type": "event"
    },
    {
      "anonymous": false,
      "inputs": [
        {
          "indexed": true,
          "internalType": "bytes32",
          "name": "role",
          "type": "bytes32"
        },
        {
          "indexed": true,
          "internalType": "address",
          "name": "account",
          "type": "address"
        },
        {
          "indexed": true,
          "internalType": "address",
          "name": "sender",
          "type": "address"
        }
      ],
      "name": "RoleGranted",
      "type": "event"
    },
    {
      "anonymous": false,
      "inputs": [
        {
          "indexed": true,
          "internalType": "bytes32",
          "name": "role",
          "type": "bytes32"
        },
        {
          "indexed": true,
          "internalType": "address",
          "name": "account",
          "type": "address"
        },
        {
          "indexed": true,
          "internalType": "address",
          "name": "sender",
          "type": "address"
        }
      ],
      "name": "RoleRevoked",
      "type": "event"
    },
    {
      "inputs": [],
      "name": "DEFAULT_ADMIN_ROLE",
      "outputs": [
        {
          "internalType": "bytes32",
          "name": "",
          "type": "bytes32"
        }
      ],
      "stateMutability": "view",
      "type": "function"
    },
    {
      "inputs": [],
      "name": "discount",
      "outputs": [
        {
          "internalType": "uint256",
          "name": "",
          "type": "uint256"
        }
      ],
      "stateMutability": "view",
      "type": "function"
    },
    {
      "inputs": [],
      "name": "feeTo",
      "outputs": [
        {
          "internalType": "address",
          "name": "",
          "type": "address"
        }
      ],
      "stateMutability": "view",
      "type": "function"
    },
    {
      "inputs": [
        {
          "internalType": "bytes32",
          "name": "role",
          "type": "bytes32"
        }
      ],
      "name": "getRoleAdmin",
      "outputs": [
        {
          "internalType": "bytes32",
          "name": "",
          "type": "bytes32"
        }
      ],
      "stateMutability": "view",
      "type": "function"
    },
    {
      "inputs": [
        {
          "internalType": "bytes32",
          "name": "role",
          "type": "bytes32"
        },
        {
          "internalType": "uint256",
          "name": "index",
          "type": "uint256"
        }
      ],
      "name": "getRoleMember",
      "outputs": [
        {
          "internalType": "address",
          "name": "",
          "type": "address"
        }
      ],
      "stateMutability": "view",
      "type": "function"
    },
    {
      "inputs": [
        {
          "internalType": "bytes32",
          "name": "role",
          "type": "bytes32"
        }
      ],
      "name": "getRoleMemberCount",
      "outputs": [
        {
          "internalType": "uint256",
          "name": "",
          "type": "uint256"
        }
      ],
      "stateMutability": "view",
      "type": "function"
    },
    {
      "inputs": [
        {
          "internalType": "bytes32",
          "name": "role",
          "type": "bytes32"
        },
        {
          "internalType": "address",
          "name": "account",
          "type": "address"
        }
      ],
      "name": "grantRole",
      "outputs": [],
      "stateMutability": "nonpayable",
      "type": "function"
    },
    {
      "inputs": [
        {
          "internalType": "bytes32",
          "name": "role",
          "type": "bytes32"
        },
        {
          "internalType": "address",
          "name": "account",
          "type": "address"
        }
      ],
      "name": "hasRole",
      "outputs": [
        {
          "internalType": "bool",
          "name": "",
          "type": "bool"
        }
      ],
      "stateMutability": "view",
      "type": "function"
    },
    {
      "inputs": [],
      "name": "mToken",
      "outputs": [
        {
          "internalType": "address",
          "name": "",
          "type": "address"
        }
      ],
      "stateMutability": "view",
      "type": "function"
    },
    {
      "inputs": [],
      "name": "operator",
      "outputs": [
        {
          "internalType": "address",
          "name": "",
          "type": "address"
        }
      ],
      "stateMutability": "view",
      "type": "function"
    },
    {
      "inputs": [
        {
          "internalType": "bytes32",
          "name": "role",
          "type": "bytes32"
        },
        {
          "internalType": "address",
          "name": "account",
          "type": "address"
        }
      ],
      "name": "renounceRole",
      "outputs": [],
      "stateMutability": "nonpayable",
      "type": "function"
    },
    {
      "inputs": [
        {
          "internalType": "bytes32",
          "name": "role",
          "type": "bytes32"
        },
        {
          "internalType": "address",
          "name": "account",
          "type": "address"
        }
      ],
      "name": "revokeRole",
      "outputs": [],
      "stateMutability": "nonpayable",
      "type": "function"
    },
    {
      "inputs": [],
      "name": "swap",
      "outputs": [
        {
          "internalType": "address",
          "name": "",
          "type": "address"
        }
      ],
      "stateMutability": "view",
      "type": "function"
    },
    {
      "inputs": [
        {
          "internalType": "address",
          "name": "_mToken",
          "type": "address"
        },
        {
          "internalType": "address",
          "name": "_feeTo",
          "type": "address"
        },
        {
          "internalType": "uint256",
          "name": "_discount",
          "type": "uint256"
        }
      ],
      "name": "setDepedency",
      "outputs": [],
      "stateMutability": "nonpayable",
      "type": "function"
    },
    {
      "inputs": [
        {
          "internalType": "uint256",
          "name": "_amountIn",
          "type": "uint256"
        },
        {
          "internalType": "address[]",
          "name": "mTokenPath",
          "type": "address[]"
        }
      ],
      "name": "calMtokenAmount",
      "outputs": [
        {
          "internalType": "uint256",
          "name": "",
          "type": "uint256"
        }
      ],
      "stateMutability": "view",
      "type": "function"
    },
    {
      "inputs": [
        {
          "internalType": "bytes32",
          "name": "key",
          "type": "bytes32"
        },
        {
          "internalType": "address[]",
          "name": "mTokenPath",
          "type": "address[]"
        },
        {
          "internalType": "address[]",
          "name": "path",
          "type": "address[]"
        },
        {
          "internalType": "uint256",
          "name": "_amountIn",
          "type": "uint256"
        },
        {
          "internalType": "uint256",
          "name": "_amountOut",
          "type": "uint256"
        },
        {
          "internalType": "bool",
          "name": "isReflect",
          "type": "bool"
        }
      ],
      "name": "helpSwap",
      "outputs": [],
      "stateMutability": "nonpayable",
      "type": "function"
    }
  ],
  "bytecode": "0x60806040523480156200001157600080fd5b5060405162001cf738038062001cf78339810160408190526200003491620001df565b6200004a600087640100000000620000a4810204565b60055560028054600160a060020a0319908116600160a060020a039586161790915560038054821693851693909317909255600180548316948416949094179093556004805490911692909116919091179055506200027f565b620000b98282640100000000620000bd810204565b5050565b6000828152602081905260409020620000e5908264010000000062000c5e6200014282021704565b15620000b957620000fe6401000000006200016b810204565b600160a060020a031681600160a060020a0316837f2f8788117e7eff1d82e926ec794901d17c78024a50270940304540a733656f0d60405160405180910390a45050565b60006200016283600160a060020a0384166401000000006200016f810204565b90505b92915050565b3390565b6000620001868383640100000000620001c7810204565b620001be5750815460018181018455600084815260208082209093018490558454848252828601909352604090209190915562000165565b50600062000165565b60009081526001919091016020526040902054151590565b60008060008060008060c08789031215620001f8578182fd5b8651620002058162000266565b6020880151909650620002188162000266565b60408801519095506200022b8162000266565b60608801519094506200023e8162000266565b6080880151909350620002518162000266565b8092505060a087015190509295509295509295565b600160a060020a03811681146200027c57600080fd5b50565b611a68806200028f6000396000f3fe608060405234801561001057600080fd5b50600436106101045760003560e060020a900480638119c0651161009b578063a217fddf1161006a578063a217fddf146101f3578063c3b6f939146101fb578063ca15c87314610203578063d547741f1461021657610104565b80638119c065146101a55780639010d07c146101ad5780639036b47d146101c057806391d14854146101d357610104565b806336568abe116100d757806336568abe1461016f578063486a61f314610182578063570ca735146101955780636b6f4a9d1461019d57610104565b8063017e7e58146101095780632305589214610127578063248a9ca31461013c5780632f2ff15d1461015c575b600080fd5b610111610229565b60405161011e9190611427565b60405180910390f35b61013a6101353660046111ef565b610238565b005b61014f61014a3660046111a8565b610412565b60405161011e9190611484565b61013a61016a3660046111c0565b610427565b61013a61017d3660046111c0565b610472565b61013a6101903660046110b4565b6104b7565b610111610546565b61014f610555565b61011161055b565b6101116101bb36600461128c565b61056a565b61014f6101ce366004611363565b610591565b6101e66101e13660046111c0565b61076d565b60405161011e9190611479565b61014f61078b565b610111610790565b61014f6102113660046111a8565b61079f565b61013a6102243660046111c0565b6107b6565b600354600160a060020a031681565b600454600160a060020a0316331461026e5760405160e560020a62461bcd028152600401610265906115f1565b60405180910390fd5b600154600160a060020a03168787600019810181811061028a57fe5b905060200201602081019061029f919061107c565b600160a060020a0316146102c85760405160e560020a62461bcd02815260040161026590611628565b848460008181106102d557fe5b90506020020160208101906102ea919061107c565b600160a060020a03168787600081811061030057fe5b9050602002016020810190610315919061107c565b600160a060020a03161461033e5760405160e560020a62461bcd02815260040161026590611750565b600061037f898989808060200260200160405190810160405280939291908181526020018383602002808284376000920191909152508992506107f3915050565b6002546040517f596fc81a000000000000000000000000000000000000000000000000000000008152919250600160a060020a03169063596fc81a906103d5908c908a908a908a908a908a908a9060040161148d565b600060405180830381600087803b1580156103ef57600080fd5b505af1158015610403573d6000803e3d6000fd5b50505050505050505050505050565b60009081526020819052604090206002015490565b600082815260208190526040902060020154610445906101e1610a50565b6104645760405160e560020a62461bcd02815260040161026590611594565b61046e8282610a54565b5050565b61047a610a50565b600160a060020a031681600160a060020a0316146104ad5760405160e560020a62461bcd028152600401610265906118af565b61046e8282610ac3565b6104c260003361076d565b6104e15760405160e560020a62461bcd02815260040161026590611878565b60088111156105055760405160e560020a62461bcd0281526004016102659061190c565b60018054600160a060020a0394851673ffffffffffffffffffffffffffffffffffffffff199182161790915560059190915560038054929093169116179055565b600454600160a060020a031681565b60055481565b600254600160a060020a031681565b6000828152602081905260408120610588908363ffffffff610b3216565b90505b92915050565b6000806105d1600a6105c56103e86105c56005546105b960038b610b3e90919063ffffffff16565b9063ffffffff610b3e16565b9063ffffffff610b7b16565b6001548451919250600160a060020a03169084906000906105ee57fe5b6020026020010151600160a060020a03161461058857600254604080517ff887ea400000000000000000000000000000000000000000000000000000000081529051600092600160a060020a03169163f887ea40916004808301926020929190829003018186803b15801561066257600080fd5b505afa158015610676573d6000803e3d6000fd5b505050506040513d601f19601f8201168201806040525081019061069a9190611098565b9050606081600160a060020a031663d06ca61f6106d3600a6105c56103e86105c56005546105b96103e58f610b3e90919063ffffffff16565b876040518363ffffffff1660e060020a0281526004016106f4929190611943565b60006040518083038186803b15801561070c57600080fd5b505afa158015610720573d6000803e3d6000fd5b505050506040513d6000823e601f3d908101601f1916820160405261074891908101906110f4565b90508060018251038151811061075a57fe5b6020026020010151925050509392505050565b6000828152602081905260408120610588908363ffffffff610bb016565b600081565b600154600160a060020a031681565b600081815260208190526040812061058b90610bc5565b6000828152602081905260409020600201546107d4906101e1610a50565b6104ad5760405160e560020a62461bcd028152600401610265906116f3565b60006107fd610fb4565b6002546040517f01e64725000000000000000000000000000000000000000000000000000000008152600160a060020a03909116906301e6472590610846908890600401611484565b6101206040518083038186803b15801561085f57600080fd5b505afa158015610873573d6000803e3d6000fd5b505050506040513d601f19601f8201168201806040525081019061089791906112ad565b60015481516040517fdd62ed3e000000000000000000000000000000000000000000000000000000008152929350600092600160a060020a039092169163dd62ed3e916108e891309060040161143b565b60206040518083038186803b15801561090057600080fd5b505afa158015610914573d6000803e3d6000fd5b505050506040513d601f19601f82011682018060405250810190610938919061134b565b90508015610a425760055461095257600192505050610a49565b600061095e8587610591565b9050808210158015610a08575060015483516040517f70a082310000000000000000000000000000000000000000000000000000000081528392600160a060020a0316916370a08231916109b59190600401611427565b60206040518083038186803b1580156109cd57600080fd5b505afa1580156109e1573d6000803e3d6000fd5b505050506040513d601f19601f82011682018060405250810190610a05919061134b565b10155b15610a40578251600354600154610a3492600160a060020a03918216929091168463ffffffff610bd016565b60019350505050610a49565b505b6000925050505b9392505050565b3390565b6000828152602081905260409020610a72908263ffffffff610c5e16565b1561046e57610a7f610a50565b600160a060020a031681600160a060020a0316837f2f8788117e7eff1d82e926ec794901d17c78024a50270940304540a733656f0d60405160405180910390a45050565b6000828152602081905260409020610ae1908263ffffffff610c7316565b1561046e57610aee610a50565b600160a060020a031681600160a060020a0316837ff6391f5c32d9c69d2a47ea670b442974b53935d1edc7fd64eb21e047a839171b60405160405180910390a45050565b60006105888383610c88565b600082610b4d5750600061058b565b82820282848281610b5a57fe5b04146105885760405160e560020a62461bcd02815260040161026590611787565b6000808211610b9f5760405160e560020a62461bcd028152600401610265906116bc565b818381610ba857fe5b049392505050565b600061058883600160a060020a038416610cd0565b600061058b82610ce8565b610c58846323b872dd60e060020a02858585604051602401610bf493929190611455565b60408051601f198184030181529190526020810180517bffffffffffffffffffffffffffffffffffffffffffffffffffffffff167fffffffff0000000000000000000000000000000000000000000000000000000090931692909217909152610cec565b50505050565b600061058883600160a060020a038416610d83565b600061058883600160a060020a038416610dcd565b81546000908210610cae5760405160e560020a62461bcd02815260040161026590611537565b826000018281548110610cbd57fe5b9060005260206000200154905092915050565b60009081526001919091016020526040902054151590565b5490565b6060610d41826040518060400160405280602081526020017f5361666545524332303a206c6f772d6c6576656c2063616c6c206661696c656481525085600160a060020a0316610e939092919063ffffffff16565b805190915015610d7e5780806020019051810190610d5f919061118c565b610d7e5760405160e560020a62461bcd0281526004016102659061181b565b505050565b6000610d8f8383610cd0565b610dc55750815460018181018455600084815260208082209093018490558454848252828601909352604090209190915561058b565b50600061058b565b60008181526001830160205260408120548015610e895783546000198083019190810190600090879083908110610e0057fe5b9060005260206000200154905080876000018481548110610e1d57fe5b600091825260208083209091019290925582815260018981019092526040902090840190558654879080610e4d57fe5b6001900381819060005260206000200160009055905586600101600087815260200190815260200160002060009055600194505050505061058b565b600091505061058b565b6060610ea28484600085610eaa565b949350505050565b60603031831115610ed05760405160e560020a62461bcd0281526004016102659061165f565b610ed985610f72565b610ef85760405160e560020a62461bcd028152600401610265906117e4565b6000606086600160a060020a03168587604051610f15919061140b565b60006040518083038185875af1925050503d8060008114610f52576040519150601f19603f3d011682016040523d82523d6000602084013e610f57565b606091505b5091509150610f67828286610f78565b979650505050505050565b3b151590565b60608315610f87575081610a49565b825115610f975782518084602001fd5b8160405160e560020a62461bcd0281526004016102659190611504565b6040518061012001604052806000600160a060020a031681526020016000600160a060020a031681526020016000600160a060020a0316815260200160008152602001600081526020016000151581526020016000815260200160008152602001600081525090565b805161058b81611a0c565b60008083601f840112611039578182fd5b50813567ffffffffffffffff811115611050578182fd5b602083019150836020808302850101111561106a57600080fd5b9250929050565b805161058b81611a24565b60006020828403121561108d578081fd5b813561058881611a0c565b6000602082840312156110a9578081fd5b815161058881611a0c565b6000806000606084860312156110c8578182fd5b83356110d381611a0c565b925060208401356110e381611a0c565b929592945050506040919091013590565b60006020808385031215611106578182fd5b825167ffffffffffffffff81111561111c578283fd5b80840185601f82011261112d578384fd5b8051915061114261113d836119c0565b611999565b828152838101908285018585028401860189101561115e578687fd5b8693505b84841015611180578051835260019390930192918501918501611162565b50979650505050505050565b60006020828403121561119d578081fd5b815161058881611a24565b6000602082840312156111b9578081fd5b5035919050565b600080604083850312156111d2578182fd5b8235915060208301356111e481611a0c565b809150509250929050565b60008060008060008060008060c0898b03121561120a578384fd5b88359750602089013567ffffffffffffffff80821115611228578586fd5b6112348c838d01611028565b909950975060408b013591508082111561124c578586fd5b506112598b828c01611028565b909650945050606089013592506080890135915060a089013561127b81611a24565b809150509295985092959890939650565b6000806040838503121561129e578182fd5b50508035926020909101359150565b60006101208083850312156112c0578182fd5b6112c981611999565b6112d3858561101d565b81526112e2856020860161101d565b60208201526112f4856040860161101d565b6040820152606084015160608201526080840151608082015261131a8560a08601611071565b60a082015260c084015160c082015260e084015160e082015261010091508184015182820152809250505092915050565b60006020828403121561135c578081fd5b5051919050565b60008060408385031215611375578182fd5b8235915060208084013567ffffffffffffffff811115611393578283fd5b80850186601f8201126113a4578384fd5b803591506113b461113d836119c0565b82815283810190828501858502840186018a10156113d0578687fd5b8693505b848410156113fb5780356113e781611a0c565b8352600193909301929185019185016113d4565b5080955050505050509250929050565b6000825161141d8184602087016119e0565b9190910192915050565b600160a060020a0391909116815260200190565b600160a060020a0392831681529116602082015260400190565b600160a060020a039384168152919092166020820152604081019190915260600190565b901515815260200190565b90815260200190565b87815260c06020808301829052908201879052600090889060e08401835b8a8110156114d95783356114be81611a0c565b600160a060020a0316825292820192908201906001016114ab565b50604085019890985250505060608101939093529015156080830152151560a0909101529392505050565b60006020825282518060208401526115238160408501602087016119e0565b601f01601f19169190910160400192915050565b60208082526022908201527f456e756d657261626c655365743a20696e646578206f7574206f6620626f756e60408201527f6473000000000000000000000000000000000000000000000000000000000000606082015260800190565b6020808252602f908201527f416363657373436f6e74726f6c3a2073656e646572206d75737420626520616e60408201527f2061646d696e20746f206772616e740000000000000000000000000000000000606082015260800190565b6020808252600e908201527f696e76616c69642073656e646572000000000000000000000000000000000000604082015260600190565b6020808252600e908201527f696e76616c6964206d746f6b656e000000000000000000000000000000000000604082015260600190565b60208082526026908201527f416464726573733a20696e73756666696369656e742062616c616e636520666f60408201527f722063616c6c0000000000000000000000000000000000000000000000000000606082015260800190565b6020808252601a908201527f536166654d6174683a206469766973696f6e206279207a65726f000000000000604082015260600190565b60208082526030908201527f416363657373436f6e74726f6c3a2073656e646572206d75737420626520616e60408201527f2061646d696e20746f207265766f6b6500000000000000000000000000000000606082015260800190565b6020808252600c908201527f696e76616c696420706174680000000000000000000000000000000000000000604082015260600190565b60208082526021908201527f536166654d6174683a206d756c7469706c69636174696f6e206f766572666c6f60408201527f7700000000000000000000000000000000000000000000000000000000000000606082015260800190565b6020808252601d908201527f416464726573733a2063616c6c20746f206e6f6e2d636f6e7472616374000000604082015260600190565b6020808252602a908201527f5361666545524332303a204552433230206f7065726174696f6e20646964206e60408201527f6f74207375636365656400000000000000000000000000000000000000000000606082015260800190565b60208082526009908201527f6e6f742061646d696e0000000000000000000000000000000000000000000000604082015260600190565b6020808252602f908201527f416363657373436f6e74726f6c3a2063616e206f6e6c792072656e6f756e636560408201527f20726f6c657320666f722073656c660000000000000000000000000000000000606082015260800190565b60208082526007908201527f696e76616c696400000000000000000000000000000000000000000000000000604082015260600190565b60006040820184835260206040818501528185518084526060860191508287019350845b8181101561198c578451600160a060020a031683529383019391830191600101611967565b5090979650505050505050565b60405181810167ffffffffffffffff811182821017156119b857600080fd5b604052919050565b600067ffffffffffffffff8211156119d6578081fd5b5060209081020190565b60005b838110156119fb5781810151838201526020016119e3565b83811115610c585750506000910152565b600160a060020a0381168114611a2157600080fd5b50565b8015158114611a2157600080fdfea2646970667358221220805d2394cedaa892751d6f93afbcb2e4b256c1b32a3c19acd400871dcae4361164736f6c63430006060033",
  "immutableReferences": {},
  "source": "// SPDX-License-Identifier: MIT\npragma solidity >=0.6.2;\npragma experimental ABIEncoderV2;\n\nimport \"@openzeppelin/contracts/access/AccessControl.sol\";\nimport \"@openzeppelin/contracts/token/ERC20/IERC20.sol\";\nimport \"@openzeppelin/contracts/token/ERC20/SafeERC20.sol\";\nimport \"@openzeppelin/contracts/math/SafeMath.sol\";\n\nimport \"./interfaces/common.sol\";\n\ncontract Helper is AccessControl {\n  using SafeMath for uint;\n  using SafeERC20 for IEERC20;\n\n  address public  mToken;\n  address public  swap;\n  address public  feeTo; \n  address public  operator;\n  uint    public  discount;\n\n  constructor(address _admin, address _mToken, address _swap, address _feeTo, address _operator, uint _discount) public {\n    _setupRole(DEFAULT_ADMIN_ROLE, _admin);\n    discount = _discount;\n    swap = _swap;\n    feeTo = _feeTo;\n    mToken = _mToken;\n    operator = _operator;\n  }\n\n  function setDepedency(address _mToken, address _feeTo, uint _discount) external {\n    require(hasRole(DEFAULT_ADMIN_ROLE, msg.sender), \"not admin\");\n    require(_discount <= 8, \"invalid\");\n    mToken = _mToken;\n    discount = _discount;\n    feeTo = _feeTo;\n  }\n  function calMtokenAmount(uint256 _amountIn,address[] memory mTokenPath) public view returns(uint){\n    uint mtokenPayAmount = _amountIn.mul(3).mul(discount).div(1000).div(10);\n    if(mTokenPath[0] != mToken){ // sell not mtoken\n      address router = ISwap(swap).router();\n      uint[] memory out = IIUniswapV2Router02(router).getAmountsOut(_amountIn.mul(997).mul(discount).div(1000).div(10), mTokenPath);\n      mtokenPayAmount = out[out.length-1];\n    }\n    return mtokenPayAmount;\n  }\n  function tryPayToken(bytes32 key,address[] memory mTokenPath, uint256 _amountIn) internal returns(bool){\n    Order memory record =  ISwap(swap).records(key);\n\n    uint allowance = IEERC20(mToken).allowance(record.user, address(this));\n    if(allowance > 0) {\n      if(discount == 0) {\n        return true;\n      } else {\n        uint mtokenPayAmount = calMtokenAmount(_amountIn, mTokenPath);\n        if(allowance >= mtokenPayAmount && IEERC20(mToken).balanceOf(record.user) >= mtokenPayAmount){\n          IEERC20(mToken).safeTransferFrom(record.user, feeTo, mtokenPayAmount);\n          return true;\n        }\n      }\n    }\n    return false;\n  }\n\n  function helpSwap(bytes32 key,address[] calldata mTokenPath, address[] calldata path, uint256 _amountIn, uint256 _amountOut, bool isReflect) external {\n    require(msg.sender == operator,\"invalid sender\");\n    require(mTokenPath[mTokenPath.length-1] == mToken,\"invalid mtoken\");\n    require(mTokenPath[0] == path[0], \"invalid path\");\n    bool isPaid = tryPayToken(key, mTokenPath, _amountIn);\n    ISwap(swap).swap(key, path, _amountIn, _amountOut, isReflect, isPaid);\n  }\n\n}",
  "sourcePath": "/home/lzhang/dfund/order_contract/contracts/Helper.sol",
  "compiler": {
    "name": "solc",
    "version": "0.6.6+commit.6c089d02.Emscripten.clang"
  },
  "schemaVersion": "3.4.3",
  "updatedAt": "2021-10-24T08:33:22.897Z",
  "devdoc": {
    "methods": {
      "getRoleAdmin(bytes32)": {
        "details": "Returns the admin role that controls `role`. See {grantRole} and {revokeRole}.     * To change a role's admin, use {_setRoleAdmin}."
      },
      "getRoleMember(bytes32,uint256)": {
        "details": "Returns one of the accounts that have `role`. `index` must be a value between 0 and {getRoleMemberCount}, non-inclusive.     * Role bearers are not sorted in any particular way, and their ordering may change at any point.     * WARNING: When using {getRoleMember} and {getRoleMemberCount}, make sure you perform all queries on the same block. See the following https://forum.openzeppelin.com/t/iterating-over-elements-on-enumerableset-in-openzeppelin-contracts/2296[forum post] for more information."
      },
      "getRoleMemberCount(bytes32)": {
        "details": "Returns the number of accounts that have `role`. Can be used together with {getRoleMember} to enumerate all bearers of a role."
      },
      "grantRole(bytes32,address)": {
        "details": "Grants `role` to `account`.     * If `account` had not been already granted `role`, emits a {RoleGranted} event.     * Requirements:     * - the caller must have ``role``'s admin role."
      },
      "hasRole(bytes32,address)": {
        "details": "Returns `true` if `account` has been granted `role`."
      },
      "renounceRole(bytes32,address)": {
        "details": "Revokes `role` from the calling account.     * Roles are often managed via {grantRole} and {revokeRole}: this function's purpose is to provide a mechanism for accounts to lose their privileges if they are compromised (such as when a trusted device is misplaced).     * If the calling account had been granted `role`, emits a {RoleRevoked} event.     * Requirements:     * - the caller must be `account`."
      },
      "revokeRole(bytes32,address)": {
        "details": "Revokes `role` from `account`.     * If `account` had been granted `role`, emits a {RoleRevoked} event.     * Requirements:     * - the caller must have ``role``'s admin role."
      }
    }
  },
  "userdoc": {
    "methods": {}
  }
}