{
  "contractName": "Swap",
  "abi": [
    {
      "inputs": [
        {
          "internalType": "address",
          "name": "_admin",
          "type": "address"
        },
        {
          "internalType": "address",
          "name": "_router",
          "type": "address"
        },
        {
          "internalType": "address",
          "name": "_feeTo",
          "type": "address"
        },
        {
          "internalType": "address",
          "name": "_operator",
          "type": "address"
        }
      ],
      "stateMutability": "nonpayable",
      "type": "constructor"
    },
    {
      "anonymous": false,
      "inputs": [
        {
          "indexed": true,
          "internalType": "bytes32",
          "name": "role",
          "type": "bytes32"
        },
        {
          "indexed": true,
          "internalType": "bytes32",
          "name": "previousAdminRole",
          "type": "bytes32"
        },
        {
          "indexed": true,
          "internalType": "bytes32",
          "name": "newAdminRole",
          "type": "bytes32"
        }
      ],
      "name": "RoleAdminChanged",
      "type": "event"
    },
    {
      "anonymous": false,
      "inputs": [
        {
          "indexed": true,
          "internalType": "bytes32",
          "name": "role",
          "type": "bytes32"
        },
        {
          "indexed": true,
          "internalType": "address",
          "name": "account",
          "type": "address"
        },
        {
          "indexed": true,
          "internalType": "address",
          "name": "sender",
          "type": "address"
        }
      ],
      "name": "RoleGranted",
      "type": "event"
    },
    {
      "anonymous": false,
      "inputs": [
        {
          "indexed": true,
          "internalType": "bytes32",
          "name": "role",
          "type": "bytes32"
        },
        {
          "indexed": true,
          "internalType": "address",
          "name": "account",
          "type": "address"
        },
        {
          "indexed": true,
          "internalType": "address",
          "name": "sender",
          "type": "address"
        }
      ],
      "name": "RoleRevoked",
      "type": "event"
    },
    {
      "anonymous": false,
      "inputs": [
        {
          "indexed": true,
          "internalType": "bytes32",
          "name": "key",
          "type": "bytes32"
        },
        {
          "components": [
            {
              "internalType": "address",
              "name": "user",
              "type": "address"
            },
            {
              "internalType": "address",
              "name": "fromToken",
              "type": "address"
            },
            {
              "internalType": "address",
              "name": "toToken",
              "type": "address"
            },
            {
              "internalType": "uint256",
              "name": "price",
              "type": "uint256"
            },
            {
              "internalType": "uint256",
              "name": "amount",
              "type": "uint256"
            },
            {
              "internalType": "bool",
              "name": "isForever",
              "type": "bool"
            },
            {
              "internalType": "uint256",
              "name": "interval",
              "type": "uint256"
            },
            {
              "internalType": "uint256",
              "name": "lastCheck",
              "type": "uint256"
            },
            {
              "internalType": "uint256",
              "name": "received",
              "type": "uint256"
            }
          ],
          "indexed": false,
          "internalType": "struct Order",
          "name": "record",
          "type": "tuple"
        }
      ],
      "name": "changeOrderEvent",
      "type": "event"
    },
    {
      "anonymous": false,
      "inputs": [],
      "name": "ignore",
      "type": "event"
    },
    {
      "inputs": [],
      "name": "DEFAULT_ADMIN_ROLE",
      "outputs": [
        {
          "internalType": "bytes32",
          "name": "",
          "type": "bytes32"
        }
      ],
      "stateMutability": "view",
      "type": "function",
      "constant": true
    },
    {
      "inputs": [],
      "name": "feeTo",
      "outputs": [
        {
          "internalType": "address",
          "name": "",
          "type": "address"
        }
      ],
      "stateMutability": "view",
      "type": "function",
      "constant": true
    },
    {
      "inputs": [
        {
          "internalType": "bytes32",
          "name": "role",
          "type": "bytes32"
        }
      ],
      "name": "getRoleAdmin",
      "outputs": [
        {
          "internalType": "bytes32",
          "name": "",
          "type": "bytes32"
        }
      ],
      "stateMutability": "view",
      "type": "function",
      "constant": true
    },
    {
      "inputs": [
        {
          "internalType": "bytes32",
          "name": "role",
          "type": "bytes32"
        },
        {
          "internalType": "uint256",
          "name": "index",
          "type": "uint256"
        }
      ],
      "name": "getRoleMember",
      "outputs": [
        {
          "internalType": "address",
          "name": "",
          "type": "address"
        }
      ],
      "stateMutability": "view",
      "type": "function",
      "constant": true
    },
    {
      "inputs": [
        {
          "internalType": "bytes32",
          "name": "role",
          "type": "bytes32"
        }
      ],
      "name": "getRoleMemberCount",
      "outputs": [
        {
          "internalType": "uint256",
          "name": "",
          "type": "uint256"
        }
      ],
      "stateMutability": "view",
      "type": "function",
      "constant": true
    },
    {
      "inputs": [
        {
          "internalType": "bytes32",
          "name": "role",
          "type": "bytes32"
        },
        {
          "internalType": "address",
          "name": "account",
          "type": "address"
        }
      ],
      "name": "grantRole",
      "outputs": [],
      "stateMutability": "nonpayable",
      "type": "function"
    },
    {
      "inputs": [
        {
          "internalType": "bytes32",
          "name": "role",
          "type": "bytes32"
        },
        {
          "internalType": "address",
          "name": "account",
          "type": "address"
        }
      ],
      "name": "hasRole",
      "outputs": [
        {
          "internalType": "bool",
          "name": "",
          "type": "bool"
        }
      ],
      "stateMutability": "view",
      "type": "function",
      "constant": true
    },
    {
      "inputs": [],
      "name": "operator",
      "outputs": [
        {
          "internalType": "address",
          "name": "",
          "type": "address"
        }
      ],
      "stateMutability": "view",
      "type": "function",
      "constant": true
    },
    {
      "inputs": [
        {
          "internalType": "bytes32",
          "name": "",
          "type": "bytes32"
        }
      ],
      "name": "records",
      "outputs": [
        {
          "internalType": "address",
          "name": "user",
          "type": "address"
        },
        {
          "internalType": "address",
          "name": "fromToken",
          "type": "address"
        },
        {
          "internalType": "address",
          "name": "toToken",
          "type": "address"
        },
        {
          "internalType": "uint256",
          "name": "price",
          "type": "uint256"
        },
        {
          "internalType": "uint256",
          "name": "amount",
          "type": "uint256"
        },
        {
          "internalType": "bool",
          "name": "isForever",
          "type": "bool"
        },
        {
          "internalType": "uint256",
          "name": "interval",
          "type": "uint256"
        },
        {
          "internalType": "uint256",
          "name": "lastCheck",
          "type": "uint256"
        },
        {
          "internalType": "uint256",
          "name": "received",
          "type": "uint256"
        }
      ],
      "stateMutability": "view",
      "type": "function",
      "constant": true
    },
    {
      "inputs": [
        {
          "internalType": "bytes32",
          "name": "role",
          "type": "bytes32"
        },
        {
          "internalType": "address",
          "name": "account",
          "type": "address"
        }
      ],
      "name": "renounceRole",
      "outputs": [],
      "stateMutability": "nonpayable",
      "type": "function"
    },
    {
      "inputs": [
        {
          "internalType": "bytes32",
          "name": "role",
          "type": "bytes32"
        },
        {
          "internalType": "address",
          "name": "account",
          "type": "address"
        }
      ],
      "name": "revokeRole",
      "outputs": [],
      "stateMutability": "nonpayable",
      "type": "function"
    },
    {
      "inputs": [],
      "name": "router",
      "outputs": [
        {
          "internalType": "address",
          "name": "",
          "type": "address"
        }
      ],
      "stateMutability": "view",
      "type": "function",
      "constant": true
    },
    {
      "inputs": [
        {
          "internalType": "address",
          "name": "_feeTo",
          "type": "address"
        },
        {
          "internalType": "address",
          "name": "_operator",
          "type": "address"
        }
      ],
      "name": "setDepedency",
      "outputs": [],
      "stateMutability": "nonpayable",
      "type": "function"
    },
    {
      "inputs": [
        {
          "internalType": "address",
          "name": "user",
          "type": "address"
        },
        {
          "internalType": "address",
          "name": "fromToken",
          "type": "address"
        },
        {
          "internalType": "address",
          "name": "toToken",
          "type": "address"
        },
        {
          "internalType": "uint256",
          "name": "price",
          "type": "uint256"
        }
      ],
      "name": "getKey",
      "outputs": [
        {
          "internalType": "bytes32",
          "name": "key",
          "type": "bytes32"
        }
      ],
      "stateMutability": "pure",
      "type": "function",
      "constant": true
    },
    {
      "inputs": [
        {
          "internalType": "address",
          "name": "_fromToken",
          "type": "address"
        },
        {
          "internalType": "address",
          "name": "_toToken",
          "type": "address"
        },
        {
          "internalType": "uint256",
          "name": "_price",
          "type": "uint256"
        },
        {
          "internalType": "uint256",
          "name": "_amount",
          "type": "uint256"
        },
        {
          "internalType": "bool",
          "name": "_isForever",
          "type": "bool"
        },
        {
          "internalType": "uint256",
          "name": "_interval",
          "type": "uint256"
        }
      ],
      "name": "changeOrder",
      "outputs": [],
      "stateMutability": "nonpayable",
      "type": "function"
    },
    {
      "inputs": [
        {
          "internalType": "address",
          "name": "_tokenIn",
          "type": "address"
        },
        {
          "internalType": "address",
          "name": "_tokenOut",
          "type": "address"
        },
        {
          "internalType": "uint256",
          "name": "_amountOut",
          "type": "uint256"
        },
        {
          "internalType": "uint256",
          "name": "_amountIn",
          "type": "uint256"
        }
      ],
      "name": "getRealPrice",
      "outputs": [
        {
          "internalType": "uint256",
          "name": "",
          "type": "uint256"
        }
      ],
      "stateMutability": "view",
      "type": "function",
      "constant": true
    },
    {
      "inputs": [
        {
          "internalType": "bytes32",
          "name": "key",
          "type": "bytes32"
        },
        {
          "internalType": "address[]",
          "name": "path",
          "type": "address[]"
        },
        {
          "internalType": "uint256",
          "name": "_amountIn",
          "type": "uint256"
        },
        {
          "internalType": "uint256",
          "name": "_amountOut",
          "type": "uint256"
        },
        {
          "internalType": "bool",
          "name": "isReflect",
          "type": "bool"
        }
      ],
      "name": "swap",
      "outputs": [],
      "stateMutability": "nonpayable",
      "type": "function"
    }
  ],
  "bytecode": "0x60806040523480156200001157600080fd5b5060405162002739380380620027398339810160408190526200003491620001e1565b6200004a6000856401000000006200008e810204565b60018054600160a060020a03948516600160a060020a0319918216179091556002805493851693821693909317909255600380549190931691161790555062000241565b620000a38282640100000000620000a7810204565b5050565b6000828152602081905260409020620000cf9082640100000000620015d06200012c82021704565b15620000a357620000e864010000000062000155810204565b600160a060020a031681600160a060020a0316837f2f8788117e7eff1d82e926ec794901d17c78024a50270940304540a733656f0d60405160405180910390a45050565b60006200014c83600160a060020a03841664010000000062000159810204565b90505b92915050565b3390565b6000620001708383640100000000620001b1810204565b620001a8575081546001818101845560008481526020808220909301849055845484825282860190935260409020919091556200014f565b5060006200014f565b60009081526001919091016020526040902054151590565b8051600160a060020a03811681146200014f57600080fd5b60008060008060808587031215620001f7578384fd5b620002038686620001c9565b9350620002148660208701620001c9565b9250620002258660408701620001c9565b9150620002368660608701620001c9565b905092959194509250565b6124e880620002516000396000f3fe608060405234801561001057600080fd5b506004361061010f5760003560e060020a90048063570ca735116100a6578063a217fddf11610075578063a217fddf14610229578063ca15c87314610231578063d547741f14610244578063f887ea4014610257578063f96cd7921461025f5761010f565b8063570ca735146101db5780635a6ac1ec146101e35780639010d07c146101f657806391d14854146102095761010f565b80632f2ff15d116100e25780632f2ff15d1461018f5780633373d16b146101a257806336568abe146101b55780634fe520a5146101c85761010f565b8063017e7e581461011457806301e647251461013257806302f78d9e1461015a578063248a9ca31461016f575b600080fd5b61011c610272565b6040516101299190611c11565b60405180910390f35b610145610140366004611aa4565b610281565b60405161012999989796959493929190611c69565b61016d610168366004611aeb565b6102de565b005b61018261017d366004611aa4565b6108c2565b6040516101299190611d03565b61016d61019d366004611abc565b6108d7565b61016d6101b036600461198a565b610922565b61016d6101c3366004611abc565b610ab7565b6101826101d63660046118f7565b610afc565b61011c610b35565b61016d6101f13660046118c3565b610b44565b61011c610204366004611b88565b610ba9565b61021c610217366004611abc565b610bd0565b6040516101299190611cf8565b610182610bee565b61018261023f366004611aa4565b610bf3565b61016d610252366004611abc565b610c0a565b61011c610c47565b61018261026d366004611947565b610c56565b600254600160a060020a031681565b6004602081905260009182526040909120805460018201546002830154600384015494840154600585015460068601546007870154600890970154600160a060020a0396871698958716979690941695929360ff90921692909189565b600354600160a060020a031633146103145760405160e560020a62461bcd02815260040161030b90611df9565b60405180910390fd5b60028410156103385760405160e560020a62461bcd02815260040161030b9061206b565b82158015906103595750600086815260046020819052604090912001548311155b6103785760405160e560020a62461bcd02815260040161030b90611e9e565b8484600081811061038557fe5b905060200201602081019061039a91906118a8565b600087815260046020526040902060010154600160a060020a039081169116146103d95760405160e560020a62461bcd02815260040161030b90612136565b848460001981018181106103e957fe5b90506020020160208101906103fe91906118a8565b600087815260046020526040902060020154600160a060020a0390811691161461043d5760405160e560020a62461bcd02815260040161030b90611fa0565b60008681526004602052604090206005015460ff16156104935760008681526004602052604090206006810154600790910154014210156104935760405160e560020a62461bcd02815260040161030b90611fd7565b6000858560008181106104a257fe5b90506020020160208101906104b791906118a8565b6000888152600460205260409020600301549091506104fc82888860001981018181106104e057fe5b90506020020160208101906104f591906118a8565b8688610c56565b101561051d5760405160e560020a62461bcd02815260040161030b906120a2565b60008781526004602081905260409182902054915160e060020a6370a082310281528692600160a060020a03808616936370a0823193610561939092169101611c11565b60206040518083038186803b15801561057957600080fd5b505afa15801561058d573d6000803e3d6000fd5b505050506040513d601f19601f820116820180604052508101906105b19190611ba9565b108061066657506000878152600460208190526040918290205491517fdd62ed3e0000000000000000000000000000000000000000000000000000000081528692600160a060020a038086169363dd62ed3e936106149390921691309101611c25565b60206040518083038186803b15801561062c57600080fd5b505afa158015610640573d6000803e3d6000fd5b505050506040513d601f19601f820116820180604052508101906106649190611ba9565b105b1561069a576040517fed6f8663afaec789fee1c55948af73730fa3a1fa25d08e4a3972588efaff779290600090a1506108ba565b6106dc84848888808060200260200160405190810160405280939291908181526020018383602002808284376000920191909152508d9250889150610d869050565b60008781526004602052604090206005015460ff161561071057600087815260046020526040902042600790910155610747565b60008781526004602081905260409091200154610733908563ffffffff6111d416565b600088815260046020819052604090912001555b867f30ab72ae2848fc37e72eba207bc20664ea6d4cc9ff877d99361a34fb935ae609600460008a815260200190815260200160002060405161078991906122f2565b60405180910390a260025460405160e060020a6370a0823102815261083391600160a060020a0390811691908416906370a08231906107cc903090600401611c11565b60206040518083038186803b1580156107e457600080fd5b505afa1580156107f8573d6000803e3d6000fd5b505050506040513d601f19601f8201168201806040525081019061081c9190611ba9565b600160a060020a038416919063ffffffff6111ff16565b600087815260046020819052604090912001546108b85760008781526004602081905260408220805473ffffffffffffffffffffffffffffffffffffffff1990811682556001820180548216905560028201805490911690556003810183905590810182905560058101805460ff191690556006810182905560078101829055600801555b505b505050505050565b60009081526020819052604090206002015490565b6000828152602081905260409020600201546108f59061021761128a565b6109145760405160e560020a62461bcd02815260040161030b90611d9c565b61091e828261128e565b5050565b84600160a060020a031686600160a060020a031614156109575760405160e560020a62461bcd02815260040161030b90611e67565b836109775760405160e560020a62461bcd02815260040161030b906120a2565b600061098533888888610afc565b60008181526004602081905260409182902080543373ffffffffffffffffffffffffffffffffffffffff199182161782556001820180548216600160a060020a038e811691909117909155600283018054909216908c161790556003810189905590810187905560058101805460ff191687151517905560068101859055905191925082917f30ab72ae2848fc37e72eba207bc20664ea6d4cc9ff877d99361a34fb935ae60991610a35916122f2565b60405180910390a2836108b85760009081526004602081905260408220805473ffffffffffffffffffffffffffffffffffffffff1990811682556001820180548216905560028201805490911690556003810183905590810182905560058101805460ff19169055600681018290556007810182905560080155505050505050565b610abf61128a565b600160a060020a031681600160a060020a031614610af25760405160e560020a62461bcd02815260040161030b90612295565b61091e82826112fd565b600084848484604051602001610b159493929190611c3f565b604051602081830303815290604052805190602001209050949350505050565b600354600160a060020a031681565b610b4f600033610bd0565b610b6e5760405160e560020a62461bcd02815260040161030b90612201565b60028054600160a060020a0393841673ffffffffffffffffffffffffffffffffffffffff199182161790915560038054929093169116179055565b6000828152602081905260408120610bc7908363ffffffff61136c16565b90505b92915050565b6000828152602081905260408120610bc7908363ffffffff61137816565b600081565b6000818152602081905260408120610bca9061138d565b600082815260208190526040902060020154610c289061021761128a565b610af25760405160e560020a62461bcd02815260040161030b9061200e565b600154600160a060020a031681565b60008085600160a060020a031663313ce5676040518163ffffffff1660e060020a02815260040160206040518083038186803b158015610c9557600080fd5b505afa158015610ca9573d6000803e3d6000fd5b505050506040513d601f19601f82011682018060405250810190610ccd9190611bc1565b9050600085600160a060020a031663313ce5676040518163ffffffff1660e060020a02815260040160206040518083038186803b158015610d0d57600080fd5b505afa158015610d21573d6000803e3d6000fd5b505050506040513d601f19601f82011682018060405250810190610d459190611bc1565b905060ff81830360120116610d7a85610d6e633b9aca00818a600a87900a63ffffffff61139816565b9063ffffffff6113d516565b98975050505050505050565b6000828152600460205260408120548451610dd492600160a060020a0390921691309189918891610db357fe5b6020026020010151600160a060020a031661140a909392919063ffffffff16565b600083600081518110610de357fe5b6020026020010151600160a060020a03166370a08231306040518263ffffffff1660e060020a028152600401610e199190611c11565b60206040518083038186803b158015610e3157600080fd5b505afa158015610e45573d6000803e3d6000fd5b505050506040513d601f19601f82011682018060405250810190610e699190611ba9565b90506000610e856103e8610d6e846103e563ffffffff61139816565b9050610ece600160009054906101000a9004600160a060020a03168287600081518110610eae57fe5b6020026020010151600160a060020a03166114349092919063ffffffff16565b600085600187510381518110610ee057fe5b602090810291909101810151600087815260049283905260409081902054905160e060020a6370a08231028152600160a060020a03928316936370a0823193610f2b93169101611c11565b60206040518083038186803b158015610f4357600080fd5b505afa158015610f57573d6000803e3d6000fd5b505050506040513d601f19601f82011682018060405250810190610f7b9190611ba9565b9050831561101b576001546000868152600460208190526040918290205491517f5c11d795000000000000000000000000000000000000000000000000000000008152600160a060020a0393841693635c11d79593610fe49388938e938e931691429101612397565b600060405180830381600087803b158015610ffe57600080fd5b505af1158015611012573d6000803e3d6000fd5b505050506110d4565b6001546000868152600460208190526040918290205491517f38ed1739000000000000000000000000000000000000000000000000000000008152600160a060020a03938416936338ed17399361107c9388938e938e931691429101612397565b600060405180830381600087803b15801561109657600080fd5b505af11580156110aa573d6000803e3d6000fd5b505050506040513d6000823e601f3d908101601f191682016040526110d291908101906119f0565b505b6000866001885103815181106110e657fe5b602090810291909101810151600088815260049283905260409081902054905160e060020a6370a08231028152600160a060020a03928316936370a082319361113193169101611c11565b60206040518083038186803b15801561114957600080fd5b505afa15801561115d573d6000803e3d6000fd5b505050506040513d601f19601f820116820180604052508101906111819190611ba9565b90506111b4611196828463ffffffff6111d416565b6000888152600460205260409020600801549063ffffffff61151616565b600096875260046020526040909620600801959095555050505050505050565b6000828211156111f95760405160e560020a62461bcd02815260040161030b90611ed5565b50900390565b6112858363a9059cbb60e060020a028484604051602401611221929190611cdf565b60408051601f198184030181529190526020810180517bffffffffffffffffffffffffffffffffffffffffffffffffffffffff167fffffffff000000000000000000000000000000000000000000000000000000009093169290921790915261153e565b505050565b3390565b60008281526020819052604090206112ac908263ffffffff6115d016565b1561091e576112b961128a565b600160a060020a031681600160a060020a0316837f2f8788117e7eff1d82e926ec794901d17c78024a50270940304540a733656f0d60405160405180910390a45050565b600082815260208190526040902061131b908263ffffffff6115e516565b1561091e5761132861128a565b600160a060020a031681600160a060020a0316837ff6391f5c32d9c69d2a47ea670b442974b53935d1edc7fd64eb21e047a839171b60405160405180910390a45050565b6000610bc783836115fa565b6000610bc783600160a060020a038416611642565b6000610bca8261165a565b6000826113a757506000610bca565b828202828482816113b457fe5b0414610bc75760405160e560020a62461bcd02815260040161030b906120d9565b60008082116113f95760405160e560020a62461bcd02815260040161030b90611f69565b81838161140257fe5b049392505050565b61142e846323b872dd60e060020a0285858560405160240161122193929190611cbb565b50505050565b8015806114d557506040517fdd62ed3e000000000000000000000000000000000000000000000000000000008152600160a060020a0384169063dd62ed3e906114839030908690600401611c25565b60206040518083038186803b15801561149b57600080fd5b505afa1580156114af573d6000803e3d6000fd5b505050506040513d601f19601f820116820180604052508101906114d39190611ba9565b155b6114f45760405160e560020a62461bcd02815260040161030b90612238565b6112858363095ea7b360e060020a028484604051602401611221929190611cdf565b600082820183811015610bc75760405160e560020a62461bcd02815260040161030b90611e30565b6060611593826040518060400160405280602081526020017f5361666545524332303a206c6f772d6c6576656c2063616c6c206661696c656481525085600160a060020a031661165e9092919063ffffffff16565b80519091501561128557808060200190518101906115b19190611a88565b6112855760405160e560020a62461bcd02815260040161030b906121a4565b6000610bc783600160a060020a038416611677565b6000610bc783600160a060020a0384166116c1565b815460009082106116205760405160e560020a62461bcd02815260040161030b90611d3f565b82600001828154811061162f57fe5b9060005260206000200154905092915050565b60009081526001919091016020526040902054151590565b5490565b606061166d8484600085611787565b90505b9392505050565b60006116838383611642565b6116b957508154600181810184556000848152602080822090930184905584548482528286019093526040902091909155610bca565b506000610bca565b6000818152600183016020526040812054801561177d57835460001980830191908101906000908790839081106116f457fe5b906000526020600020015490508087600001848154811061171157fe5b60009182526020808320909101929092558281526001898101909252604090209084019055865487908061174157fe5b60019003818190600052602060002001600090559055866001016000878152602001908152602001600020600090556001945050505050610bca565b6000915050610bca565b606030318311156117ad5760405160e560020a62461bcd02815260040161030b90611f0c565b6117b68561184f565b6117d55760405160e560020a62461bcd02815260040161030b9061216d565b6000606086600160a060020a031685876040516117f29190611bf5565b60006040518083038185875af1925050503d806000811461182f576040519150601f19603f3d011682016040523d82523d6000602084013e611834565b606091505b5091509150611844828286611855565b979650505050505050565b3b151590565b60608315611864575081611670565b8251156118745782518084602001fd5b8160405160e560020a62461bcd02815260040161030b9190611d0c565b8035600160a060020a0381168114610bca57600080fd5b6000602082840312156118b9578081fd5b610bc78383611891565b600080604083850312156118d5578081fd5b6118df8484611891565b91506118ee8460208501611891565b90509250929050565b6000806000806080858703121561190c578182fd5b84356119178161248c565b935060208501356119278161248c565b925060408501356119378161248c565b9396929550929360600135925050565b6000806000806080858703121561195c578384fd5b6119668686611891565b93506119758660208701611891565b93969395505050506040820135916060013590565b60008060008060008060c087890312156119a2578182fd5b86356119ad8161248c565b955060208701356119bd8161248c565b9450604087013593506060870135925060808701356119db816124a4565b8092505060a087013590509295509295509295565b60006020808385031215611a02578182fd5b825167ffffffffffffffff811115611a18578283fd5b80840185601f820112611a29578384fd5b80519150611a3e611a398361242e565b612407565b8281528381019082850185850284018601891015611a5a578687fd5b8693505b84841015611a7c578051835260019390930192918501918501611a5e565b50979650505050505050565b600060208284031215611a99578081fd5b8151610bc7816124a4565b600060208284031215611ab5578081fd5b5035919050565b60008060408385031215611ace578182fd5b823591506020830135611ae08161248c565b809150509250929050565b60008060008060008060a08789031215611b03578182fd5b86359550602087013567ffffffffffffffff80821115611b21578384fd5b8189018a601f820112611b32578485fd5b8035925081831115611b42578485fd5b8a60208085028301011115611b55578485fd5b60200196509094505060408701359250606087013591506080870135611b7a816124a4565b809150509295509295509295565b60008060408385031215611b9a578182fd5b50508035926020909101359150565b600060208284031215611bba578081fd5b5051919050565b600060208284031215611bd2578081fd5b815160ff81168114610bc7578182fd5b600160a060020a03169052565b15159052565b60008251611c0781846020870161245a565b9190910192915050565b600160a060020a0391909116815260200190565b600160a060020a0392831681529116602082015260400190565b600160a060020a039485168152928416602084015292166040820152606081019190915260800190565b600160a060020a03998a168152978916602089015295909716604087015260608601939093526080850191909152151560a084015260c083015260e08201929092526101008101919091526101200190565b600160a060020a039384168152919092166020820152604081019190915260600190565b600160a060020a03929092168252602082015260400190565b901515815260200190565b90815260200190565b6000602082528251806020840152611d2b81604085016020870161245a565b601f01601f19169190910160400192915050565b60208082526022908201527f456e756d657261626c655365743a20696e646578206f7574206f6620626f756e60408201527f6473000000000000000000000000000000000000000000000000000000000000606082015260800190565b6020808252602f908201527f416363657373436f6e74726f6c3a2073656e646572206d75737420626520616e60408201527f2061646d696e20746f206772616e740000000000000000000000000000000000606082015260800190565b6020808252600e908201527f696e76616c69642073656e646572000000000000000000000000000000000000604082015260600190565b6020808252601b908201527f536166654d6174683a206164646974696f6e206f766572666c6f770000000000604082015260600190565b60208082526004908201527f73616d6500000000000000000000000000000000000000000000000000000000604082015260600190565b6020808252600e908201527f696e76616c696420616d6f756e74000000000000000000000000000000000000604082015260600190565b6020808252601e908201527f536166654d6174683a207375627472616374696f6e206f766572666c6f770000604082015260600190565b60208082526026908201527f416464726573733a20696e73756666696369656e742062616c616e636520666f60408201527f722063616c6c0000000000000000000000000000000000000000000000000000606082015260800190565b6020808252601a908201527f536166654d6174683a206469766973696f6e206279207a65726f000000000000604082015260600190565b6020808252600f908201527f696e76616c696420746f546f6b656e0000000000000000000000000000000000604082015260600190565b60208082526008908201527f696e74657276616c000000000000000000000000000000000000000000000000604082015260600190565b60208082526030908201527f416363657373436f6e74726f6c3a2073656e646572206d75737420626520616e60408201527f2061646d696e20746f207265766f6b6500000000000000000000000000000000606082015260800190565b6020808252600c908201527f696e76616c696420706174680000000000000000000000000000000000000000604082015260600190565b6020808252600d908201527f696e76616c696420707269636500000000000000000000000000000000000000604082015260600190565b60208082526021908201527f536166654d6174683a206d756c7469706c69636174696f6e206f766572666c6f60408201527f7700000000000000000000000000000000000000000000000000000000000000606082015260800190565b60208082526011908201527f696e76616c69642066726f6d546f6b656e000000000000000000000000000000604082015260600190565b6020808252601d908201527f416464726573733a2063616c6c20746f206e6f6e2d636f6e7472616374000000604082015260600190565b6020808252602a908201527f5361666545524332303a204552433230206f7065726174696f6e20646964206e60408201527f6f74207375636365656400000000000000000000000000000000000000000000606082015260800190565b60208082526009908201527f6e6f742061646d696e0000000000000000000000000000000000000000000000604082015260600190565b60208082526036908201527f5361666545524332303a20617070726f76652066726f6d206e6f6e2d7a65726f60408201527f20746f206e6f6e2d7a65726f20616c6c6f77616e636500000000000000000000606082015260800190565b6020808252602f908201527f416363657373436f6e74726f6c3a2063616e206f6e6c792072656e6f756e636560408201527f20726f6c657320666f722073656c660000000000000000000000000000000000606082015260800190565b60006101208201905061230e82612309855461244e565b611be2565b61231b600184015461244e565b6123286020840182611be2565b50612336600284015461244e565b6123436040840182611be2565b5060038301546060830152600483015460808301526123656005840154612486565b61237260a0840182611bef565b50600683015460c0830152600783015460e08301526008909201546101009091015290565b600060a082018783526020878185015260a0604085015281875180845260c0860191508289019350845b818110156123e6578451600160a060020a0316835293830193918301916001016123c1565b5050600160a060020a03969096166060850152505050608001529392505050565b60405181810167ffffffffffffffff8111828210171561242657600080fd5b604052919050565b600067ffffffffffffffff821115612444578081fd5b5060209081020190565b600160a060020a031690565b60005b8381101561247557818101518382015260200161245d565b8381111561142e5750506000910152565b60ff1690565b600160a060020a03811681146124a157600080fd5b50565b80151581146124a157600080fdfea264697066735822122068690c5ff2b96edbad00fd94feccb263c95186f88c10b5c89730cff21a5f73c164736f6c63430006060033",
  "immutableReferences": {},
  "source": "// SPDX-License-Identifier: MIT\npragma solidity >=0.6.2;\npragma experimental ABIEncoderV2;\n\nimport \"@openzeppelin/contracts/access/AccessControl.sol\";\nimport \"@openzeppelin/contracts/token/ERC20/IERC20.sol\";\nimport \"@openzeppelin/contracts/token/ERC20/SafeERC20.sol\";\nimport \"@openzeppelin/contracts/math/SafeMath.sol\";\n\n\nstruct Order {\n  address user;\n  address fromToken;\n  address toToken;\n  uint    price;\n  uint    amount;\n  bool    isForever;\n  uint    interval; // seconds\n  uint    lastCheck; // only forever order\n  uint    received;\n}\n\ninterface IIUniswapV2Router02{\n      function swapExactTokensForTokens(\n        uint amountIn,\n        uint amountOutMin,\n        address[] calldata path,\n        address to,\n        uint deadline\n    ) external returns (uint[] memory amounts);\n        function swapExactTokensForTokensSupportingFeeOnTransferTokens(\n        uint amountIn,\n        uint amountOutMin,\n        address[] calldata path,\n        address to,\n        uint deadline\n    ) external;\n}\ninterface IEERC20 is IERC20 {\n  function symbol() external view returns (string memory);\n  function decimals() external view returns (uint8);\n}\ncontract Swap is AccessControl {\n  using SafeMath for uint;\n  using SafeERC20 for IEERC20;\n\n  address public router;\n  address public feeTo;\n  address public operator;\n\n  mapping(bytes32=>Order) public records;\n\n  event ignore();  \n  event changeOrderEvent(bytes32 indexed key, Order record);\n\n  constructor(address _admin, address _router, address _feeTo, address _operator) public {\n    _setupRole(DEFAULT_ADMIN_ROLE, _admin);\n    router = _router;\n    feeTo = _feeTo;\n    operator = _operator;\n  }\n\n  function setDepedency(address _feeTo, address _operator) external {\n    require(hasRole(DEFAULT_ADMIN_ROLE, msg.sender), \"not admin\");\n    feeTo = _feeTo;\n    operator = _operator;\n  }\n\n  function getKey(address user, address fromToken, address toToken, uint price) public pure returns (bytes32 key){\n    return keccak256(abi.encode(user, fromToken, toToken, price));\n  }\n\n  function changeOrder(address _fromToken, address _toToken, uint _price, uint _amount, bool _isForever, uint _interval) external {\n    require(_fromToken != _toToken,'same');\n    require(_price != 0,'invalid price');\n    bytes32 key = getKey(msg.sender, _fromToken, _toToken, _price);\n\n    records[key].user = msg.sender;\n    records[key].fromToken = _fromToken;\n    records[key].toToken = _toToken;\n    records[key].price = _price;\n    records[key].amount = _amount;\n    records[key].isForever = _isForever;\n    records[key].interval = _interval;\n    \n    emit changeOrderEvent(key, records[key]);\n    if(_amount == 0) {\n      delete records[key];\n    } \n  }\n\n  function getRealPrice(address _tokenIn, address _tokenOut, uint256 _amountOut, uint256 _amountIn) public view returns (uint256) {\n    uint8 din  = IEERC20(_tokenIn).decimals();\n    uint8 dout = IEERC20(_tokenOut).decimals();\n    uint dd = 18 + din - dout;\n    return   _amountOut.mul(10** dd).div(10**9).div(_amountIn);\n  }\n\n  function _swap(uint _amountIn, uint _amountOut, address[] memory path, bytes32 key, bool isReflect) internal {\n    // TODO  for FINN later.\n\n    IEERC20(path[0]).safeTransferFrom(records[key].user, address(this), _amountIn);\n    uint balanceThis = IERC20(path[0]).balanceOf(address(this));\n    uint amountInWithFee = balanceThis.mul(997).div(1000);\n    IEERC20(path[0]).safeApprove(router, amountInWithFee);\n\n    uint balanceBefore = IERC20(path[path.length - 1]).balanceOf(records[key].user);\n    if(isReflect){\n      IIUniswapV2Router02(router).swapExactTokensForTokensSupportingFeeOnTransferTokens(amountInWithFee, _amountOut, path, records[key].user, block.timestamp);\n    } else {\n      IIUniswapV2Router02(router).swapExactTokensForTokens(amountInWithFee, _amountOut, path, records[key].user, block.timestamp);\n    }\n    uint balanceAfter = IERC20(path[path.length - 1]).balanceOf(records[key].user);\n    records[key].received = records[key].received.add(balanceAfter.sub(balanceBefore));\n  }\n  function swap(bytes32 key, address[] calldata path, uint256 _amountIn, uint256 _amountOut, bool isReflect) external {\n    require(msg.sender == operator,\"invalid sender\");\n    require(path.length >= 2,\"invalid path\");\n    require(_amountIn != 0 && _amountIn <= records[key].amount,\"invalid amount\");\n    require(records[key].fromToken == path[0],'invalid fromToken');\n    require(records[key].toToken == path[path.length-1],'invalid toToken');\n    if(records[key].isForever) {\n      require(block.timestamp >= records[key].lastCheck + records[key].interval,\"interval\");\n    }\n    address _tokenIn = path[0];\n    //  check the _amountOut is >= price.\n    require(getRealPrice(_tokenIn,path[path.length-1], _amountOut, _amountIn) >= records[key].price, \"invalid price\");\n\n    if( IEERC20(_tokenIn).balanceOf(records[key].user) < _amountIn \n      || IEERC20(_tokenIn).allowance(records[key].user, address(this)) < _amountIn ) {\n        emit ignore(); // operator will avoid this case.\n        return;\n    }\n\n    _swap(_amountIn, _amountOut, path, key, isReflect);\n    \n    if(records[key].isForever) {\n      records[key].lastCheck = block.timestamp;\n    } else {\n      records[key].amount = records[key].amount.sub(_amountIn);\n    }\n    emit changeOrderEvent(key, records[key]);\n    IEERC20(_tokenIn).safeTransfer(feeTo, IEERC20(_tokenIn).balanceOf(address(this)));\n    if(records[key].amount == 0) {\n      delete records[key];\n    }\n  }\n}\n\n",
  "sourcePath": "/home/lzhang/dfund/order_contract/contracts/Swap.sol",
  "compiler": {
    "name": "solc",
    "version": "0.6.6+commit.6c089d02.Emscripten.clang"
  },
  "schemaVersion": "3.4.3",
  "updatedAt": "2021-10-12T04:15:45.147Z",
  "networkType": "ethereum",
  "devdoc": {
    "methods": {
      "getRoleAdmin(bytes32)": {
        "details": "Returns the admin role that controls `role`. See {grantRole} and {revokeRole}.     * To change a role's admin, use {_setRoleAdmin}."
      },
      "getRoleMember(bytes32,uint256)": {
        "details": "Returns one of the accounts that have `role`. `index` must be a value between 0 and {getRoleMemberCount}, non-inclusive.     * Role bearers are not sorted in any particular way, and their ordering may change at any point.     * WARNING: When using {getRoleMember} and {getRoleMemberCount}, make sure you perform all queries on the same block. See the following https://forum.openzeppelin.com/t/iterating-over-elements-on-enumerableset-in-openzeppelin-contracts/2296[forum post] for more information."
      },
      "getRoleMemberCount(bytes32)": {
        "details": "Returns the number of accounts that have `role`. Can be used together with {getRoleMember} to enumerate all bearers of a role."
      },
      "grantRole(bytes32,address)": {
        "details": "Grants `role` to `account`.     * If `account` had not been already granted `role`, emits a {RoleGranted} event.     * Requirements:     * - the caller must have ``role``'s admin role."
      },
      "hasRole(bytes32,address)": {
        "details": "Returns `true` if `account` has been granted `role`."
      },
      "renounceRole(bytes32,address)": {
        "details": "Revokes `role` from the calling account.     * Roles are often managed via {grantRole} and {revokeRole}: this function's purpose is to provide a mechanism for accounts to lose their privileges if they are compromised (such as when a trusted device is misplaced).     * If the calling account had been granted `role`, emits a {RoleRevoked} event.     * Requirements:     * - the caller must be `account`."
      },
      "revokeRole(bytes32,address)": {
        "details": "Revokes `role` from `account`.     * If `account` had been granted `role`, emits a {RoleRevoked} event.     * Requirements:     * - the caller must have ``role``'s admin role."
      }
    }
  },
  "userdoc": {
    "methods": {}
  }
}