{
  "contractName": "Swap",
  "abi": [
    {
      "inputs": [
        {
          "internalType": "address",
          "name": "_admin",
          "type": "address"
        },
        {
          "internalType": "address",
          "name": "_router",
          "type": "address"
        },
        {
          "internalType": "address",
          "name": "_feeTo",
          "type": "address"
        },
        {
          "internalType": "address",
          "name": "_operator",
          "type": "address"
        }
      ],
      "stateMutability": "nonpayable",
      "type": "constructor"
    },
    {
      "anonymous": false,
      "inputs": [
        {
          "indexed": true,
          "internalType": "bytes32",
          "name": "role",
          "type": "bytes32"
        },
        {
          "indexed": true,
          "internalType": "bytes32",
          "name": "previousAdminRole",
          "type": "bytes32"
        },
        {
          "indexed": true,
          "internalType": "bytes32",
          "name": "newAdminRole",
          "type": "bytes32"
        }
      ],
      "name": "RoleAdminChanged",
      "type": "event"
    },
    {
      "anonymous": false,
      "inputs": [
        {
          "indexed": true,
          "internalType": "bytes32",
          "name": "role",
          "type": "bytes32"
        },
        {
          "indexed": true,
          "internalType": "address",
          "name": "account",
          "type": "address"
        },
        {
          "indexed": true,
          "internalType": "address",
          "name": "sender",
          "type": "address"
        }
      ],
      "name": "RoleGranted",
      "type": "event"
    },
    {
      "anonymous": false,
      "inputs": [
        {
          "indexed": true,
          "internalType": "bytes32",
          "name": "role",
          "type": "bytes32"
        },
        {
          "indexed": true,
          "internalType": "address",
          "name": "account",
          "type": "address"
        },
        {
          "indexed": true,
          "internalType": "address",
          "name": "sender",
          "type": "address"
        }
      ],
      "name": "RoleRevoked",
      "type": "event"
    },
    {
      "anonymous": false,
      "inputs": [
        {
          "indexed": true,
          "internalType": "bytes32",
          "name": "key",
          "type": "bytes32"
        },
        {
          "components": [
            {
              "internalType": "address",
              "name": "user",
              "type": "address"
            },
            {
              "internalType": "address",
              "name": "fromToken",
              "type": "address"
            },
            {
              "internalType": "address",
              "name": "toToken",
              "type": "address"
            },
            {
              "internalType": "uint256",
              "name": "price",
              "type": "uint256"
            },
            {
              "internalType": "uint256",
              "name": "amount",
              "type": "uint256"
            },
            {
              "internalType": "bool",
              "name": "isForever",
              "type": "bool"
            },
            {
              "internalType": "uint256",
              "name": "interval",
              "type": "uint256"
            },
            {
              "internalType": "uint256",
              "name": "lastCheck",
              "type": "uint256"
            },
            {
              "internalType": "uint256",
              "name": "received",
              "type": "uint256"
            }
          ],
          "indexed": false,
          "internalType": "struct Order",
          "name": "record",
          "type": "tuple"
        }
      ],
      "name": "changeOrderEvent",
      "type": "event"
    },
    {
      "anonymous": false,
      "inputs": [],
      "name": "ignore",
      "type": "event"
    },
    {
      "inputs": [],
      "name": "DEFAULT_ADMIN_ROLE",
      "outputs": [
        {
          "internalType": "bytes32",
          "name": "",
          "type": "bytes32"
        }
      ],
      "stateMutability": "view",
      "type": "function"
    },
    {
      "inputs": [],
      "name": "feeTo",
      "outputs": [
        {
          "internalType": "address",
          "name": "",
          "type": "address"
        }
      ],
      "stateMutability": "view",
      "type": "function"
    },
    {
      "inputs": [
        {
          "internalType": "bytes32",
          "name": "role",
          "type": "bytes32"
        }
      ],
      "name": "getRoleAdmin",
      "outputs": [
        {
          "internalType": "bytes32",
          "name": "",
          "type": "bytes32"
        }
      ],
      "stateMutability": "view",
      "type": "function"
    },
    {
      "inputs": [
        {
          "internalType": "bytes32",
          "name": "role",
          "type": "bytes32"
        },
        {
          "internalType": "uint256",
          "name": "index",
          "type": "uint256"
        }
      ],
      "name": "getRoleMember",
      "outputs": [
        {
          "internalType": "address",
          "name": "",
          "type": "address"
        }
      ],
      "stateMutability": "view",
      "type": "function"
    },
    {
      "inputs": [
        {
          "internalType": "bytes32",
          "name": "role",
          "type": "bytes32"
        }
      ],
      "name": "getRoleMemberCount",
      "outputs": [
        {
          "internalType": "uint256",
          "name": "",
          "type": "uint256"
        }
      ],
      "stateMutability": "view",
      "type": "function"
    },
    {
      "inputs": [
        {
          "internalType": "bytes32",
          "name": "role",
          "type": "bytes32"
        },
        {
          "internalType": "address",
          "name": "account",
          "type": "address"
        }
      ],
      "name": "grantRole",
      "outputs": [],
      "stateMutability": "nonpayable",
      "type": "function"
    },
    {
      "inputs": [
        {
          "internalType": "bytes32",
          "name": "role",
          "type": "bytes32"
        },
        {
          "internalType": "address",
          "name": "account",
          "type": "address"
        }
      ],
      "name": "hasRole",
      "outputs": [
        {
          "internalType": "bool",
          "name": "",
          "type": "bool"
        }
      ],
      "stateMutability": "view",
      "type": "function"
    },
    {
      "inputs": [],
      "name": "operator",
      "outputs": [
        {
          "internalType": "address",
          "name": "",
          "type": "address"
        }
      ],
      "stateMutability": "view",
      "type": "function"
    },
    {
      "inputs": [
        {
          "internalType": "bytes32",
          "name": "",
          "type": "bytes32"
        }
      ],
      "name": "records",
      "outputs": [
        {
          "internalType": "address",
          "name": "user",
          "type": "address"
        },
        {
          "internalType": "address",
          "name": "fromToken",
          "type": "address"
        },
        {
          "internalType": "address",
          "name": "toToken",
          "type": "address"
        },
        {
          "internalType": "uint256",
          "name": "price",
          "type": "uint256"
        },
        {
          "internalType": "uint256",
          "name": "amount",
          "type": "uint256"
        },
        {
          "internalType": "bool",
          "name": "isForever",
          "type": "bool"
        },
        {
          "internalType": "uint256",
          "name": "interval",
          "type": "uint256"
        },
        {
          "internalType": "uint256",
          "name": "lastCheck",
          "type": "uint256"
        },
        {
          "internalType": "uint256",
          "name": "received",
          "type": "uint256"
        }
      ],
      "stateMutability": "view",
      "type": "function"
    },
    {
      "inputs": [
        {
          "internalType": "bytes32",
          "name": "role",
          "type": "bytes32"
        },
        {
          "internalType": "address",
          "name": "account",
          "type": "address"
        }
      ],
      "name": "renounceRole",
      "outputs": [],
      "stateMutability": "nonpayable",
      "type": "function"
    },
    {
      "inputs": [
        {
          "internalType": "bytes32",
          "name": "role",
          "type": "bytes32"
        },
        {
          "internalType": "address",
          "name": "account",
          "type": "address"
        }
      ],
      "name": "revokeRole",
      "outputs": [],
      "stateMutability": "nonpayable",
      "type": "function"
    },
    {
      "inputs": [],
      "name": "router",
      "outputs": [
        {
          "internalType": "address",
          "name": "",
          "type": "address"
        }
      ],
      "stateMutability": "view",
      "type": "function"
    },
    {
      "inputs": [
        {
          "internalType": "address",
          "name": "_feeTo",
          "type": "address"
        },
        {
          "internalType": "address",
          "name": "_operator",
          "type": "address"
        }
      ],
      "name": "setDepedency",
      "outputs": [],
      "stateMutability": "nonpayable",
      "type": "function"
    },
    {
      "inputs": [
        {
          "internalType": "address",
          "name": "user",
          "type": "address"
        },
        {
          "internalType": "address",
          "name": "fromToken",
          "type": "address"
        },
        {
          "internalType": "address",
          "name": "toToken",
          "type": "address"
        },
        {
          "internalType": "uint256",
          "name": "price",
          "type": "uint256"
        }
      ],
      "name": "getKey",
      "outputs": [
        {
          "internalType": "bytes32",
          "name": "key",
          "type": "bytes32"
        }
      ],
      "stateMutability": "pure",
      "type": "function"
    },
    {
      "inputs": [
        {
          "internalType": "address",
          "name": "_fromToken",
          "type": "address"
        },
        {
          "internalType": "address",
          "name": "_toToken",
          "type": "address"
        },
        {
          "internalType": "uint256",
          "name": "_price",
          "type": "uint256"
        },
        {
          "internalType": "uint256",
          "name": "_amount",
          "type": "uint256"
        },
        {
          "internalType": "bool",
          "name": "_isForever",
          "type": "bool"
        },
        {
          "internalType": "uint256",
          "name": "_interval",
          "type": "uint256"
        }
      ],
      "name": "changeOrder",
      "outputs": [],
      "stateMutability": "nonpayable",
      "type": "function"
    },
    {
      "inputs": [
        {
          "internalType": "address",
          "name": "_tokenIn",
          "type": "address"
        },
        {
          "internalType": "address",
          "name": "_tokenOut",
          "type": "address"
        },
        {
          "internalType": "uint256",
          "name": "_amountOut",
          "type": "uint256"
        },
        {
          "internalType": "uint256",
          "name": "_amountIn",
          "type": "uint256"
        }
      ],
      "name": "getRealPrice",
      "outputs": [
        {
          "internalType": "uint256",
          "name": "",
          "type": "uint256"
        }
      ],
      "stateMutability": "view",
      "type": "function"
    },
    {
      "inputs": [
        {
          "internalType": "bytes32",
          "name": "key",
          "type": "bytes32"
        },
        {
          "internalType": "address[]",
          "name": "path",
          "type": "address[]"
        },
        {
          "internalType": "uint256",
          "name": "_amountIn",
          "type": "uint256"
        },
        {
          "internalType": "uint256",
          "name": "_amountOut",
          "type": "uint256"
        },
        {
          "internalType": "bool",
          "name": "isReflect",
          "type": "bool"
        },
        {
          "internalType": "bool",
          "name": "isPaid",
          "type": "bool"
        }
      ],
      "name": "swap",
      "outputs": [],
      "stateMutability": "nonpayable",
      "type": "function"
    }
  ],
  "bytecode": "0x60806040523480156200001157600080fd5b506040516200275b3803806200275b8339810160408190526200003491620001e1565b6200004a6000856401000000006200008e810204565b60018054600160a060020a03948516600160a060020a0319918216179091556002805493851693821693909317909255600380549190931691161790555062000241565b620000a38282640100000000620000a7810204565b5050565b6000828152602081905260409020620000cf9082640100000000620014116200012c82021704565b15620000a357620000e864010000000062000155810204565b600160a060020a031681600160a060020a0316837f2f8788117e7eff1d82e926ec794901d17c78024a50270940304540a733656f0d60405160405180910390a45050565b60006200014c83600160a060020a03841664010000000062000159810204565b90505b92915050565b3390565b6000620001708383640100000000620001b1810204565b620001a8575081546001818101845560008481526020808220909301849055845484825282860190935260409020919091556200014f565b5060006200014f565b60009081526001919091016020526040902054151590565b8051600160a060020a03811681146200014f57600080fd5b60008060008060808587031215620001f7578384fd5b620002038686620001c9565b9350620002148660208701620001c9565b9250620002258660408701620001c9565b9150620002368660608701620001c9565b905092959194509250565b61250a80620002516000396000f3fe608060405234801561001057600080fd5b506004361061010f5760003560e060020a90048063596fc81a116100a6578063a217fddf11610075578063a217fddf14610229578063ca15c87314610231578063d547741f14610244578063f887ea4014610257578063f96cd7921461025f5761010f565b8063596fc81a146101d05780635a6ac1ec146101e35780639010d07c146101f657806391d14854146102095761010f565b80633373d16b116100e25780633373d16b1461018f57806336568abe146101a25780634fe520a5146101b5578063570ca735146101c85761010f565b8063017e7e581461011457806301e6472514610132578063248a9ca31461015a5780632f2ff15d1461017a575b600080fd5b61011c610272565b6040516101299190611c33565b60405180910390f35b610145610140366004611ab6565b610281565b60405161012999989796959493929190611c8b565b61016d610168366004611ab6565b6102de565b6040516101299190611d25565b61018d610188366004611ace565b6102f3565b005b61018d61019d36600461199c565b610347565b61018d6101b0366004611ace565b6104de565b61016d6101c3366004611909565b610523565b61011c61055c565b61018d6101de366004611afd565b61056b565b61018d6101f13660046118d5565b610b4c565b61011c610204366004611baa565b610bb1565b61021c610217366004611ace565b610bd8565b6040516101299190611d1a565b61016d610bf6565b61016d61023f366004611ab6565b610bfb565b61018d610252366004611ace565b610c12565b61011c610c4f565b61016d61026d366004611959565b610c5e565b600254600160a060020a031681565b6004602081905260009182526040909120805460018201546002830154600384015494840154600585015460068601546007870154600890970154600160a060020a0396871698958716979690941695929360ff90921692909189565b60009081526020819052604090206002015490565b60008281526020819052604090206002015461031190610217610d8e565b6103395760405160e560020a62461bcd02815260040161033090611dbe565b60405180910390fd5b6103438282610d92565b5050565b84600160a060020a031686600160a060020a0316141561037c5760405160e560020a62461bcd02815260040161033090611e89565b8361039c5760405160e560020a62461bcd028152600401610330906120c4565b60006103aa33888888610523565b60008181526004602081905260409182902080543373ffffffffffffffffffffffffffffffffffffffff199182161782556001820180548216600160a060020a038e811691909117909155600283018054909216908c161790556003810189905590810187905560058101805460ff191687151517905560068101859055905191925082917f30ab72ae2848fc37e72eba207bc20664ea6d4cc9ff877d99361a34fb935ae6099161045a91612314565b60405180910390a2836104d55760008181526004602081905260408220805473ffffffffffffffffffffffffffffffffffffffff1990811682556001820180548216905560028201805490911690556003810183905590810182905560058101805460ff191690556006810182905560078101829055600801555b50505050505050565b6104e6610d8e565b600160a060020a031681600160a060020a0316146105195760405160e560020a62461bcd028152600401610330906122b7565b6103438282610e01565b60008484848460405160200161053c9493929190611c61565b604051602081830303815290604052805190602001209050949350505050565b600354600160a060020a031681565b600354600160a060020a031633146105985760405160e560020a62461bcd02815260040161033090611e1b565b60028510156105bc5760405160e560020a62461bcd0281526004016103309061208d565b83158015906105dd5750600087815260046020819052604090912001548411155b6105fc5760405160e560020a62461bcd02815260040161033090611ec0565b8585600081811061060957fe5b905060200201602081019061061e91906118ba565b600088815260046020526040902060010154600160a060020a0390811691161461065d5760405160e560020a62461bcd02815260040161033090612158565b8585600019810181811061066d57fe5b905060200201602081019061068291906118ba565b600088815260046020526040902060020154600160a060020a039081169116146106c15760405160e560020a62461bcd02815260040161033090611fc2565b60008781526004602052604090206005015460ff16156107175760008781526004602052604090206006810154600790910154014210156107175760405160e560020a62461bcd02815260040161033090611ff9565b60008686600081811061072657fe5b905060200201602081019061073b91906118ba565b600089815260046020526040902060030154909150610780828989600019810181811061076457fe5b905060200201602081019061077991906118ba565b8789610c5e565b10156107a15760405160e560020a62461bcd028152600401610330906120c4565b60008881526004602081905260409182902054915160e060020a6370a082310281528792600160a060020a03808616936370a08231936107e5939092169101611c33565b60206040518083038186803b1580156107fd57600080fd5b505afa158015610811573d6000803e3d6000fd5b505050506040513d601f19601f820116820180604052508101906108359190611bcb565b10806108ea57506000888152600460208190526040918290205491517fdd62ed3e0000000000000000000000000000000000000000000000000000000081528792600160a060020a038086169363dd62ed3e936108989390921691309101611c47565b60206040518083038186803b1580156108b057600080fd5b505afa1580156108c4573d6000803e3d6000fd5b505050506040513d601f19601f820116820180604052508101906108e89190611bcb565b105b1561091e576040517fed6f8663afaec789fee1c55948af73730fa3a1fa25d08e4a3972588efaff779290600090a1506104d5565b61096185858989808060200260200160405190810160405280939291908181526020018383602002808284376000920191909152508e9250899150889050610e70565b60008881526004602052604090206005015460ff1615610995576000888152600460205260409020426007909101556109cc565b600088815260046020819052604090912001546109b8908663ffffffff6112bd16565b600089815260046020819052604090912001555b877f30ab72ae2848fc37e72eba207bc20664ea6d4cc9ff877d99361a34fb935ae609600460008b8152602001908152602001600020604051610a0e9190612314565b60405180910390a281610abd5760025460405160e060020a6370a08231028152610abd91600160a060020a0390811691908416906370a0823190610a56903090600401611c33565b60206040518083038186803b158015610a6e57600080fd5b505afa158015610a82573d6000803e3d6000fd5b505050506040513d601f19601f82011682018060405250810190610aa69190611bcb565b600160a060020a038416919063ffffffff6112e816565b60008881526004602081905260409091200154610b425760008881526004602081905260408220805473ffffffffffffffffffffffffffffffffffffffff1990811682556001820180548216905560028201805490911690556003810183905590810182905560058101805460ff191690556006810182905560078101829055600801555b5050505050505050565b610b57600033610bd8565b610b765760405160e560020a62461bcd02815260040161033090612223565b60028054600160a060020a0393841673ffffffffffffffffffffffffffffffffffffffff199182161790915560038054929093169116179055565b6000828152602081905260408120610bcf908363ffffffff61137316565b90505b92915050565b6000828152602081905260408120610bcf908363ffffffff61137f16565b600081565b6000818152602081905260408120610bd290611394565b600082815260208190526040902060020154610c3090610217610d8e565b6105195760405160e560020a62461bcd02815260040161033090612030565b600154600160a060020a031681565b60008085600160a060020a031663313ce5676040518163ffffffff1660e060020a02815260040160206040518083038186803b158015610c9d57600080fd5b505afa158015610cb1573d6000803e3d6000fd5b505050506040513d601f19601f82011682018060405250810190610cd59190611be3565b9050600085600160a060020a031663313ce5676040518163ffffffff1660e060020a02815260040160206040518083038186803b158015610d1557600080fd5b505afa158015610d29573d6000803e3d6000fd5b505050506040513d601f19601f82011682018060405250810190610d4d9190611be3565b905060ff81830360120116610d8285610d76633b9aca00818a600a87900a63ffffffff61139f16565b9063ffffffff6113dc16565b98975050505050505050565b3390565b6000828152602081905260409020610db0908263ffffffff61141116565b1561034357610dbd610d8e565b600160a060020a031681600160a060020a0316837f2f8788117e7eff1d82e926ec794901d17c78024a50270940304540a733656f0d60405160405180910390a45050565b6000828152602081905260409020610e1f908263ffffffff61142616565b1561034357610e2c610d8e565b600160a060020a031681600160a060020a0316837ff6391f5c32d9c69d2a47ea670b442974b53935d1edc7fd64eb21e047a839171b60405160405180910390a45050565b6000838152600460205260408120548551610ebe92600160a060020a039092169130918a918991610e9d57fe5b6020026020010151600160a060020a031661143b909392919063ffffffff16565b600084600081518110610ecd57fe5b6020026020010151600160a060020a03166370a08231306040518263ffffffff1660e060020a028152600401610f039190611c33565b60206040518083038186803b158015610f1b57600080fd5b505afa158015610f2f573d6000803e3d6000fd5b505050506040513d601f19601f82011682018060405250810190610f539190611bcb565b90508082610f7657610f736103e8610d76846103e563ffffffff61139f16565b90505b6001548651610fb691600160a060020a03169083908990600090610f9657fe5b6020026020010151600160a060020a03166114659092919063ffffffff16565b600086600188510381518110610fc857fe5b602090810291909101810151600088815260049283905260409081902054905160e060020a6370a08231028152600160a060020a03928316936370a082319361101393169101611c33565b60206040518083038186803b15801561102b57600080fd5b505afa15801561103f573d6000803e3d6000fd5b505050506040513d601f19601f820116820180604052508101906110639190611bcb565b90508415611103576001546000878152600460208190526040918290205491517f5c11d795000000000000000000000000000000000000000000000000000000008152600160a060020a0393841693635c11d795936110cc9388938f938f9316914291016123b9565b600060405180830381600087803b1580156110e657600080fd5b505af11580156110fa573d6000803e3d6000fd5b505050506111bc565b6001546000878152600460208190526040918290205491517f38ed1739000000000000000000000000000000000000000000000000000000008152600160a060020a03938416936338ed1739936111649388938f938f9316914291016123b9565b600060405180830381600087803b15801561117e57600080fd5b505af1158015611192573d6000803e3d6000fd5b505050506040513d6000823e601f3d908101601f191682016040526111ba9190810190611a02565b505b6000876001895103815181106111ce57fe5b602090810291909101810151600089815260049283905260409081902054905160e060020a6370a08231028152600160a060020a03928316936370a082319361121993169101611c33565b60206040518083038186803b15801561123157600080fd5b505afa158015611245573d6000803e3d6000fd5b505050506040513d601f19601f820116820180604052508101906112699190611bcb565b905061129c61127e828463ffffffff6112bd16565b6000898152600460205260409020600801549063ffffffff61154716565b60009788526004602052604090972060080196909655505050505050505050565b6000828211156112e25760405160e560020a62461bcd02815260040161033090611ef7565b50900390565b61136e8363a9059cbb60e060020a02848460405160240161130a929190611d01565b60408051601f198184030181529190526020810180517bffffffffffffffffffffffffffffffffffffffffffffffffffffffff167fffffffff000000000000000000000000000000000000000000000000000000009093169290921790915261156f565b505050565b6000610bcf8383611601565b6000610bcf83600160a060020a038416611649565b6000610bd282611661565b6000826113ae57506000610bd2565b828202828482816113bb57fe5b0414610bcf5760405160e560020a62461bcd028152600401610330906120fb565b60008082116114005760405160e560020a62461bcd02815260040161033090611f8b565b81838161140957fe5b049392505050565b6000610bcf83600160a060020a038416611665565b6000610bcf83600160a060020a0384166116af565b61145f846323b872dd60e060020a0285858560405160240161130a93929190611cdd565b50505050565b80158061150657506040517fdd62ed3e000000000000000000000000000000000000000000000000000000008152600160a060020a0384169063dd62ed3e906114b49030908690600401611c47565b60206040518083038186803b1580156114cc57600080fd5b505afa1580156114e0573d6000803e3d6000fd5b505050506040513d601f19601f820116820180604052508101906115049190611bcb565b155b6115255760405160e560020a62461bcd0281526004016103309061225a565b61136e8363095ea7b360e060020a02848460405160240161130a929190611d01565b600082820183811015610bcf5760405160e560020a62461bcd02815260040161033090611e52565b60606115c4826040518060400160405280602081526020017f5361666545524332303a206c6f772d6c6576656c2063616c6c206661696c656481525085600160a060020a03166117759092919063ffffffff16565b80519091501561136e57808060200190518101906115e29190611a9a565b61136e5760405160e560020a62461bcd028152600401610330906121c6565b815460009082106116275760405160e560020a62461bcd02815260040161033090611d61565b82600001828154811061163657fe5b9060005260206000200154905092915050565b60009081526001919091016020526040902054151590565b5490565b60006116718383611649565b6116a757508154600181810184556000848152602080822090930184905584548482528286019093526040902091909155610bd2565b506000610bd2565b6000818152600183016020526040812054801561176b57835460001980830191908101906000908790839081106116e257fe5b90600052602060002001549050808760000184815481106116ff57fe5b60009182526020808320909101929092558281526001898101909252604090209084019055865487908061172f57fe5b60019003818190600052602060002001600090559055866001016000878152602001908152602001600020600090556001945050505050610bd2565b6000915050610bd2565b6060611784848460008561178e565b90505b9392505050565b606030318311156117b45760405160e560020a62461bcd02815260040161033090611f2e565b6117bd85611856565b6117dc5760405160e560020a62461bcd0281526004016103309061218f565b6000606086600160a060020a031685876040516117f99190611c17565b60006040518083038185875af1925050503d8060008114611836576040519150601f19603f3d011682016040523d82523d6000602084013e61183b565b606091505b509150915061184b82828661185c565b979650505050505050565b3b151590565b6060831561186b575081611787565b82511561187b5782518084602001fd5b8160405160e560020a62461bcd0281526004016103309190611d2e565b8035600160a060020a0381168114610bd257600080fd5b8035610bd2816124c6565b6000602082840312156118cb578081fd5b610bcf8383611898565b600080604083850312156118e7578081fd5b6118f18484611898565b91506119008460208501611898565b90509250929050565b6000806000806080858703121561191e578182fd5b8435611929816124ae565b93506020850135611939816124ae565b92506040850135611949816124ae565b9396929550929360600135925050565b6000806000806080858703121561196e578384fd5b6119788686611898565b93506119878660208701611898565b93969395505050506040820135916060013590565b60008060008060008060c087890312156119b4578182fd5b86356119bf816124ae565b955060208701356119cf816124ae565b9450604087013593506060870135925060808701356119ed816124c6565b8092505060a087013590509295509295509295565b60006020808385031215611a14578182fd5b825167ffffffffffffffff811115611a2a578283fd5b80840185601f820112611a3b578384fd5b80519150611a50611a4b83612450565b612429565b8281528381019082850185850284018601891015611a6c578687fd5b8693505b84841015611a8e578051835260019390930192918501918501611a70565b50979650505050505050565b600060208284031215611aab578081fd5b8151610bcf816124c6565b600060208284031215611ac7578081fd5b5035919050565b60008060408385031215611ae0578182fd5b823591506020830135611af2816124ae565b809150509250929050565b600080600080600080600060c0888a031215611b17578081fd5b87359650602088013567ffffffffffffffff80821115611b35578283fd5b818a018b601f820112611b46578384fd5b8035925081831115611b56578384fd5b8b60208085028301011115611b69578384fd5b6020019750909550506040880135935060608801359250611b8d8960808a016118af565b9150611b9c8960a08a016118af565b905092959891949750929550565b60008060408385031215611bbc578182fd5b50508035926020909101359150565b600060208284031215611bdc578081fd5b5051919050565b600060208284031215611bf4578081fd5b815160ff81168114610bcf578182fd5b600160a060020a03169052565b15159052565b60008251611c2981846020870161247c565b9190910192915050565b600160a060020a0391909116815260200190565b600160a060020a0392831681529116602082015260400190565b600160a060020a039485168152928416602084015292166040820152606081019190915260800190565b600160a060020a03998a168152978916602089015295909716604087015260608601939093526080850191909152151560a084015260c083015260e08201929092526101008101919091526101200190565b600160a060020a039384168152919092166020820152604081019190915260600190565b600160a060020a03929092168252602082015260400190565b901515815260200190565b90815260200190565b6000602082528251806020840152611d4d81604085016020870161247c565b601f01601f19169190910160400192915050565b60208082526022908201527f456e756d657261626c655365743a20696e646578206f7574206f6620626f756e60408201527f6473000000000000000000000000000000000000000000000000000000000000606082015260800190565b6020808252602f908201527f416363657373436f6e74726f6c3a2073656e646572206d75737420626520616e60408201527f2061646d696e20746f206772616e740000000000000000000000000000000000606082015260800190565b6020808252600e908201527f696e76616c69642073656e646572000000000000000000000000000000000000604082015260600190565b6020808252601b908201527f536166654d6174683a206164646974696f6e206f766572666c6f770000000000604082015260600190565b60208082526004908201527f73616d6500000000000000000000000000000000000000000000000000000000604082015260600190565b6020808252600e908201527f696e76616c696420616d6f756e74000000000000000000000000000000000000604082015260600190565b6020808252601e908201527f536166654d6174683a207375627472616374696f6e206f766572666c6f770000604082015260600190565b60208082526026908201527f416464726573733a20696e73756666696369656e742062616c616e636520666f60408201527f722063616c6c0000000000000000000000000000000000000000000000000000606082015260800190565b6020808252601a908201527f536166654d6174683a206469766973696f6e206279207a65726f000000000000604082015260600190565b6020808252600f908201527f696e76616c696420746f546f6b656e0000000000000000000000000000000000604082015260600190565b60208082526008908201527f696e74657276616c000000000000000000000000000000000000000000000000604082015260600190565b60208082526030908201527f416363657373436f6e74726f6c3a2073656e646572206d75737420626520616e60408201527f2061646d696e20746f207265766f6b6500000000000000000000000000000000606082015260800190565b6020808252600c908201527f696e76616c696420706174680000000000000000000000000000000000000000604082015260600190565b6020808252600d908201527f696e76616c696420707269636500000000000000000000000000000000000000604082015260600190565b60208082526021908201527f536166654d6174683a206d756c7469706c69636174696f6e206f766572666c6f60408201527f7700000000000000000000000000000000000000000000000000000000000000606082015260800190565b60208082526011908201527f696e76616c69642066726f6d546f6b656e000000000000000000000000000000604082015260600190565b6020808252601d908201527f416464726573733a2063616c6c20746f206e6f6e2d636f6e7472616374000000604082015260600190565b6020808252602a908201527f5361666545524332303a204552433230206f7065726174696f6e20646964206e60408201527f6f74207375636365656400000000000000000000000000000000000000000000606082015260800190565b60208082526009908201527f6e6f742061646d696e0000000000000000000000000000000000000000000000604082015260600190565b60208082526036908201527f5361666545524332303a20617070726f76652066726f6d206e6f6e2d7a65726f60408201527f20746f206e6f6e2d7a65726f20616c6c6f77616e636500000000000000000000606082015260800190565b6020808252602f908201527f416363657373436f6e74726f6c3a2063616e206f6e6c792072656e6f756e636560408201527f20726f6c657320666f722073656c660000000000000000000000000000000000606082015260800190565b6000610120820190506123308261232b8554612470565b611c04565b61233d6001840154612470565b61234a6020840182611c04565b506123586002840154612470565b6123656040840182611c04565b50600383015460608301526004830154608083015261238760058401546124a8565b61239460a0840182611c11565b50600683015460c0830152600783015460e08301526008909201546101009091015290565b600060a082018783526020878185015260a0604085015281875180845260c0860191508289019350845b81811015612408578451600160a060020a0316835293830193918301916001016123e3565b5050600160a060020a03969096166060850152505050608001529392505050565b60405181810167ffffffffffffffff8111828210171561244857600080fd5b604052919050565b600067ffffffffffffffff821115612466578081fd5b5060209081020190565b600160a060020a031690565b60005b8381101561249757818101518382015260200161247f565b8381111561145f5750506000910152565b60ff1690565b600160a060020a03811681146124c357600080fd5b50565b80151581146124c357600080fdfea2646970667358221220eaaefc1f428ba18fafc043af23d0a47d116e591671cce4139b2e02206d7cf3cc64736f6c63430006060033",
  "immutableReferences": {},
  "source": "// SPDX-License-Identifier: MIT\npragma solidity >=0.6.2;\npragma experimental ABIEncoderV2;\n\nimport \"@openzeppelin/contracts/access/AccessControl.sol\";\nimport \"@openzeppelin/contracts/token/ERC20/IERC20.sol\";\nimport \"@openzeppelin/contracts/token/ERC20/SafeERC20.sol\";\nimport \"@openzeppelin/contracts/math/SafeMath.sol\";\nimport \"./interfaces/common.sol\";\n\ncontract Swap is AccessControl {\n  using SafeMath for uint;\n  using SafeERC20 for IEERC20;\n\n  address public router;\n  address public feeTo;\n  address public operator;\n\n  mapping(bytes32=>Order) public records;\n\n  event ignore();  \n  event changeOrderEvent(bytes32 indexed key, Order record);\n\n  constructor(address _admin, address _router, address _feeTo, address _operator) public {\n    _setupRole(DEFAULT_ADMIN_ROLE, _admin);\n    router = _router;\n    feeTo = _feeTo;\n    operator = _operator;\n  }\n\n  function setDepedency(address _feeTo, address _operator) external {\n    require(hasRole(DEFAULT_ADMIN_ROLE, msg.sender), \"not admin\");\n    feeTo = _feeTo;\n    operator = _operator;\n  }\n\n  function getKey(address user, address fromToken, address toToken, uint price) public pure returns (bytes32 key){\n    return keccak256(abi.encode(user, fromToken, toToken, price));\n  }\n\n  function changeOrder(address _fromToken, address _toToken, uint _price, uint _amount, bool _isForever, uint _interval) external {\n    require(_fromToken != _toToken,'same');\n    require(_price != 0,'invalid price');\n    bytes32 key = getKey(msg.sender, _fromToken, _toToken, _price);\n\n    records[key].user = msg.sender;\n    records[key].fromToken = _fromToken;\n    records[key].toToken = _toToken;\n    records[key].price = _price;\n    records[key].amount = _amount;\n    records[key].isForever = _isForever;\n    records[key].interval = _interval;\n    \n    emit changeOrderEvent(key, records[key]);\n    if(_amount == 0) {\n      delete records[key];\n    } \n  }\n\n  function getRealPrice(address _tokenIn, address _tokenOut, uint256 _amountOut, uint256 _amountIn) public view returns (uint256) {\n    uint8 din  = IEERC20(_tokenIn).decimals();\n    uint8 dout = IEERC20(_tokenOut).decimals();\n    uint dd = 18 + din - dout;\n    return   _amountOut.mul(10** dd).div(10**9).div(_amountIn);\n  }\n\n  function _swap(uint _amountIn, uint _amountOut, address[] memory path, bytes32 key, bool isReflect, bool isPaid) internal {\n    // TODO  for FINN later.\n\n    IEERC20(path[0]).safeTransferFrom(records[key].user, address(this), _amountIn);\n    uint balanceThis = IERC20(path[0]).balanceOf(address(this));\n    uint amountInWithFee = balanceThis;\n    if(!isPaid) {\n      amountInWithFee = balanceThis.mul(997).div(1000);\n    } \n    IEERC20(path[0]).safeApprove(router, amountInWithFee);\n\n    uint balanceBefore = IERC20(path[path.length - 1]).balanceOf(records[key].user);\n    if(isReflect){\n      IIUniswapV2Router02(router).swapExactTokensForTokensSupportingFeeOnTransferTokens(amountInWithFee, _amountOut, path, records[key].user, block.timestamp);\n    } else {\n      IIUniswapV2Router02(router).swapExactTokensForTokens(amountInWithFee, _amountOut, path, records[key].user, block.timestamp);\n    }\n    uint balanceAfter = IERC20(path[path.length - 1]).balanceOf(records[key].user);\n    records[key].received = records[key].received.add(balanceAfter.sub(balanceBefore));\n  }\n  function swap(bytes32 key, address[] calldata path, uint256 _amountIn, uint256 _amountOut, bool isReflect, bool isPaid) external {\n    require(msg.sender == operator,\"invalid sender\");\n    require(path.length >= 2,\"invalid path\");\n    require(_amountIn != 0 && _amountIn <= records[key].amount,\"invalid amount\");\n    require(records[key].fromToken == path[0],'invalid fromToken');\n    require(records[key].toToken == path[path.length-1],'invalid toToken');\n    if(records[key].isForever) {\n      require(block.timestamp >= records[key].lastCheck + records[key].interval,\"interval\");\n    }\n    address _tokenIn = path[0];\n    //  check the _amountOut is >= price.\n    require(getRealPrice(_tokenIn,path[path.length-1], _amountOut, _amountIn) >= records[key].price, \"invalid price\");\n\n    if( IEERC20(_tokenIn).balanceOf(records[key].user) < _amountIn \n      || IEERC20(_tokenIn).allowance(records[key].user, address(this)) < _amountIn ) {\n        emit ignore(); // operator will avoid this case.\n        return;\n    }\n\n    _swap(_amountIn, _amountOut, path, key, isReflect, isPaid);\n    \n    if(records[key].isForever) {\n      records[key].lastCheck = block.timestamp;\n    } else {\n      records[key].amount = records[key].amount.sub(_amountIn);\n    }\n    emit changeOrderEvent(key, records[key]);\n    if(!isPaid) {\n      IEERC20(_tokenIn).safeTransfer(feeTo, IEERC20(_tokenIn).balanceOf(address(this)));\n    }\n    \n    if(records[key].amount == 0) {\n      delete records[key];\n    }\n  }\n}\n\n",
  "sourcePath": "/home/lzhang/dfund/order_contract/contracts/Swap.sol",
  "compiler": {
    "name": "solc",
    "version": "0.6.6+commit.6c089d02.Emscripten.clang"
  },
  "schemaVersion": "3.4.3",
  "updatedAt": "2021-10-24T08:33:22.905Z",
  "devdoc": {
    "methods": {
      "getRoleAdmin(bytes32)": {
        "details": "Returns the admin role that controls `role`. See {grantRole} and {revokeRole}.     * To change a role's admin, use {_setRoleAdmin}."
      },
      "getRoleMember(bytes32,uint256)": {
        "details": "Returns one of the accounts that have `role`. `index` must be a value between 0 and {getRoleMemberCount}, non-inclusive.     * Role bearers are not sorted in any particular way, and their ordering may change at any point.     * WARNING: When using {getRoleMember} and {getRoleMemberCount}, make sure you perform all queries on the same block. See the following https://forum.openzeppelin.com/t/iterating-over-elements-on-enumerableset-in-openzeppelin-contracts/2296[forum post] for more information."
      },
      "getRoleMemberCount(bytes32)": {
        "details": "Returns the number of accounts that have `role`. Can be used together with {getRoleMember} to enumerate all bearers of a role."
      },
      "grantRole(bytes32,address)": {
        "details": "Grants `role` to `account`.     * If `account` had not been already granted `role`, emits a {RoleGranted} event.     * Requirements:     * - the caller must have ``role``'s admin role."
      },
      "hasRole(bytes32,address)": {
        "details": "Returns `true` if `account` has been granted `role`."
      },
      "renounceRole(bytes32,address)": {
        "details": "Revokes `role` from the calling account.     * Roles are often managed via {grantRole} and {revokeRole}: this function's purpose is to provide a mechanism for accounts to lose their privileges if they are compromised (such as when a trusted device is misplaced).     * If the calling account had been granted `role`, emits a {RoleRevoked} event.     * Requirements:     * - the caller must be `account`."
      },
      "revokeRole(bytes32,address)": {
        "details": "Revokes `role` from `account`.     * If `account` had been granted `role`, emits a {RoleRevoked} event.     * Requirements:     * - the caller must have ``role``'s admin role."
      }
    }
  },
  "userdoc": {
    "methods": {}
  }
}