{
  "contractName": "Swap",
  "abi": [
    {
      "inputs": [
        {
          "internalType": "address",
          "name": "_admin",
          "type": "address"
        },
        {
          "internalType": "address",
          "name": "_router",
          "type": "address"
        },
        {
          "internalType": "address",
          "name": "_feeTo",
          "type": "address"
        },
        {
          "internalType": "address",
          "name": "_operator",
          "type": "address"
        }
      ],
      "stateMutability": "nonpayable",
      "type": "constructor"
    },
    {
      "anonymous": false,
      "inputs": [
        {
          "indexed": true,
          "internalType": "bytes32",
          "name": "role",
          "type": "bytes32"
        },
        {
          "indexed": true,
          "internalType": "bytes32",
          "name": "previousAdminRole",
          "type": "bytes32"
        },
        {
          "indexed": true,
          "internalType": "bytes32",
          "name": "newAdminRole",
          "type": "bytes32"
        }
      ],
      "name": "RoleAdminChanged",
      "type": "event"
    },
    {
      "anonymous": false,
      "inputs": [
        {
          "indexed": true,
          "internalType": "bytes32",
          "name": "role",
          "type": "bytes32"
        },
        {
          "indexed": true,
          "internalType": "address",
          "name": "account",
          "type": "address"
        },
        {
          "indexed": true,
          "internalType": "address",
          "name": "sender",
          "type": "address"
        }
      ],
      "name": "RoleGranted",
      "type": "event"
    },
    {
      "anonymous": false,
      "inputs": [
        {
          "indexed": true,
          "internalType": "bytes32",
          "name": "role",
          "type": "bytes32"
        },
        {
          "indexed": true,
          "internalType": "address",
          "name": "account",
          "type": "address"
        },
        {
          "indexed": true,
          "internalType": "address",
          "name": "sender",
          "type": "address"
        }
      ],
      "name": "RoleRevoked",
      "type": "event"
    },
    {
      "anonymous": false,
      "inputs": [
        {
          "indexed": true,
          "internalType": "bytes32",
          "name": "key",
          "type": "bytes32"
        },
        {
          "components": [
            {
              "internalType": "address",
              "name": "user",
              "type": "address"
            },
            {
              "internalType": "address",
              "name": "fromToken",
              "type": "address"
            },
            {
              "internalType": "address",
              "name": "toToken",
              "type": "address"
            },
            {
              "internalType": "uint256",
              "name": "price",
              "type": "uint256"
            },
            {
              "internalType": "uint256",
              "name": "amount",
              "type": "uint256"
            },
            {
              "internalType": "bool",
              "name": "isForever",
              "type": "bool"
            },
            {
              "internalType": "uint256",
              "name": "interval",
              "type": "uint256"
            },
            {
              "internalType": "uint256",
              "name": "lastCheck",
              "type": "uint256"
            }
          ],
          "indexed": false,
          "internalType": "struct Order",
          "name": "record",
          "type": "tuple"
        }
      ],
      "name": "changeOrderEvent",
      "type": "event"
    },
    {
      "anonymous": false,
      "inputs": [],
      "name": "ignore",
      "type": "event"
    },
    {
      "inputs": [],
      "name": "DEFAULT_ADMIN_ROLE",
      "outputs": [
        {
          "internalType": "bytes32",
          "name": "",
          "type": "bytes32"
        }
      ],
      "stateMutability": "view",
      "type": "function"
    },
    {
      "inputs": [],
      "name": "feeTo",
      "outputs": [
        {
          "internalType": "address",
          "name": "",
          "type": "address"
        }
      ],
      "stateMutability": "view",
      "type": "function"
    },
    {
      "inputs": [
        {
          "internalType": "bytes32",
          "name": "role",
          "type": "bytes32"
        }
      ],
      "name": "getRoleAdmin",
      "outputs": [
        {
          "internalType": "bytes32",
          "name": "",
          "type": "bytes32"
        }
      ],
      "stateMutability": "view",
      "type": "function"
    },
    {
      "inputs": [
        {
          "internalType": "bytes32",
          "name": "role",
          "type": "bytes32"
        },
        {
          "internalType": "uint256",
          "name": "index",
          "type": "uint256"
        }
      ],
      "name": "getRoleMember",
      "outputs": [
        {
          "internalType": "address",
          "name": "",
          "type": "address"
        }
      ],
      "stateMutability": "view",
      "type": "function"
    },
    {
      "inputs": [
        {
          "internalType": "bytes32",
          "name": "role",
          "type": "bytes32"
        }
      ],
      "name": "getRoleMemberCount",
      "outputs": [
        {
          "internalType": "uint256",
          "name": "",
          "type": "uint256"
        }
      ],
      "stateMutability": "view",
      "type": "function"
    },
    {
      "inputs": [
        {
          "internalType": "bytes32",
          "name": "role",
          "type": "bytes32"
        },
        {
          "internalType": "address",
          "name": "account",
          "type": "address"
        }
      ],
      "name": "grantRole",
      "outputs": [],
      "stateMutability": "nonpayable",
      "type": "function"
    },
    {
      "inputs": [
        {
          "internalType": "bytes32",
          "name": "role",
          "type": "bytes32"
        },
        {
          "internalType": "address",
          "name": "account",
          "type": "address"
        }
      ],
      "name": "hasRole",
      "outputs": [
        {
          "internalType": "bool",
          "name": "",
          "type": "bool"
        }
      ],
      "stateMutability": "view",
      "type": "function"
    },
    {
      "inputs": [],
      "name": "operator",
      "outputs": [
        {
          "internalType": "address",
          "name": "",
          "type": "address"
        }
      ],
      "stateMutability": "view",
      "type": "function"
    },
    {
      "inputs": [
        {
          "internalType": "bytes32",
          "name": "",
          "type": "bytes32"
        }
      ],
      "name": "records",
      "outputs": [
        {
          "internalType": "address",
          "name": "user",
          "type": "address"
        },
        {
          "internalType": "address",
          "name": "fromToken",
          "type": "address"
        },
        {
          "internalType": "address",
          "name": "toToken",
          "type": "address"
        },
        {
          "internalType": "uint256",
          "name": "price",
          "type": "uint256"
        },
        {
          "internalType": "uint256",
          "name": "amount",
          "type": "uint256"
        },
        {
          "internalType": "bool",
          "name": "isForever",
          "type": "bool"
        },
        {
          "internalType": "uint256",
          "name": "interval",
          "type": "uint256"
        },
        {
          "internalType": "uint256",
          "name": "lastCheck",
          "type": "uint256"
        }
      ],
      "stateMutability": "view",
      "type": "function"
    },
    {
      "inputs": [
        {
          "internalType": "bytes32",
          "name": "role",
          "type": "bytes32"
        },
        {
          "internalType": "address",
          "name": "account",
          "type": "address"
        }
      ],
      "name": "renounceRole",
      "outputs": [],
      "stateMutability": "nonpayable",
      "type": "function"
    },
    {
      "inputs": [
        {
          "internalType": "bytes32",
          "name": "role",
          "type": "bytes32"
        },
        {
          "internalType": "address",
          "name": "account",
          "type": "address"
        }
      ],
      "name": "revokeRole",
      "outputs": [],
      "stateMutability": "nonpayable",
      "type": "function"
    },
    {
      "inputs": [],
      "name": "router",
      "outputs": [
        {
          "internalType": "address",
          "name": "",
          "type": "address"
        }
      ],
      "stateMutability": "view",
      "type": "function"
    },
    {
      "inputs": [
        {
          "internalType": "address",
          "name": "_feeTo",
          "type": "address"
        },
        {
          "internalType": "address",
          "name": "_operator",
          "type": "address"
        }
      ],
      "name": "setDepedency",
      "outputs": [],
      "stateMutability": "nonpayable",
      "type": "function"
    },
    {
      "inputs": [
        {
          "internalType": "address",
          "name": "user",
          "type": "address"
        },
        {
          "internalType": "address",
          "name": "fromToken",
          "type": "address"
        },
        {
          "internalType": "address",
          "name": "toToken",
          "type": "address"
        },
        {
          "internalType": "uint256",
          "name": "price",
          "type": "uint256"
        }
      ],
      "name": "getKey",
      "outputs": [
        {
          "internalType": "bytes32",
          "name": "key",
          "type": "bytes32"
        }
      ],
      "stateMutability": "pure",
      "type": "function"
    },
    {
      "inputs": [
        {
          "internalType": "address",
          "name": "_fromToken",
          "type": "address"
        },
        {
          "internalType": "address",
          "name": "_toToken",
          "type": "address"
        },
        {
          "internalType": "uint256",
          "name": "_price",
          "type": "uint256"
        },
        {
          "internalType": "uint256",
          "name": "_amount",
          "type": "uint256"
        },
        {
          "internalType": "bool",
          "name": "_isForever",
          "type": "bool"
        },
        {
          "internalType": "uint256",
          "name": "_interval",
          "type": "uint256"
        }
      ],
      "name": "changeOrder",
      "outputs": [],
      "stateMutability": "nonpayable",
      "type": "function"
    },
    {
      "inputs": [
        {
          "internalType": "address",
          "name": "_tokenIn",
          "type": "address"
        },
        {
          "internalType": "address",
          "name": "_tokenOut",
          "type": "address"
        },
        {
          "internalType": "uint256",
          "name": "_amountOut",
          "type": "uint256"
        },
        {
          "internalType": "uint256",
          "name": "_amountIn",
          "type": "uint256"
        }
      ],
      "name": "getRealPrice",
      "outputs": [
        {
          "internalType": "uint256",
          "name": "",
          "type": "uint256"
        }
      ],
      "stateMutability": "view",
      "type": "function"
    },
    {
      "inputs": [
        {
          "internalType": "bytes32",
          "name": "key",
          "type": "bytes32"
        },
        {
          "internalType": "address[]",
          "name": "path",
          "type": "address[]"
        },
        {
          "internalType": "uint256",
          "name": "_amountIn",
          "type": "uint256"
        },
        {
          "internalType": "uint256",
          "name": "_amountOut",
          "type": "uint256"
        }
      ],
      "name": "swap",
      "outputs": [],
      "stateMutability": "nonpayable",
      "type": "function"
    }
  ],
  "bytecode": "0x60806040523480156200001157600080fd5b50604051620022f4380380620022f48339810160408190526200003491620001e1565b6200004a6000856401000000006200008e810204565b60018054600160a060020a03948516600160a060020a0319918216179091556002805493851693821693909317909255600380549190931691161790555062000241565b620000a38282640100000000620000a7810204565b5050565b6000828152602081905260409020620000cf9082640100000000620011556200012c82021704565b15620000a357620000e864010000000062000155810204565b600160a060020a031681600160a060020a0316837f2f8788117e7eff1d82e926ec794901d17c78024a50270940304540a733656f0d60405160405180910390a45050565b60006200014c83600160a060020a03841664010000000062000159810204565b90505b92915050565b3390565b6000620001708383640100000000620001b1810204565b620001a8575081546001818101845560008481526020808220909301849055845484825282860190935260409020919091556200014f565b5060006200014f565b60009081526001919091016020526040902054151590565b8051600160a060020a03811681146200014f57600080fd5b60008060008060808587031215620001f7578384fd5b620002038686620001c9565b9350620002148660208701620001c9565b9250620002258660408701620001c9565b9150620002368660608701620001c9565b905092959194509250565b6120a380620002516000396000f3fe608060405234801561001057600080fd5b506004361061010f5760003560e060020a900480635a6ac1ec116100a6578063a217fddf11610075578063a217fddf14610228578063ca15c87314610230578063d547741f14610243578063f887ea4014610256578063f96cd7921461025e5761010f565b80635a6ac1ec146101cf5780638a7b8b95146101e25780639010d07c146101f557806391d14854146102085761010f565b80633373d16b116100e25780633373d16b1461018e57806336568abe146101a15780634fe520a5146101b4578063570ca735146101c75761010f565b8063017e7e581461011457806301e6472514610132578063248a9ca3146101595780632f2ff15d14610179575b600080fd5b61011c610271565b6040516101299190611814565b60405180910390f35b6101456101403660046116bb565b610280565b60405161012998979695949392919061186c565b61016c6101673660046116bb565b6102d6565b60405161012991906118fd565b61018c6101873660046116d3565b6102eb565b005b61018c61019c3660046115a1565b61033f565b61018c6101af3660046116d3565b6104e4565b61016c6101c236600461150e565b610529565b61011c610562565b61018c6101dd3660046114da565b610571565b61018c6101f0366004611702565b6105d6565b61011c61020336600461178b565b610c42565b61021b6102163660046116d3565b610c69565b60405161012991906118f2565b61016c610c87565b61016c61023e3660046116bb565b610c8c565b61018c6102513660046116d3565b610ca3565b61011c610ce0565b61016c61026c36600461155e565b610cef565b600254600160a060020a031681565b600460208190526000918252604090912080546001820154600283015460038401549484015460058501546006860154600790960154600160a060020a0395861697948616969390951694919260ff9091169188565b60009081526020819052604090206002015490565b60008281526020819052604090206002015461030990610216610e13565b6103315760405160e560020a62461bcd02815260040161032890611996565b60405180910390fd5b61033b8282610e17565b5050565b84600160a060020a031686600160a060020a031614156103745760405160e560020a62461bcd02815260040161032890611a2a565b836103945760405160e560020a62461bcd02815260040161032890611c65565b60006103a233888888610529565b9050836104145760008181526004602081905260408220805473ffffffffffffffffffffffffffffffffffffffff1990811682556001820180548216905560028201805490911690556003810183905590810182905560058101805460ff191690556006810182905560070155610491565b600081815260046020819052604090912080543373ffffffffffffffffffffffffffffffffffffffff199182161782556001820180548216600160a060020a038c811691909117909155600283018054909216908a161790556003810187905590810185905560058101805460ff19168515151790556006018290555b807f87252d50857a9818e7da4a24187e81f7c3e76529f5046b4c8a83550e62bc2d23600460008481526020019081526020016000206040516104d39190611eb5565b60405180910390a250505050505050565b6104ec610e13565b600160a060020a031681600160a060020a03161461051f5760405160e560020a62461bcd02815260040161032890611e58565b61033b8282610e86565b6000848484846040516020016105429493929190611842565b604051602081830303815290604052805190602001209050949350505050565b600354600160a060020a031681565b61057c600033610c69565b61059b5760405160e560020a62461bcd02815260040161032890611dc4565b60028054600160a060020a0393841673ffffffffffffffffffffffffffffffffffffffff199182161790915560038054929093169116179055565b600354600160a060020a031633146106035760405160e560020a62461bcd028152600401610328906119f3565b60028310156106275760405160e560020a62461bcd02815260040161032890611c2e565b81158015906106485750600085815260046020819052604090912001548211155b6106675760405160e560020a62461bcd02815260040161032890611a61565b8383600081811061067457fe5b905060200201602081019061068991906114bf565b600086815260046020526040902060010154600160a060020a039081169116146106c85760405160e560020a62461bcd02815260040161032890611cf9565b838360001981018181106106d857fe5b90506020020160208101906106ed91906114bf565b600086815260046020526040902060020154600160a060020a0390811691161461072c5760405160e560020a62461bcd02815260040161032890611b63565b60008581526004602052604090206005015460ff16156107825760008581526004602052604090206006810154600790910154014210156107825760405160e560020a62461bcd02815260040161032890611b9a565b60008484600081811061079157fe5b90506020020160208101906107a691906114bf565b6000878152600460205260409020600301549091506107eb82878760001981018181106107cf57fe5b90506020020160208101906107e491906114bf565b8587610cef565b101561080c5760405160e560020a62461bcd02815260040161032890611c65565b6000868152600460208190526040918290205491517f70a082310000000000000000000000000000000000000000000000000000000081528592600160a060020a03808616936370a0823193610866939092169101611814565b60206040518083038186803b15801561087e57600080fd5b505afa158015610892573d6000803e3d6000fd5b505050506040513d601f19601f820116820180604052508101906108b691906117ac565b108061096b57506000868152600460208190526040918290205491517fdd62ed3e0000000000000000000000000000000000000000000000000000000081528592600160a060020a038086169363dd62ed3e936109199390921691309101611828565b60206040518083038186803b15801561093157600080fd5b505afa158015610945573d6000803e3d6000fd5b505050506040513d601f19601f8201168201806040525081019061096991906117ac565b105b1561099f576040517fed6f8663afaec789fee1c55948af73730fa3a1fa25d08e4a3972588efaff779290600090a150610c3b565b6000868152600460205260409020546109cc90600160a060020a038381169116308663ffffffff610ef516565b60006109f16103e86109e586600363ffffffff610f8316565b9063ffffffff610fc016565b600254909150610a1490600160a060020a0384811691168363ffffffff610ff516565b6000610a26858363ffffffff61101c16565b600154909150610a4990600160a060020a0385811691168363ffffffff61104716565b6001546000898152600460208190526040918290205491517f38ed1739000000000000000000000000000000000000000000000000000000008152600160a060020a03938416936338ed173993610aad9387938b938f938f93911691429101611f4f565b600060405180830381600087803b158015610ac757600080fd5b505af1158015610adb573d6000803e3d6000fd5b505050506040513d6000823e601f3d908101601f19168201604052610b039190810190611607565b5060008881526004602052604090206005015460ff1615610b3857600088815260046020526040902042600790910155610b6f565b60008881526004602081905260409091200154610b5b908663ffffffff61101c16565b600089815260046020819052604090912001555b877f87252d50857a9818e7da4a24187e81f7c3e76529f5046b4c8a83550e62bc2d23600460008b8152602001908152602001600020604051610bb19190611eb5565b60405180910390a260008881526004602081905260409091200154610c375760008881526004602081905260408220805473ffffffffffffffffffffffffffffffffffffffff1990811682556001820180548216905560028201805490911690556003810183905590810182905560058101805460ff1916905560068101829055600701555b5050505b5050505050565b6000828152602081905260408120610c60908363ffffffff61112916565b90505b92915050565b6000828152602081905260408120610c60908363ffffffff61113516565b600081565b6000818152602081905260408120610c639061114a565b600082815260208190526040902060020154610cc190610216610e13565b61051f5760405160e560020a62461bcd02815260040161032890611bd1565b600154600160a060020a031681565b60008085600160a060020a031663313ce5676040518163ffffffff1660e060020a02815260040160206040518083038186803b158015610d2e57600080fd5b505afa158015610d42573d6000803e3d6000fd5b505050506040513d601f19601f82011682018060405250810190610d6691906117c4565b9050600085600160a060020a031663313ce5676040518163ffffffff1660e060020a02815260040160206040518083038186803b158015610da657600080fd5b505afa158015610dba573d6000803e3d6000fd5b505050506040513d601f19601f82011682018060405250810190610dde91906117c4565b905060ff81830360120116610e07856109e5633b9aca00818a600a87900a63ffffffff610f8316565b98975050505050505050565b3390565b6000828152602081905260409020610e35908263ffffffff61115516565b1561033b57610e42610e13565b600160a060020a031681600160a060020a0316837f2f8788117e7eff1d82e926ec794901d17c78024a50270940304540a733656f0d60405160405180910390a45050565b6000828152602081905260409020610ea4908263ffffffff61116a16565b1561033b57610eb1610e13565b600160a060020a031681600160a060020a0316837ff6391f5c32d9c69d2a47ea670b442974b53935d1edc7fd64eb21e047a839171b60405160405180910390a45050565b610f7d846323b872dd60e060020a02858585604051602401610f19939291906118b5565b60408051601f198184030181529190526020810180517bffffffffffffffffffffffffffffffffffffffffffffffffffffffff167fffffffff000000000000000000000000000000000000000000000000000000009093169290921790915261117f565b50505050565b600082610f9257506000610c63565b82820282848281610f9f57fe5b0414610c605760405160e560020a62461bcd02815260040161032890611c9c565b6000808211610fe45760405160e560020a62461bcd02815260040161032890611b2c565b818381610fed57fe5b049392505050565b6110178363a9059cbb60e060020a028484604051602401610f199291906118d9565b505050565b6000828211156110415760405160e560020a62461bcd02815260040161032890611a98565b50900390565b8015806110e857506040517fdd62ed3e000000000000000000000000000000000000000000000000000000008152600160a060020a0384169063dd62ed3e906110969030908690600401611828565b60206040518083038186803b1580156110ae57600080fd5b505afa1580156110c2573d6000803e3d6000fd5b505050506040513d601f19601f820116820180604052508101906110e691906117ac565b155b6111075760405160e560020a62461bcd02815260040161032890611dfb565b6110178363095ea7b360e060020a028484604051602401610f199291906118d9565b6000610c608383611211565b6000610c6083600160a060020a038416611259565b6000610c6382611271565b6000610c6083600160a060020a038416611275565b6000610c6083600160a060020a0384166112bf565b60606111d4826040518060400160405280602081526020017f5361666545524332303a206c6f772d6c6576656c2063616c6c206661696c656481525085600160a060020a03166113859092919063ffffffff16565b80519091501561101757808060200190518101906111f2919061169f565b6110175760405160e560020a62461bcd02815260040161032890611d67565b815460009082106112375760405160e560020a62461bcd02815260040161032890611939565b82600001828154811061124657fe5b9060005260206000200154905092915050565b60009081526001919091016020526040902054151590565b5490565b60006112818383611259565b6112b757508154600181810184556000848152602080822090930184905584548482528286019093526040902091909155610c63565b506000610c63565b6000818152600183016020526040812054801561137b57835460001980830191908101906000908790839081106112f257fe5b906000526020600020015490508087600001848154811061130f57fe5b60009182526020808320909101929092558281526001898101909252604090209084019055865487908061133f57fe5b60019003818190600052602060002001600090559055866001016000878152602001908152602001600020600090556001945050505050610c63565b6000915050610c63565b6060611394848460008561139e565b90505b9392505050565b606030318311156113c45760405160e560020a62461bcd02815260040161032890611acf565b6113cd85611466565b6113ec5760405160e560020a62461bcd02815260040161032890611d30565b6000606086600160a060020a0316858760405161140991906117f8565b60006040518083038185875af1925050503d8060008114611446576040519150601f19603f3d011682016040523d82523d6000602084013e61144b565b606091505b509150915061145b82828661146c565b979650505050505050565b3b151590565b6060831561147b575081611397565b82511561148b5782518084602001fd5b8160405160e560020a62461bcd0281526004016103289190611906565b8035600160a060020a0381168114610c6357600080fd5b6000602082840312156114d0578081fd5b610c6083836114a8565b600080604083850312156114ec578081fd5b6114f684846114a8565b915061150584602085016114a8565b90509250929050565b60008060008060808587031215611523578182fd5b843561152e81612047565b9350602085013561153e81612047565b9250604085013561154e81612047565b9396929550929360600135925050565b60008060008060808587031215611573578384fd5b61157d86866114a8565b935061158c86602087016114a8565b93969395505050506040820135916060013590565b60008060008060008060c087890312156115b9578182fd5b86356115c481612047565b955060208701356115d481612047565b9450604087013593506060870135925060808701356115f28161205f565b8092505060a087013590509295509295509295565b60006020808385031215611619578182fd5b825167ffffffffffffffff81111561162f578283fd5b80840185601f820112611640578384fd5b8051915061165561165083611fe9565b611fc2565b8281528381019082850185850284018601891015611671578687fd5b8693505b84841015611693578051835260019390930192918501918501611675565b50979650505050505050565b6000602082840312156116b0578081fd5b8151610c608161205f565b6000602082840312156116cc578081fd5b5035919050565b600080604083850312156116e5578182fd5b8235915060208301356116f781612047565b809150509250929050565b600080600080600060808688031215611719578081fd5b85359450602086013567ffffffffffffffff80821115611737578283fd5b81880189601f820112611748578384fd5b8035925081831115611758578384fd5b896020808502830101111561176b578384fd5b969960209097019850909660408101359660609091013595509350505050565b6000806040838503121561179d578182fd5b50508035926020909101359150565b6000602082840312156117bd578081fd5b5051919050565b6000602082840312156117d5578081fd5b815160ff81168114610c60578182fd5b600160a060020a03169052565b15159052565b6000825161180a818460208701612015565b9190910192915050565b600160a060020a0391909116815260200190565b600160a060020a0392831681529116602082015260400190565b600160a060020a039485168152928416602084015292166040820152606081019190915260800190565b600160a060020a039889168152968816602088015294909616604086015260608501929092526080840152151560a083015260c082019290925260e08101919091526101000190565b600160a060020a039384168152919092166020820152604081019190915260600190565b600160a060020a03929092168252602082015260400190565b901515815260200190565b90815260200190565b6000602082528251806020840152611925816040850160208701612015565b601f01601f19169190910160400192915050565b60208082526022908201527f456e756d657261626c655365743a20696e646578206f7574206f6620626f756e60408201527f6473000000000000000000000000000000000000000000000000000000000000606082015260800190565b6020808252602f908201527f416363657373436f6e74726f6c3a2073656e646572206d75737420626520616e60408201527f2061646d696e20746f206772616e740000000000000000000000000000000000606082015260800190565b6020808252600e908201527f696e76616c69642073656e646572000000000000000000000000000000000000604082015260600190565b60208082526004908201527f73616d6500000000000000000000000000000000000000000000000000000000604082015260600190565b6020808252600e908201527f696e76616c696420616d6f756e74000000000000000000000000000000000000604082015260600190565b6020808252601e908201527f536166654d6174683a207375627472616374696f6e206f766572666c6f770000604082015260600190565b60208082526026908201527f416464726573733a20696e73756666696369656e742062616c616e636520666f60408201527f722063616c6c0000000000000000000000000000000000000000000000000000606082015260800190565b6020808252601a908201527f536166654d6174683a206469766973696f6e206279207a65726f000000000000604082015260600190565b6020808252600f908201527f696e76616c696420746f546f6b656e0000000000000000000000000000000000604082015260600190565b60208082526008908201527f696e74657276616c000000000000000000000000000000000000000000000000604082015260600190565b60208082526030908201527f416363657373436f6e74726f6c3a2073656e646572206d75737420626520616e60408201527f2061646d696e20746f207265766f6b6500000000000000000000000000000000606082015260800190565b6020808252600c908201527f696e76616c696420706174680000000000000000000000000000000000000000604082015260600190565b6020808252600d908201527f696e76616c696420707269636500000000000000000000000000000000000000604082015260600190565b60208082526021908201527f536166654d6174683a206d756c7469706c69636174696f6e206f766572666c6f60408201527f7700000000000000000000000000000000000000000000000000000000000000606082015260800190565b60208082526011908201527f696e76616c69642066726f6d546f6b656e000000000000000000000000000000604082015260600190565b6020808252601d908201527f416464726573733a2063616c6c20746f206e6f6e2d636f6e7472616374000000604082015260600190565b6020808252602a908201527f5361666545524332303a204552433230206f7065726174696f6e20646964206e60408201527f6f74207375636365656400000000000000000000000000000000000000000000606082015260800190565b60208082526009908201527f6e6f742061646d696e0000000000000000000000000000000000000000000000604082015260600190565b60208082526036908201527f5361666545524332303a20617070726f76652066726f6d206e6f6e2d7a65726f60408201527f20746f206e6f6e2d7a65726f20616c6c6f77616e636500000000000000000000606082015260800190565b6020808252602f908201527f416363657373436f6e74726f6c3a2063616e206f6e6c792072656e6f756e636560408201527f20726f6c657320666f722073656c660000000000000000000000000000000000606082015260800190565b600061010082019050611ed182611ecc8554612009565b6117e5565b611ede6001840154612009565b611eeb60208401826117e5565b50611ef96002840154612009565b611f0660408401826117e5565b506003830154606083015260048301546080830152611f286005840154612041565b611f3560a08401826117f2565b50600683015460c083015260079092015460e09091015290565b868152602080820187905260a0604083018190528201859052600090869060c08401835b88811015611fa157828401600160a060020a03611f9082876114a8565b168352935090820190600101611f73565b50600160a060020a0396909616606085015250505060800152949350505050565b60405181810167ffffffffffffffff81118282101715611fe157600080fd5b604052919050565b600067ffffffffffffffff821115611fff578081fd5b5060209081020190565b600160a060020a031690565b60005b83811015612030578181015183820152602001612018565b83811115610f7d5750506000910152565b60ff1690565b600160a060020a038116811461205c57600080fd5b50565b801515811461205c57600080fdfea2646970667358221220e96624a8fed40990d3bd675fdf4a8097dac7d17c558b6c6649cb4ab44e57169864736f6c63430006060033",
  "immutableReferences": {},
  "source": "// SPDX-License-Identifier: MIT\npragma solidity >=0.6.2;\npragma experimental ABIEncoderV2;\n\nimport \"@openzeppelin/contracts/access/AccessControl.sol\";\nimport \"@openzeppelin/contracts/token/ERC20/IERC20.sol\";\nimport \"@openzeppelin/contracts/token/ERC20/SafeERC20.sol\";\nimport \"@openzeppelin/contracts/math/SafeMath.sol\";\n\n\nstruct Order {\n  address user;\n  address fromToken;\n  address toToken;\n  uint    price;\n  uint    amount;\n  bool    isForever;\n  uint    interval; // seconds\n  uint    lastCheck; // only forever order\n}\n\ninterface IIUniswapV2Router02{\n      function swapExactTokensForTokens(\n        uint amountIn,\n        uint amountOutMin,\n        address[] calldata path,\n        address to,\n        uint deadline\n    ) external returns (uint[] memory amounts);\n}\ninterface IEERC20 is IERC20 {\n  function symbol() external view returns (string memory);\n  function decimals() external view returns (uint8);\n}\ncontract Swap is AccessControl {\n  using SafeMath for uint;\n  using SafeERC20 for IEERC20;\n\n  address public router;\n  address public feeTo;\n  address public operator;\n\n  mapping(bytes32=>Order) public records;\n\n  //event changeOrderEvent(bytes32 indexed key, address user, address fromToken, address toToken, uint price, uint amount, bool isForever, uint interval);\n  event ignore();  \n  event changeOrderEvent(bytes32 indexed key, Order record);\n\n  constructor(address _admin, address _router, address _feeTo, address _operator) public {\n    _setupRole(DEFAULT_ADMIN_ROLE, _admin);\n    router = _router;\n    feeTo = _feeTo;\n    operator = _operator;\n  }\n\n  function setDepedency(address _feeTo, address _operator) external {\n    require(hasRole(DEFAULT_ADMIN_ROLE, msg.sender), \"not admin\");\n    feeTo = _feeTo;\n    operator = _operator;\n  }\n\n  function getKey(address user, address fromToken, address toToken, uint price) public pure returns (bytes32 key){\n    return keccak256(abi.encode(user, fromToken, toToken, price));\n  }\n\n  function changeOrder(address _fromToken, address _toToken, uint _price, uint _amount, bool _isForever, uint _interval) external {\n    require(_fromToken != _toToken,'same');\n    require(_price != 0,'invalid price');\n    bytes32 key = getKey(msg.sender, _fromToken, _toToken, _price);\n\n    if(_amount == 0) {\n      delete records[key];\n    }else {\n      records[key].user = msg.sender;\n      records[key].fromToken = _fromToken;\n      records[key].toToken = _toToken;\n      records[key].price = _price;\n      records[key].amount = _amount;\n      records[key].isForever = _isForever;\n      records[key].interval = _interval;\n    }\n    //emit changeOrderEvent(key, msg.sender, _fromToken, _toToken, _price, _amount, _isForever, _interval);\n    emit changeOrderEvent(key, records[key]);\n  }\n\n  function getRealPrice(address _tokenIn, address _tokenOut, uint256 _amountOut, uint256 _amountIn) public view returns (uint256) {\n    uint8 din  = IEERC20(_tokenIn).decimals();\n    uint8 dout = IEERC20(_tokenOut).decimals();\n    uint dd = 18 + din - dout;\n    return   _amountOut.mul(10** dd).div(10**9).div(_amountIn);\n  }\n  function swap(bytes32 key, address[] calldata path, uint256 _amountIn, uint256 _amountOut) external {\n    require(msg.sender == operator,\"invalid sender\");\n    require(path.length >= 2,\"invalid path\");\n    require(_amountIn != 0 && _amountIn <= records[key].amount,\"invalid amount\");\n    require(records[key].fromToken == path[0],'invalid fromToken');\n    require(records[key].toToken == path[path.length-1],'invalid toToken');\n    if(records[key].isForever) {\n      require(block.timestamp >= records[key].lastCheck + records[key].interval,\"interval\");\n    }\n    address _tokenIn = path[0];\n\n    //  check the _amountOut is >= price.\n    require(getRealPrice(_tokenIn,path[path.length-1], _amountOut, _amountIn) >= records[key].price, \"invalid price\");\n\n    //  if not approve, delete this record.\n    if( IEERC20(_tokenIn).balanceOf(records[key].user) < _amountIn \n      || IEERC20(_tokenIn).allowance(records[key].user, address(this)) < _amountIn ) {\n        emit ignore(); // operator will avoid this case.\n        return;\n    }\n    IEERC20(_tokenIn).safeTransferFrom(records[key].user, address(this), _amountIn);\n\n    uint fee = _amountIn.mul(3).div(1000);\n    IEERC20(_tokenIn).safeTransfer(feeTo, fee);\n\n    uint amountInWithoutFee = _amountIn.sub(fee);\n    IEERC20(_tokenIn).safeApprove(router, amountInWithoutFee);\n\n    IIUniswapV2Router02(router).swapExactTokensForTokens(amountInWithoutFee, _amountOut, path, records[key].user, block.timestamp);\n    if(records[key].isForever) {\n      records[key].lastCheck = block.timestamp;\n    } else {\n      records[key].amount = records[key].amount.sub(_amountIn);\n    }\n    emit changeOrderEvent(key, records[key]);\n    if(records[key].amount == 0) {\n      delete records[key];\n    }\n  }\n}\n\n",
  "sourcePath": "/home/lzhang/dfund/order_contract/contracts/Swap.sol",
  "compiler": {
    "name": "solc",
    "version": "0.6.6+commit.6c089d02.Emscripten.clang"
  },
  "schemaVersion": "3.4.3",
  "updatedAt": "2021-10-09T07:29:22.030Z",
  "devdoc": {
    "methods": {
      "getRoleAdmin(bytes32)": {
        "details": "Returns the admin role that controls `role`. See {grantRole} and {revokeRole}.     * To change a role's admin, use {_setRoleAdmin}."
      },
      "getRoleMember(bytes32,uint256)": {
        "details": "Returns one of the accounts that have `role`. `index` must be a value between 0 and {getRoleMemberCount}, non-inclusive.     * Role bearers are not sorted in any particular way, and their ordering may change at any point.     * WARNING: When using {getRoleMember} and {getRoleMemberCount}, make sure you perform all queries on the same block. See the following https://forum.openzeppelin.com/t/iterating-over-elements-on-enumerableset-in-openzeppelin-contracts/2296[forum post] for more information."
      },
      "getRoleMemberCount(bytes32)": {
        "details": "Returns the number of accounts that have `role`. Can be used together with {getRoleMember} to enumerate all bearers of a role."
      },
      "grantRole(bytes32,address)": {
        "details": "Grants `role` to `account`.     * If `account` had not been already granted `role`, emits a {RoleGranted} event.     * Requirements:     * - the caller must have ``role``'s admin role."
      },
      "hasRole(bytes32,address)": {
        "details": "Returns `true` if `account` has been granted `role`."
      },
      "renounceRole(bytes32,address)": {
        "details": "Revokes `role` from the calling account.     * Roles are often managed via {grantRole} and {revokeRole}: this function's purpose is to provide a mechanism for accounts to lose their privileges if they are compromised (such as when a trusted device is misplaced).     * If the calling account had been granted `role`, emits a {RoleRevoked} event.     * Requirements:     * - the caller must be `account`."
      },
      "revokeRole(bytes32,address)": {
        "details": "Revokes `role` from `account`.     * If `account` had been granted `role`, emits a {RoleRevoked} event.     * Requirements:     * - the caller must have ``role``'s admin role."
      }
    }
  },
  "userdoc": {
    "methods": {}
  }
}