{
  "contractName": "Swap",
  "abi": [
    {
      "inputs": [
        {
          "internalType": "address",
          "name": "_admin",
          "type": "address"
        },
        {
          "internalType": "address",
          "name": "_router",
          "type": "address"
        },
        {
          "internalType": "address",
          "name": "_feeTo",
          "type": "address"
        },
        {
          "internalType": "address",
          "name": "_operator",
          "type": "address"
        }
      ],
      "stateMutability": "nonpayable",
      "type": "constructor"
    },
    {
      "anonymous": false,
      "inputs": [
        {
          "indexed": true,
          "internalType": "bytes32",
          "name": "role",
          "type": "bytes32"
        },
        {
          "indexed": true,
          "internalType": "bytes32",
          "name": "previousAdminRole",
          "type": "bytes32"
        },
        {
          "indexed": true,
          "internalType": "bytes32",
          "name": "newAdminRole",
          "type": "bytes32"
        }
      ],
      "name": "RoleAdminChanged",
      "type": "event"
    },
    {
      "anonymous": false,
      "inputs": [
        {
          "indexed": true,
          "internalType": "bytes32",
          "name": "role",
          "type": "bytes32"
        },
        {
          "indexed": true,
          "internalType": "address",
          "name": "account",
          "type": "address"
        },
        {
          "indexed": true,
          "internalType": "address",
          "name": "sender",
          "type": "address"
        }
      ],
      "name": "RoleGranted",
      "type": "event"
    },
    {
      "anonymous": false,
      "inputs": [
        {
          "indexed": true,
          "internalType": "bytes32",
          "name": "role",
          "type": "bytes32"
        },
        {
          "indexed": true,
          "internalType": "address",
          "name": "account",
          "type": "address"
        },
        {
          "indexed": true,
          "internalType": "address",
          "name": "sender",
          "type": "address"
        }
      ],
      "name": "RoleRevoked",
      "type": "event"
    },
    {
      "anonymous": false,
      "inputs": [
        {
          "indexed": true,
          "internalType": "bytes32",
          "name": "key",
          "type": "bytes32"
        },
        {
          "components": [
            {
              "internalType": "address",
              "name": "user",
              "type": "address"
            },
            {
              "internalType": "address",
              "name": "fromToken",
              "type": "address"
            },
            {
              "internalType": "address",
              "name": "toToken",
              "type": "address"
            },
            {
              "internalType": "uint256",
              "name": "price",
              "type": "uint256"
            },
            {
              "internalType": "uint256",
              "name": "amount",
              "type": "uint256"
            },
            {
              "internalType": "bool",
              "name": "isForever",
              "type": "bool"
            },
            {
              "internalType": "uint256",
              "name": "interval",
              "type": "uint256"
            },
            {
              "internalType": "uint256",
              "name": "lastCheck",
              "type": "uint256"
            },
            {
              "internalType": "uint256",
              "name": "received",
              "type": "uint256"
            }
          ],
          "indexed": false,
          "internalType": "struct Order",
          "name": "record",
          "type": "tuple"
        }
      ],
      "name": "changeOrderEvent",
      "type": "event"
    },
    {
      "anonymous": false,
      "inputs": [],
      "name": "ignore",
      "type": "event"
    },
    {
      "inputs": [],
      "name": "DEFAULT_ADMIN_ROLE",
      "outputs": [
        {
          "internalType": "bytes32",
          "name": "",
          "type": "bytes32"
        }
      ],
      "stateMutability": "view",
      "type": "function",
      "constant": true
    },
    {
      "inputs": [],
      "name": "feeTo",
      "outputs": [
        {
          "internalType": "address",
          "name": "",
          "type": "address"
        }
      ],
      "stateMutability": "view",
      "type": "function",
      "constant": true
    },
    {
      "inputs": [
        {
          "internalType": "bytes32",
          "name": "role",
          "type": "bytes32"
        }
      ],
      "name": "getRoleAdmin",
      "outputs": [
        {
          "internalType": "bytes32",
          "name": "",
          "type": "bytes32"
        }
      ],
      "stateMutability": "view",
      "type": "function",
      "constant": true
    },
    {
      "inputs": [
        {
          "internalType": "bytes32",
          "name": "role",
          "type": "bytes32"
        },
        {
          "internalType": "uint256",
          "name": "index",
          "type": "uint256"
        }
      ],
      "name": "getRoleMember",
      "outputs": [
        {
          "internalType": "address",
          "name": "",
          "type": "address"
        }
      ],
      "stateMutability": "view",
      "type": "function",
      "constant": true
    },
    {
      "inputs": [
        {
          "internalType": "bytes32",
          "name": "role",
          "type": "bytes32"
        }
      ],
      "name": "getRoleMemberCount",
      "outputs": [
        {
          "internalType": "uint256",
          "name": "",
          "type": "uint256"
        }
      ],
      "stateMutability": "view",
      "type": "function",
      "constant": true
    },
    {
      "inputs": [
        {
          "internalType": "bytes32",
          "name": "role",
          "type": "bytes32"
        },
        {
          "internalType": "address",
          "name": "account",
          "type": "address"
        }
      ],
      "name": "grantRole",
      "outputs": [],
      "stateMutability": "nonpayable",
      "type": "function"
    },
    {
      "inputs": [
        {
          "internalType": "bytes32",
          "name": "role",
          "type": "bytes32"
        },
        {
          "internalType": "address",
          "name": "account",
          "type": "address"
        }
      ],
      "name": "hasRole",
      "outputs": [
        {
          "internalType": "bool",
          "name": "",
          "type": "bool"
        }
      ],
      "stateMutability": "view",
      "type": "function",
      "constant": true
    },
    {
      "inputs": [],
      "name": "operator",
      "outputs": [
        {
          "internalType": "address",
          "name": "",
          "type": "address"
        }
      ],
      "stateMutability": "view",
      "type": "function",
      "constant": true
    },
    {
      "inputs": [
        {
          "internalType": "bytes32",
          "name": "",
          "type": "bytes32"
        }
      ],
      "name": "records",
      "outputs": [
        {
          "internalType": "address",
          "name": "user",
          "type": "address"
        },
        {
          "internalType": "address",
          "name": "fromToken",
          "type": "address"
        },
        {
          "internalType": "address",
          "name": "toToken",
          "type": "address"
        },
        {
          "internalType": "uint256",
          "name": "price",
          "type": "uint256"
        },
        {
          "internalType": "uint256",
          "name": "amount",
          "type": "uint256"
        },
        {
          "internalType": "bool",
          "name": "isForever",
          "type": "bool"
        },
        {
          "internalType": "uint256",
          "name": "interval",
          "type": "uint256"
        },
        {
          "internalType": "uint256",
          "name": "lastCheck",
          "type": "uint256"
        },
        {
          "internalType": "uint256",
          "name": "received",
          "type": "uint256"
        }
      ],
      "stateMutability": "view",
      "type": "function",
      "constant": true
    },
    {
      "inputs": [
        {
          "internalType": "bytes32",
          "name": "role",
          "type": "bytes32"
        },
        {
          "internalType": "address",
          "name": "account",
          "type": "address"
        }
      ],
      "name": "renounceRole",
      "outputs": [],
      "stateMutability": "nonpayable",
      "type": "function"
    },
    {
      "inputs": [
        {
          "internalType": "bytes32",
          "name": "role",
          "type": "bytes32"
        },
        {
          "internalType": "address",
          "name": "account",
          "type": "address"
        }
      ],
      "name": "revokeRole",
      "outputs": [],
      "stateMutability": "nonpayable",
      "type": "function"
    },
    {
      "inputs": [],
      "name": "router",
      "outputs": [
        {
          "internalType": "address",
          "name": "",
          "type": "address"
        }
      ],
      "stateMutability": "view",
      "type": "function",
      "constant": true
    },
    {
      "inputs": [
        {
          "internalType": "address",
          "name": "_feeTo",
          "type": "address"
        },
        {
          "internalType": "address",
          "name": "_operator",
          "type": "address"
        }
      ],
      "name": "setDepedency",
      "outputs": [],
      "stateMutability": "nonpayable",
      "type": "function"
    },
    {
      "inputs": [
        {
          "internalType": "address",
          "name": "user",
          "type": "address"
        },
        {
          "internalType": "address",
          "name": "fromToken",
          "type": "address"
        },
        {
          "internalType": "address",
          "name": "toToken",
          "type": "address"
        },
        {
          "internalType": "uint256",
          "name": "price",
          "type": "uint256"
        }
      ],
      "name": "getKey",
      "outputs": [
        {
          "internalType": "bytes32",
          "name": "key",
          "type": "bytes32"
        }
      ],
      "stateMutability": "pure",
      "type": "function",
      "constant": true
    },
    {
      "inputs": [
        {
          "internalType": "address",
          "name": "_fromToken",
          "type": "address"
        },
        {
          "internalType": "address",
          "name": "_toToken",
          "type": "address"
        },
        {
          "internalType": "uint256",
          "name": "_price",
          "type": "uint256"
        },
        {
          "internalType": "uint256",
          "name": "_amount",
          "type": "uint256"
        },
        {
          "internalType": "bool",
          "name": "_isForever",
          "type": "bool"
        },
        {
          "internalType": "uint256",
          "name": "_interval",
          "type": "uint256"
        }
      ],
      "name": "changeOrder",
      "outputs": [],
      "stateMutability": "nonpayable",
      "type": "function"
    },
    {
      "inputs": [
        {
          "internalType": "address",
          "name": "_tokenIn",
          "type": "address"
        },
        {
          "internalType": "address",
          "name": "_tokenOut",
          "type": "address"
        },
        {
          "internalType": "uint256",
          "name": "_amountOut",
          "type": "uint256"
        },
        {
          "internalType": "uint256",
          "name": "_amountIn",
          "type": "uint256"
        }
      ],
      "name": "getRealPrice",
      "outputs": [
        {
          "internalType": "uint256",
          "name": "",
          "type": "uint256"
        }
      ],
      "stateMutability": "view",
      "type": "function",
      "constant": true
    },
    {
      "inputs": [
        {
          "internalType": "bytes32",
          "name": "key",
          "type": "bytes32"
        },
        {
          "internalType": "address[]",
          "name": "path",
          "type": "address[]"
        },
        {
          "internalType": "uint256",
          "name": "_amountIn",
          "type": "uint256"
        },
        {
          "internalType": "uint256",
          "name": "_amountOut",
          "type": "uint256"
        },
        {
          "internalType": "bool",
          "name": "isReflect",
          "type": "bool"
        }
      ],
      "name": "swap",
      "outputs": [],
      "stateMutability": "nonpayable",
      "type": "function"
    }
  ],
  "bytecode": "0x60806040523480156200001157600080fd5b506040516200265c3803806200265c8339810160408190526200003491620001e1565b6200004a6000856401000000006200008e810204565b60018054600160a060020a03948516600160a060020a0319918216179091556002805493851693821693909317909255600380549190931691161790555062000241565b620000a38282640100000000620000a7810204565b5050565b6000828152602081905260409020620000cf9082640100000000620014f36200012c82021704565b15620000a357620000e864010000000062000155810204565b600160a060020a031681600160a060020a0316837f2f8788117e7eff1d82e926ec794901d17c78024a50270940304540a733656f0d60405160405180910390a45050565b60006200014c83600160a060020a03841664010000000062000159810204565b90505b92915050565b3390565b6000620001708383640100000000620001b1810204565b620001a8575081546001818101845560008481526020808220909301849055845484825282860190935260409020919091556200014f565b5060006200014f565b60009081526001919091016020526040902054151590565b8051600160a060020a03811681146200014f57600080fd5b60008060008060808587031215620001f7578384fd5b620002038686620001c9565b9350620002148660208701620001c9565b9250620002258660408701620001c9565b9150620002368660608701620001c9565b905092959194509250565b61240b80620002516000396000f3fe608060405234801561001057600080fd5b506004361061010f5760003560e060020a90048063570ca735116100a6578063a217fddf11610075578063a217fddf14610229578063ca15c87314610231578063d547741f14610244578063f887ea4014610257578063f96cd7921461025f5761010f565b8063570ca735146101db5780635a6ac1ec146101e35780639010d07c146101f657806391d14854146102095761010f565b80632f2ff15d116100e25780632f2ff15d1461018f5780633373d16b146101a257806336568abe146101b55780634fe520a5146101c85761010f565b8063017e7e581461011457806301e647251461013257806302f78d9e1461015a578063248a9ca31461016f575b600080fd5b61011c610272565b6040516101299190611b34565b60405180910390f35b6101456101403660046119c7565b610281565b60405161012999989796959493929190611b8c565b61016d610168366004611a0e565b6102de565b005b61018261017d3660046119c7565b610939565b6040516101299190611c26565b61016d61019d3660046119df565b61094e565b61016d6101b03660046118ad565b610999565b61016d6101c33660046119df565b610b30565b6101826101d636600461181a565b610b75565b61011c610bae565b61016d6101f13660046117e6565b610bbd565b61011c610204366004611aab565b610c22565b61021c6102173660046119df565b610c49565b6040516101299190611c1b565b610182610c67565b61018261023f3660046119c7565b610c6c565b61016d6102523660046119df565b610c83565b61011c610cc0565b61018261026d36600461186a565b610ccf565b600254600160a060020a031681565b6004602081905260009182526040909120805460018201546002830154600384015494840154600585015460068601546007870154600890970154600160a060020a0396871698958716979690941695929360ff90921692909189565b600354600160a060020a031633146103145760405160e560020a62461bcd02815260040161030b90611d1c565b60405180910390fd5b60028410156103385760405160e560020a62461bcd02815260040161030b90611f8e565b82158015906103595750600086815260046020819052604090912001548311155b6103785760405160e560020a62461bcd02815260040161030b90611dc1565b8484600081811061038557fe5b905060200201602081019061039a91906117cb565b600087815260046020526040902060010154600160a060020a039081169116146103d95760405160e560020a62461bcd02815260040161030b90612059565b848460001981018181106103e957fe5b90506020020160208101906103fe91906117cb565b600087815260046020526040902060020154600160a060020a0390811691161461043d5760405160e560020a62461bcd02815260040161030b90611ec3565b60008681526004602052604090206005015460ff16156104935760008681526004602052604090206006810154600790910154014210156104935760405160e560020a62461bcd02815260040161030b90611efa565b6000858560008181106104a257fe5b90506020020160208101906104b791906117cb565b905060006104df6103e86104d3876103e563ffffffff610df316565b9063ffffffff610e3016565b600089815260046020526040902060030154909150610524838989600019810181811061050857fe5b905060200201602081019061051d91906117cb565b8789610ccf565b10156105455760405160e560020a62461bcd02815260040161030b90611fc5565b60008881526004602081905260409182902054915160e060020a6370a082310281528792600160a060020a03808716936370a0823193610589939092169101611b34565b60206040518083038186803b1580156105a157600080fd5b505afa1580156105b5573d6000803e3d6000fd5b505050506040513d601f19601f820116820180604052508101906105d99190611acc565b108061068e57506000888152600460208190526040918290205491517fdd62ed3e0000000000000000000000000000000000000000000000000000000081528792600160a060020a038087169363dd62ed3e9361063c9390921691309101611b48565b60206040518083038186803b15801561065457600080fd5b505afa158015610668573d6000803e3d6000fd5b505050506040513d601f19601f8201168201806040525081019061068c9190611acc565b105b156106c3576040517fed6f8663afaec789fee1c55948af73730fa3a1fa25d08e4a3972588efaff779290600090a15050610931565b6000888152600460205260409020546106f090600160a060020a038481169116308863ffffffff610e6516565b60015461071090600160a060020a0384811691168363ffffffff610ef316565b61075281858989808060200260200160405190810160405280939291908181526020018383602002808284376000920191909152508e9250899150610fda9050565b60008881526004602052604090206005015460ff1615610786576000888152600460205260409020426007909101556107bd565b600088815260046020819052604090912001546107a9908663ffffffff6112de16565b600089815260046020819052604090912001555b877f30ab72ae2848fc37e72eba207bc20664ea6d4cc9ff877d99361a34fb935ae609600460008b81526020019081526020016000206040516107ff9190612215565b60405180910390a260025460405160e060020a6370a082310281526108a991600160a060020a0390811691908516906370a0823190610842903090600401611b34565b60206040518083038186803b15801561085a57600080fd5b505afa15801561086e573d6000803e3d6000fd5b505050506040513d601f19601f820116820180604052508101906108929190611acc565b600160a060020a038516919063ffffffff61130916565b6000888152600460208190526040909120015461092e5760008881526004602081905260408220805473ffffffffffffffffffffffffffffffffffffffff1990811682556001820180548216905560028201805490911690556003810183905590810182905560058101805460ff191690556006810182905560078101829055600801555b50505b505050505050565b60009081526020819052604090206002015490565b60008281526020819052604090206002015461096c9061021761132b565b61098b5760405160e560020a62461bcd02815260040161030b90611cbf565b610995828261132f565b5050565b84600160a060020a031686600160a060020a031614156109ce5760405160e560020a62461bcd02815260040161030b90611d8a565b836109ee5760405160e560020a62461bcd02815260040161030b90611fc5565b60006109fc33888888610b75565b60008181526004602081905260409182902080543373ffffffffffffffffffffffffffffffffffffffff199182161782556001820180548216600160a060020a038e811691909117909155600283018054909216908c161790556003810189905590810187905560058101805460ff191687151517905560068101859055905191925082917f30ab72ae2848fc37e72eba207bc20664ea6d4cc9ff877d99361a34fb935ae60991610aac91612215565b60405180910390a283610b275760008181526004602081905260408220805473ffffffffffffffffffffffffffffffffffffffff1990811682556001820180548216905560028201805490911690556003810183905590810182905560058101805460ff191690556006810182905560078101829055600801555b50505050505050565b610b3861132b565b600160a060020a031681600160a060020a031614610b6b5760405160e560020a62461bcd02815260040161030b906121b8565b610995828261139e565b600084848484604051602001610b8e9493929190611b62565b604051602081830303815290604052805190602001209050949350505050565b600354600160a060020a031681565b610bc8600033610c49565b610be75760405160e560020a62461bcd02815260040161030b90612124565b60028054600160a060020a0393841673ffffffffffffffffffffffffffffffffffffffff199182161790915560038054929093169116179055565b6000828152602081905260408120610c40908363ffffffff61140d16565b90505b92915050565b6000828152602081905260408120610c40908363ffffffff61141916565b600081565b6000818152602081905260408120610c439061142e565b600082815260208190526040902060020154610ca19061021761132b565b610b6b5760405160e560020a62461bcd02815260040161030b90611f31565b600154600160a060020a031681565b60008085600160a060020a031663313ce5676040518163ffffffff1660e060020a02815260040160206040518083038186803b158015610d0e57600080fd5b505afa158015610d22573d6000803e3d6000fd5b505050506040513d601f19601f82011682018060405250810190610d469190611ae4565b9050600085600160a060020a031663313ce5676040518163ffffffff1660e060020a02815260040160206040518083038186803b158015610d8657600080fd5b505afa158015610d9a573d6000803e3d6000fd5b505050506040513d601f19601f82011682018060405250810190610dbe9190611ae4565b905060ff81830360120116610de7856104d3633b9aca00818a600a87900a63ffffffff610df316565b98975050505050505050565b600082610e0257506000610c43565b82820282848281610e0f57fe5b0414610c405760405160e560020a62461bcd02815260040161030b90611ffc565b6000808211610e545760405160e560020a62461bcd02815260040161030b90611e8c565b818381610e5d57fe5b049392505050565b610eed846323b872dd60e060020a02858585604051602401610e8993929190611bde565b60408051601f198184030181529190526020810180517bffffffffffffffffffffffffffffffffffffffffffffffffffffffff167fffffffff0000000000000000000000000000000000000000000000000000000090931692909217909152611439565b50505050565b801580610f9457506040517fdd62ed3e000000000000000000000000000000000000000000000000000000008152600160a060020a0384169063dd62ed3e90610f429030908690600401611b48565b60206040518083038186803b158015610f5a57600080fd5b505afa158015610f6e573d6000803e3d6000fd5b505050506040513d601f19601f82011682018060405250810190610f929190611acc565b155b610fb35760405160e560020a62461bcd02815260040161030b9061215b565b610fd58363095ea7b360e060020a028484604051602401610e89929190611c02565b505050565b600083600185510381518110610fec57fe5b602090810291909101810151600085815260049283905260409081902054905160e060020a6370a08231028152600160a060020a03928316936370a082319361103793169101611b34565b60206040518083038186803b15801561104f57600080fd5b505afa158015611063573d6000803e3d6000fd5b505050506040513d601f19601f820116820180604052508101906110879190611acc565b90508115611127576001546000848152600460208190526040918290205491517f5c11d795000000000000000000000000000000000000000000000000000000008152600160a060020a0393841693635c11d795936110f0938c938c938c9316914291016122ba565b600060405180830381600087803b15801561110a57600080fd5b505af115801561111e573d6000803e3d6000fd5b505050506111e0565b6001546000848152600460208190526040918290205491517f38ed1739000000000000000000000000000000000000000000000000000000008152600160a060020a03938416936338ed173993611188938c938c938c9316914291016122ba565b600060405180830381600087803b1580156111a257600080fd5b505af11580156111b6573d6000803e3d6000fd5b505050506040513d6000823e601f3d908101601f191682016040526111de9190810190611913565b505b6000846001865103815181106111f257fe5b602090810291909101810151600086815260049283905260409081902054905160e060020a6370a08231028152600160a060020a03928316936370a082319361123d93169101611b34565b60206040518083038186803b15801561125557600080fd5b505afa158015611269573d6000803e3d6000fd5b505050506040513d601f19601f8201168201806040525081019061128d9190611acc565b90506112c06112a2828463ffffffff6112de16565b6000868152600460205260409020600801549063ffffffff6114cb16565b60009485526004602052604090942060080193909355505050505050565b6000828211156113035760405160e560020a62461bcd02815260040161030b90611df8565b50900390565b610fd58363a9059cbb60e060020a028484604051602401610e89929190611c02565b3390565b600082815260208190526040902061134d908263ffffffff6114f316565b156109955761135a61132b565b600160a060020a031681600160a060020a0316837f2f8788117e7eff1d82e926ec794901d17c78024a50270940304540a733656f0d60405160405180910390a45050565b60008281526020819052604090206113bc908263ffffffff61150816565b15610995576113c961132b565b600160a060020a031681600160a060020a0316837ff6391f5c32d9c69d2a47ea670b442974b53935d1edc7fd64eb21e047a839171b60405160405180910390a45050565b6000610c40838361151d565b6000610c4083600160a060020a038416611565565b6000610c438261157d565b606061148e826040518060400160405280602081526020017f5361666545524332303a206c6f772d6c6576656c2063616c6c206661696c656481525085600160a060020a03166115819092919063ffffffff16565b805190915015610fd557808060200190518101906114ac91906119ab565b610fd55760405160e560020a62461bcd02815260040161030b906120c7565b600082820183811015610c405760405160e560020a62461bcd02815260040161030b90611d53565b6000610c4083600160a060020a03841661159a565b6000610c4083600160a060020a0384166115e4565b815460009082106115435760405160e560020a62461bcd02815260040161030b90611c62565b82600001828154811061155257fe5b9060005260206000200154905092915050565b60009081526001919091016020526040902054151590565b5490565b606061159084846000856116aa565b90505b9392505050565b60006115a68383611565565b6115dc57508154600181810184556000848152602080822090930184905584548482528286019093526040902091909155610c43565b506000610c43565b600081815260018301602052604081205480156116a0578354600019808301919081019060009087908390811061161757fe5b906000526020600020015490508087600001848154811061163457fe5b60009182526020808320909101929092558281526001898101909252604090209084019055865487908061166457fe5b60019003818190600052602060002001600090559055866001016000878152602001908152602001600020600090556001945050505050610c43565b6000915050610c43565b606030318311156116d05760405160e560020a62461bcd02815260040161030b90611e2f565b6116d985611772565b6116f85760405160e560020a62461bcd02815260040161030b90612090565b6000606086600160a060020a031685876040516117159190611b18565b60006040518083038185875af1925050503d8060008114611752576040519150601f19603f3d011682016040523d82523d6000602084013e611757565b606091505b5091509150611767828286611778565b979650505050505050565b3b151590565b60608315611787575081611593565b8251156117975782518084602001fd5b8160405160e560020a62461bcd02815260040161030b9190611c2f565b8035600160a060020a0381168114610c4357600080fd5b6000602082840312156117dc578081fd5b610c4083836117b4565b600080604083850312156117f8578081fd5b61180284846117b4565b915061181184602085016117b4565b90509250929050565b6000806000806080858703121561182f578182fd5b843561183a816123af565b9350602085013561184a816123af565b9250604085013561185a816123af565b9396929550929360600135925050565b6000806000806080858703121561187f578384fd5b61188986866117b4565b935061189886602087016117b4565b93969395505050506040820135916060013590565b60008060008060008060c087890312156118c5578182fd5b86356118d0816123af565b955060208701356118e0816123af565b9450604087013593506060870135925060808701356118fe816123c7565b8092505060a087013590509295509295509295565b60006020808385031215611925578182fd5b825167ffffffffffffffff81111561193b578283fd5b80840185601f82011261194c578384fd5b8051915061196161195c83612351565b61232a565b828152838101908285018585028401860189101561197d578687fd5b8693505b8484101561199f578051835260019390930192918501918501611981565b50979650505050505050565b6000602082840312156119bc578081fd5b8151610c40816123c7565b6000602082840312156119d8578081fd5b5035919050565b600080604083850312156119f1578182fd5b823591506020830135611a03816123af565b809150509250929050565b60008060008060008060a08789031215611a26578182fd5b86359550602087013567ffffffffffffffff80821115611a44578384fd5b8189018a601f820112611a55578485fd5b8035925081831115611a65578485fd5b8a60208085028301011115611a78578485fd5b60200196509094505060408701359250606087013591506080870135611a9d816123c7565b809150509295509295509295565b60008060408385031215611abd578182fd5b50508035926020909101359150565b600060208284031215611add578081fd5b5051919050565b600060208284031215611af5578081fd5b815160ff81168114610c40578182fd5b600160a060020a03169052565b15159052565b60008251611b2a81846020870161237d565b9190910192915050565b600160a060020a0391909116815260200190565b600160a060020a0392831681529116602082015260400190565b600160a060020a039485168152928416602084015292166040820152606081019190915260800190565b600160a060020a03998a168152978916602089015295909716604087015260608601939093526080850191909152151560a084015260c083015260e08201929092526101008101919091526101200190565b600160a060020a039384168152919092166020820152604081019190915260600190565b600160a060020a03929092168252602082015260400190565b901515815260200190565b90815260200190565b6000602082528251806020840152611c4e81604085016020870161237d565b601f01601f19169190910160400192915050565b60208082526022908201527f456e756d657261626c655365743a20696e646578206f7574206f6620626f756e60408201527f6473000000000000000000000000000000000000000000000000000000000000606082015260800190565b6020808252602f908201527f416363657373436f6e74726f6c3a2073656e646572206d75737420626520616e60408201527f2061646d696e20746f206772616e740000000000000000000000000000000000606082015260800190565b6020808252600e908201527f696e76616c69642073656e646572000000000000000000000000000000000000604082015260600190565b6020808252601b908201527f536166654d6174683a206164646974696f6e206f766572666c6f770000000000604082015260600190565b60208082526004908201527f73616d6500000000000000000000000000000000000000000000000000000000604082015260600190565b6020808252600e908201527f696e76616c696420616d6f756e74000000000000000000000000000000000000604082015260600190565b6020808252601e908201527f536166654d6174683a207375627472616374696f6e206f766572666c6f770000604082015260600190565b60208082526026908201527f416464726573733a20696e73756666696369656e742062616c616e636520666f60408201527f722063616c6c0000000000000000000000000000000000000000000000000000606082015260800190565b6020808252601a908201527f536166654d6174683a206469766973696f6e206279207a65726f000000000000604082015260600190565b6020808252600f908201527f696e76616c696420746f546f6b656e0000000000000000000000000000000000604082015260600190565b60208082526008908201527f696e74657276616c000000000000000000000000000000000000000000000000604082015260600190565b60208082526030908201527f416363657373436f6e74726f6c3a2073656e646572206d75737420626520616e60408201527f2061646d696e20746f207265766f6b6500000000000000000000000000000000606082015260800190565b6020808252600c908201527f696e76616c696420706174680000000000000000000000000000000000000000604082015260600190565b6020808252600d908201527f696e76616c696420707269636500000000000000000000000000000000000000604082015260600190565b60208082526021908201527f536166654d6174683a206d756c7469706c69636174696f6e206f766572666c6f60408201527f7700000000000000000000000000000000000000000000000000000000000000606082015260800190565b60208082526011908201527f696e76616c69642066726f6d546f6b656e000000000000000000000000000000604082015260600190565b6020808252601d908201527f416464726573733a2063616c6c20746f206e6f6e2d636f6e7472616374000000604082015260600190565b6020808252602a908201527f5361666545524332303a204552433230206f7065726174696f6e20646964206e60408201527f6f74207375636365656400000000000000000000000000000000000000000000606082015260800190565b60208082526009908201527f6e6f742061646d696e0000000000000000000000000000000000000000000000604082015260600190565b60208082526036908201527f5361666545524332303a20617070726f76652066726f6d206e6f6e2d7a65726f60408201527f20746f206e6f6e2d7a65726f20616c6c6f77616e636500000000000000000000606082015260800190565b6020808252602f908201527f416363657373436f6e74726f6c3a2063616e206f6e6c792072656e6f756e636560408201527f20726f6c657320666f722073656c660000000000000000000000000000000000606082015260800190565b6000610120820190506122318261222c8554612371565b611b05565b61223e6001840154612371565b61224b6020840182611b05565b506122596002840154612371565b6122666040840182611b05565b50600383015460608301526004830154608083015261228860058401546123a9565b61229560a0840182611b12565b50600683015460c0830152600783015460e08301526008909201546101009091015290565b600060a082018783526020878185015260a0604085015281875180845260c0860191508289019350845b81811015612309578451600160a060020a0316835293830193918301916001016122e4565b5050600160a060020a03969096166060850152505050608001529392505050565b60405181810167ffffffffffffffff8111828210171561234957600080fd5b604052919050565b600067ffffffffffffffff821115612367578081fd5b5060209081020190565b600160a060020a031690565b60005b83811015612398578181015183820152602001612380565b83811115610eed5750506000910152565b60ff1690565b600160a060020a03811681146123c457600080fd5b50565b80151581146123c457600080fdfea2646970667358221220123b942855fbb4c5e771800bc24e98b64e40fdea09a08910ee643d81ea787d0364736f6c63430006060033",
  "immutableReferences": {},
  "source": "// SPDX-License-Identifier: MIT\npragma solidity >=0.6.2;\npragma experimental ABIEncoderV2;\n\nimport \"@openzeppelin/contracts/access/AccessControl.sol\";\nimport \"@openzeppelin/contracts/token/ERC20/IERC20.sol\";\nimport \"@openzeppelin/contracts/token/ERC20/SafeERC20.sol\";\nimport \"@openzeppelin/contracts/math/SafeMath.sol\";\n\n\nstruct Order {\n  address user;\n  address fromToken;\n  address toToken;\n  uint    price;\n  uint    amount;\n  bool    isForever;\n  uint    interval; // seconds\n  uint    lastCheck; // only forever order\n  uint    received;\n}\n\ninterface IIUniswapV2Router02{\n      function swapExactTokensForTokens(\n        uint amountIn,\n        uint amountOutMin,\n        address[] calldata path,\n        address to,\n        uint deadline\n    ) external returns (uint[] memory amounts);\n        function swapExactTokensForTokensSupportingFeeOnTransferTokens(\n        uint amountIn,\n        uint amountOutMin,\n        address[] calldata path,\n        address to,\n        uint deadline\n    ) external;\n}\ninterface IEERC20 is IERC20 {\n  function symbol() external view returns (string memory);\n  function decimals() external view returns (uint8);\n}\ncontract Swap is AccessControl {\n  using SafeMath for uint;\n  using SafeERC20 for IEERC20;\n\n  address public router;\n  address public feeTo;\n  address public operator;\n\n  mapping(bytes32=>Order) public records;\n\n  event ignore();  \n  event changeOrderEvent(bytes32 indexed key, Order record);\n\n  constructor(address _admin, address _router, address _feeTo, address _operator) public {\n    _setupRole(DEFAULT_ADMIN_ROLE, _admin);\n    router = _router;\n    feeTo = _feeTo;\n    operator = _operator;\n  }\n\n  function setDepedency(address _feeTo, address _operator) external {\n    require(hasRole(DEFAULT_ADMIN_ROLE, msg.sender), \"not admin\");\n    feeTo = _feeTo;\n    operator = _operator;\n  }\n\n  function getKey(address user, address fromToken, address toToken, uint price) public pure returns (bytes32 key){\n    return keccak256(abi.encode(user, fromToken, toToken, price));\n  }\n\n  function changeOrder(address _fromToken, address _toToken, uint _price, uint _amount, bool _isForever, uint _interval) external {\n    require(_fromToken != _toToken,'same');\n    require(_price != 0,'invalid price');\n    bytes32 key = getKey(msg.sender, _fromToken, _toToken, _price);\n\n    records[key].user = msg.sender;\n    records[key].fromToken = _fromToken;\n    records[key].toToken = _toToken;\n    records[key].price = _price;\n    records[key].amount = _amount;\n    records[key].isForever = _isForever;\n    records[key].interval = _interval;\n    \n    emit changeOrderEvent(key, records[key]);\n    if(_amount == 0) {\n      delete records[key];\n    } \n  }\n\n  function getRealPrice(address _tokenIn, address _tokenOut, uint256 _amountOut, uint256 _amountIn) public view returns (uint256) {\n    uint8 din  = IEERC20(_tokenIn).decimals();\n    uint8 dout = IEERC20(_tokenOut).decimals();\n    uint dd = 18 + din - dout;\n    return   _amountOut.mul(10** dd).div(10**9).div(_amountIn);\n  }\n\n  function _swap(uint amountInWithFee, uint _amountOut, address[] memory path, bytes32 key, bool isReflect) internal {\n    // TODO  for FINN later.\n    uint balanceBefore = IERC20(path[path.length - 1]).balanceOf(records[key].user);\n    if(isReflect){\n      IIUniswapV2Router02(router).swapExactTokensForTokensSupportingFeeOnTransferTokens(amountInWithFee, _amountOut, path, records[key].user, block.timestamp);\n    } else {\n      IIUniswapV2Router02(router).swapExactTokensForTokens(amountInWithFee, _amountOut, path, records[key].user, block.timestamp);\n    }\n    uint balanceAfter = IERC20(path[path.length - 1]).balanceOf(records[key].user);\n    records[key].received = records[key].received.add(balanceAfter.sub(balanceBefore));\n  }\n  function swap(bytes32 key, address[] calldata path, uint256 _amountIn, uint256 _amountOut, bool isReflect) external {\n    require(msg.sender == operator,\"invalid sender\");\n    require(path.length >= 2,\"invalid path\");\n    require(_amountIn != 0 && _amountIn <= records[key].amount,\"invalid amount\");\n    require(records[key].fromToken == path[0],'invalid fromToken');\n    require(records[key].toToken == path[path.length-1],'invalid toToken');\n    if(records[key].isForever) {\n      require(block.timestamp >= records[key].lastCheck + records[key].interval,\"interval\");\n    }\n    address _tokenIn = path[0];\n    uint amountInWithFee = _amountIn.mul(997).div(1000);\n    //  check the _amountOut is >= price.\n    require(getRealPrice(_tokenIn,path[path.length-1], _amountOut, _amountIn) >= records[key].price, \"invalid price\");\n\n    if( IEERC20(_tokenIn).balanceOf(records[key].user) < _amountIn \n      || IEERC20(_tokenIn).allowance(records[key].user, address(this)) < _amountIn ) {\n        emit ignore(); // operator will avoid this case.\n        return;\n    }\n    IEERC20(_tokenIn).safeTransferFrom(records[key].user, address(this), _amountIn);\n    IEERC20(_tokenIn).safeApprove(router, amountInWithFee);\n\n    _swap(amountInWithFee, _amountOut, path, key, isReflect);\n    \n    if(records[key].isForever) {\n      records[key].lastCheck = block.timestamp;\n    } else {\n      records[key].amount = records[key].amount.sub(_amountIn);\n    }\n    emit changeOrderEvent(key, records[key]);\n    IEERC20(_tokenIn).safeTransfer(feeTo, IEERC20(_tokenIn).balanceOf(address(this)));\n    if(records[key].amount == 0) {\n      delete records[key];\n    }\n  }\n}\n\n",
  "sourcePath": "/home/lzhang/dfund/order_contract/contracts/Swap.sol",
  "compiler": {
    "name": "solc",
    "version": "0.6.6+commit.6c089d02.Emscripten.clang"
  },
  "schemaVersion": "3.4.3",
  "updatedAt": "2021-10-12T00:11:09.554Z",
  "networkType": "ethereum",
  "devdoc": {
    "methods": {
      "getRoleAdmin(bytes32)": {
        "details": "Returns the admin role that controls `role`. See {grantRole} and {revokeRole}.     * To change a role's admin, use {_setRoleAdmin}."
      },
      "getRoleMember(bytes32,uint256)": {
        "details": "Returns one of the accounts that have `role`. `index` must be a value between 0 and {getRoleMemberCount}, non-inclusive.     * Role bearers are not sorted in any particular way, and their ordering may change at any point.     * WARNING: When using {getRoleMember} and {getRoleMemberCount}, make sure you perform all queries on the same block. See the following https://forum.openzeppelin.com/t/iterating-over-elements-on-enumerableset-in-openzeppelin-contracts/2296[forum post] for more information."
      },
      "getRoleMemberCount(bytes32)": {
        "details": "Returns the number of accounts that have `role`. Can be used together with {getRoleMember} to enumerate all bearers of a role."
      },
      "grantRole(bytes32,address)": {
        "details": "Grants `role` to `account`.     * If `account` had not been already granted `role`, emits a {RoleGranted} event.     * Requirements:     * - the caller must have ``role``'s admin role."
      },
      "hasRole(bytes32,address)": {
        "details": "Returns `true` if `account` has been granted `role`."
      },
      "renounceRole(bytes32,address)": {
        "details": "Revokes `role` from the calling account.     * Roles are often managed via {grantRole} and {revokeRole}: this function's purpose is to provide a mechanism for accounts to lose their privileges if they are compromised (such as when a trusted device is misplaced).     * If the calling account had been granted `role`, emits a {RoleRevoked} event.     * Requirements:     * - the caller must be `account`."
      },
      "revokeRole(bytes32,address)": {
        "details": "Revokes `role` from `account`.     * If `account` had been granted `role`, emits a {RoleRevoked} event.     * Requirements:     * - the caller must have ``role``'s admin role."
      }
    }
  },
  "userdoc": {
    "methods": {}
  }
}