{
  "contractName": "Swap",
  "abi": [
    {
      "inputs": [
        {
          "internalType": "address",
          "name": "_router",
          "type": "address"
        }
      ],
      "stateMutability": "nonpayable",
      "type": "constructor"
    },
    {
      "anonymous": false,
      "inputs": [
        {
          "indexed": true,
          "internalType": "bytes32",
          "name": "key",
          "type": "bytes32"
        },
        {
          "components": [
            {
              "internalType": "address",
              "name": "user",
              "type": "address"
            },
            {
              "internalType": "address",
              "name": "fromToken",
              "type": "address"
            },
            {
              "internalType": "address",
              "name": "toToken",
              "type": "address"
            },
            {
              "internalType": "uint256",
              "name": "price",
              "type": "uint256"
            },
            {
              "internalType": "uint256",
              "name": "amount",
              "type": "uint256"
            },
            {
              "internalType": "bool",
              "name": "isForever",
              "type": "bool"
            },
            {
              "internalType": "uint256",
              "name": "interval",
              "type": "uint256"
            },
            {
              "internalType": "uint256",
              "name": "lastCheck",
              "type": "uint256"
            },
            {
              "internalType": "uint256",
              "name": "received",
              "type": "uint256"
            }
          ],
          "indexed": false,
          "internalType": "struct Order",
          "name": "record",
          "type": "tuple"
        }
      ],
      "name": "changeOrderEvent",
      "type": "event"
    },
    {
      "inputs": [
        {
          "internalType": "bytes32",
          "name": "",
          "type": "bytes32"
        }
      ],
      "name": "records",
      "outputs": [
        {
          "internalType": "address",
          "name": "user",
          "type": "address"
        },
        {
          "internalType": "address",
          "name": "fromToken",
          "type": "address"
        },
        {
          "internalType": "address",
          "name": "toToken",
          "type": "address"
        },
        {
          "internalType": "uint256",
          "name": "price",
          "type": "uint256"
        },
        {
          "internalType": "uint256",
          "name": "amount",
          "type": "uint256"
        },
        {
          "internalType": "bool",
          "name": "isForever",
          "type": "bool"
        },
        {
          "internalType": "uint256",
          "name": "interval",
          "type": "uint256"
        },
        {
          "internalType": "uint256",
          "name": "lastCheck",
          "type": "uint256"
        },
        {
          "internalType": "uint256",
          "name": "received",
          "type": "uint256"
        }
      ],
      "stateMutability": "view",
      "type": "function"
    },
    {
      "inputs": [],
      "name": "router",
      "outputs": [
        {
          "internalType": "address",
          "name": "",
          "type": "address"
        }
      ],
      "stateMutability": "view",
      "type": "function"
    },
    {
      "inputs": [
        {
          "internalType": "address",
          "name": "user",
          "type": "address"
        },
        {
          "internalType": "address",
          "name": "fromToken",
          "type": "address"
        },
        {
          "internalType": "address",
          "name": "toToken",
          "type": "address"
        },
        {
          "internalType": "uint256",
          "name": "price",
          "type": "uint256"
        }
      ],
      "name": "getKey",
      "outputs": [
        {
          "internalType": "bytes32",
          "name": "key",
          "type": "bytes32"
        }
      ],
      "stateMutability": "pure",
      "type": "function"
    },
    {
      "inputs": [
        {
          "internalType": "address",
          "name": "_fromToken",
          "type": "address"
        },
        {
          "internalType": "address",
          "name": "_toToken",
          "type": "address"
        },
        {
          "internalType": "uint256",
          "name": "_price",
          "type": "uint256"
        },
        {
          "internalType": "uint256",
          "name": "_amount",
          "type": "uint256"
        },
        {
          "internalType": "bool",
          "name": "_isForever",
          "type": "bool"
        },
        {
          "internalType": "uint256",
          "name": "_interval",
          "type": "uint256"
        }
      ],
      "name": "changeOrder",
      "outputs": [],
      "stateMutability": "nonpayable",
      "type": "function"
    },
    {
      "inputs": [
        {
          "internalType": "bytes32",
          "name": "key",
          "type": "bytes32"
        },
        {
          "internalType": "address[]",
          "name": "path",
          "type": "address[]"
        }
      ],
      "name": "swap",
      "outputs": [],
      "stateMutability": "nonpayable",
      "type": "function"
    }
  ],
  "bytecode": "0x608060405234801561001057600080fd5b5060405161145338038061145383398101604081905261002f91610054565b60008054600160a060020a031916600160a060020a0392909216919091179055610082565b600060208284031215610065578081fd5b8151600160a060020a038116811461007b578182fd5b9392505050565b6113c2806100916000396000f3fe608060405234801561001057600080fd5b506004361061005a5760e060020a600035046301e64725811461005f5780633373d16b146100905780634fe520a5146100a5578063739e10a9146100c5578063f887ea40146100d8575b600080fd5b61007261006d366004610d04565b6100ed565b60405161008799989796959493929190610e32565b60405180910390f35b6100a361009e366004610bea565b61014c565b005b6100b86100b3366004610b9a565b61027a565b6040516100879190610ec1565b6100a36100d3366004610d1c565b6102b3565b6100e06106a0565b6040516100879190610dda565b6001602081905260009182526040909120805491810154600282015460038301546004840154600585015460068601546007870154600890970154600160a060020a03988916989687169795909616959394929360ff90921692909189565b84600160a060020a031686600160a060020a0316141561018a5760405160e560020a62461bcd02815260040161018190610efd565b60405180910390fd5b836101aa5760405160e560020a62461bcd0281526004016101819061106d565b60006101b83388888861027a565b60008181526001602081905260409182902080543373ffffffffffffffffffffffffffffffffffffffff1991821617825591810180548316600160a060020a038d811691909117909155600282018054909316908b1617909155600381018890556004810187905560058101805460ff191687151517905560068101859055905191925082917f30ab72ae2848fc37e72eba207bc20664ea6d4cc9ff877d99361a34fb935ae60991610269916111cc565b60405180910390a250505050505050565b6000848484846040516020016102939493929190610e08565b604051602081830303815290604052805190602001209050949350505050565b60028110156102d75760405160e560020a62461bcd02815260040161018190611036565b818160008181106102e457fe5b90506020020160208101906102f99190610b73565b60008481526001602081905260409091200154600160a060020a039081169116146103395760405160e560020a62461bcd028152600401610181906110a4565b8181600019810181811061034957fe5b905060200201602081019061035e9190610b73565b600084815260016020526040902060020154600160a060020a0390811691161461039d5760405160e560020a62461bcd02815260040161018190610fc8565b60008381526001602052604090206005015460ff16156103f35760008381526001602052604090206006810154600790910154014210156103f35760405160e560020a62461bcd02815260040161018190610fff565b6000808383828161040057fe5b90506020020160208101906104159190610b73565b600086815260016020526040908190205490517f70a082310000000000000000000000000000000000000000000000000000000081529192508391600160a060020a03808516926370a08231926104729290911690600401610dda565b60206040518083038186803b15801561048a57600080fd5b505afa15801561049e573d6000803e3d6000fd5b505050506040513d601f19601f820116820180604052508101906104c29190610d93565b10806105755750600085815260016020526040908190205490517fdd62ed3e0000000000000000000000000000000000000000000000000000000081528391600160a060020a038085169263dd62ed3e926105239216903090600401610dee565b60206040518083038186803b15801561053b57600080fd5b505afa15801561054f573d6000803e3d6000fd5b505050506040513d601f19601f820116820180604052508101906105739190610d93565b105b1561058157505061069b565b6000600160008781526020019081526020016000206004015490506105dc83828787808060200260200160405190810160405280939291908181526020018383602002808284376000920191909152508c92506106af915050565b600087815260016020526040902060088101919091556005015460ff16156106185760008681526001602052604090204260079091015561064d565b60008681526001602052604090206004015461063a908463ffffffff61082316565b6000878152600160205260409020600401555b857f30ab72ae2848fc37e72eba207bc20664ea6d4cc9ff877d99361a34fb935ae6096001600089815260200190815260200160002060405161068f91906111cc565b60405180910390a25050505b505050565b600054600160a060020a031681565b60008181526001602052604081205483516106fd91600160a060020a03169030908890879086906106dc57fe5b6020026020010151600160a060020a031661084e909392919063ffffffff16565b6107436000809054906101000a9004600160a060020a0316868560008151811061072357fe5b6020026020010151600160a060020a03166108dc9092919063ffffffff16565b6000805483825260016020526040918290205491517f38ed1739000000000000000000000000000000000000000000000000000000008152606092600160a060020a03928316926338ed1739926107a8928b928b928b92909116904290600401611271565b600060405180830381600087803b1580156107c257600080fd5b505af11580156107d6573d6000803e3d6000fd5b505050506040513d6000823e601f3d908101601f191682016040526107fe9190810190610c50565b90508060018251038151811061081057fe5b6020026020010151915050949350505050565b6000828211156108485760405160e560020a62461bcd02815260040161018190610f34565b50900390565b6108d6846323b872dd60e060020a0285858560405160240161087293929190610e84565b60408051601f198184030181529190526020810180517bffffffffffffffffffffffffffffffffffffffffffffffffffffffff167fffffffff00000000000000000000000000000000000000000000000000000000909316929092179091526109be565b50505050565b80158061097d57506040517fdd62ed3e000000000000000000000000000000000000000000000000000000008152600160a060020a0384169063dd62ed3e9061092b9030908690600401610dee565b60206040518083038186803b15801561094357600080fd5b505afa158015610957573d6000803e3d6000fd5b505050506040513d601f19601f8201168201806040525081019061097b9190610d93565b155b61099c5760405160e560020a62461bcd0281526004016101819061116f565b61069b8363095ea7b360e060020a028484604051602401610872929190610ea8565b6060610a13826040518060400160405280602081526020017f5361666545524332303a206c6f772d6c6576656c2063616c6c206661696c656481525085600160a060020a0316610a509092919063ffffffff16565b80519091501561069b5780806020019051810190610a319190610ce8565b61069b5760405160e560020a62461bcd02815260040161018190611112565b6060610a5f8484600085610a69565b90505b9392505050565b60603031831115610a8f5760405160e560020a62461bcd02815260040161018190610f6b565b610a9885610b31565b610ab75760405160e560020a62461bcd028152600401610181906110db565b6000606086600160a060020a03168587604051610ad49190610dbe565b60006040518083038185875af1925050503d8060008114610b11576040519150601f19603f3d011682016040523d82523d6000602084013e610b16565b606091505b5091509150610b26828286610b37565b979650505050505050565b3b151590565b60608315610b46575081610a62565b825115610b565782518084602001fd5b8160405160e560020a62461bcd0281526004016101819190610eca565b600060208284031215610b84578081fd5b8135600160a060020a0381168114610a62578182fd5b60008060008060808587031215610baf578283fd5b8435610bba81611366565b93506020850135610bca81611366565b92506040850135610bda81611366565b9396929550929360600135925050565b60008060008060008060c08789031215610c02578182fd5b8635610c0d81611366565b95506020870135610c1d81611366565b945060408701359350606087013592506080870135610c3b8161137e565b8092505060a087013590509295509295509295565b60006020808385031215610c62578182fd5b825167ffffffffffffffff811115610c78578283fd5b80840185601f820112610c89578384fd5b80519150610c9e610c9983611308565b6112e1565b8281528381019082850185850284018601891015610cba578687fd5b8693505b84841015610cdc578051835260019390930192918501918501610cbe565b50979650505050505050565b600060208284031215610cf9578081fd5b8151610a628161137e565b600060208284031215610d15578081fd5b5035919050565b600080600060408486031215610d30578283fd5b83359250602084013567ffffffffffffffff80821115610d4e578384fd5b81860187601f820112610d5f578485fd5b8035925081831115610d6f578485fd5b8760208085028301011115610d82578485fd5b949760209095019650909450505050565b600060208284031215610da4578081fd5b5051919050565b600160a060020a03169052565b15159052565b60008251610dd0818460208701611334565b9190910192915050565b600160a060020a0391909116815260200190565b600160a060020a0392831681529116602082015260400190565b600160a060020a039485168152928416602084015292166040820152606081019190915260800190565b600160a060020a03998a168152978916602089015295909716604087015260608601939093526080850191909152151560a084015260c083015260e08201929092526101008101919091526101200190565b600160a060020a039384168152919092166020820152604081019190915260600190565b600160a060020a03929092168252602082015260400190565b90815260200190565b6000602082528251806020840152610ee9816040850160208701611334565b601f01601f19169190910160400192915050565b60208082526004908201527f73616d6500000000000000000000000000000000000000000000000000000000604082015260600190565b6020808252601e908201527f536166654d6174683a207375627472616374696f6e206f766572666c6f770000604082015260600190565b60208082526026908201527f416464726573733a20696e73756666696369656e742062616c616e636520666f60408201527f722063616c6c0000000000000000000000000000000000000000000000000000606082015260800190565b6020808252600f908201527f696e76616c696420746f546f6b656e0000000000000000000000000000000000604082015260600190565b60208082526008908201527f696e74657276616c000000000000000000000000000000000000000000000000604082015260600190565b6020808252600c908201527f696e76616c696420706174680000000000000000000000000000000000000000604082015260600190565b6020808252600d908201527f696e76616c696420707269636500000000000000000000000000000000000000604082015260600190565b60208082526011908201527f696e76616c69642066726f6d546f6b656e000000000000000000000000000000604082015260600190565b6020808252601d908201527f416464726573733a2063616c6c20746f206e6f6e2d636f6e7472616374000000604082015260600190565b6020808252602a908201527f5361666545524332303a204552433230206f7065726174696f6e20646964206e60408201527f6f74207375636365656400000000000000000000000000000000000000000000606082015260800190565b60208082526036908201527f5361666545524332303a20617070726f76652066726f6d206e6f6e2d7a65726f60408201527f20746f206e6f6e2d7a65726f20616c6c6f77616e636500000000000000000000606082015260800190565b6000610120820190506111e8826111e38554611328565b610dab565b6111f56001840154611328565b6112026020840182610dab565b506112106002840154611328565b61121d6040840182610dab565b50600383015460608301526004830154608083015261123f6005840154611360565b61124c60a0840182610db8565b50600683015460c0830152600783015460e08301526008909201546101009091015290565b600060a082018783526020878185015260a0604085015281875180845260c0860191508289019350845b818110156112c0578451600160a060020a03168352938301939183019160010161129b565b5050600160a060020a03969096166060850152505050608001529392505050565b60405181810167ffffffffffffffff8111828210171561130057600080fd5b604052919050565b600067ffffffffffffffff82111561131e578081fd5b5060209081020190565b600160a060020a031690565b60005b8381101561134f578181015183820152602001611337565b838111156108d65750506000910152565b60ff1690565b600160a060020a038116811461137b57600080fd5b50565b801515811461137b57600080fdfea26469706673582212208b7dba8d8845ff8ef05e78a7b74911387078734733b5a12ddef1a0ea59b954da64736f6c63430006060033",
  "immutableReferences": {},
  "source": "// SPDX-License-Identifier: MIT\npragma solidity >=0.6.2;\npragma experimental ABIEncoderV2;\n\nimport \"@openzeppelin/contracts/token/ERC20/IERC20.sol\";\nimport \"@openzeppelin/contracts/token/ERC20/SafeERC20.sol\";\nimport \"@openzeppelin/contracts/math/SafeMath.sol\";\nimport \"./interfaces/Interface.sol\";\n\n\nstruct Order {\n  address user;\n  address fromToken;\n  address toToken;\n  uint    price;  // 最小单位 * e18\n  uint    amount;\n  bool    isForever;\n  uint    interval; // seconds\n  uint    lastCheck; // only forever order\n  uint    received;\n}\n\n\ncontract Swap  {\n  using SafeMath for uint;\n  using SafeERC20 for IEERC20;\n\n  address public router;\n  mapping(bytes32=>Order) public records;\n\n  event changeOrderEvent(bytes32 indexed key, Order record);\n\n  constructor(address _router) public {\n    router = _router;\n  }\n\n\n  function getKey(address user, address fromToken, address toToken, uint price) public pure returns (bytes32 key){\n    return keccak256(abi.encode(user, fromToken, toToken, price));\n  }\n\n  function changeOrder(address _fromToken, address _toToken, uint _price, uint _amount, bool _isForever, uint _interval) external {\n    require(_fromToken != _toToken,'same');\n    require(_price != 0,'invalid price');\n    bytes32 key = getKey(msg.sender, _fromToken, _toToken, _price);\n    // TODO 相同的user才能覆盖.\n\n    records[key].user = msg.sender;\n    records[key].fromToken = _fromToken;\n    records[key].toToken = _toToken;\n    records[key].price = _price;\n    records[key].amount = _amount;\n    records[key].isForever = _isForever;\n    records[key].interval = _interval;\n    \n    emit changeOrderEvent(key, records[key]);\n  }\n\n\n  function _swap(uint _amountIn, uint _amountOutMin, address[] memory path, bytes32 key) internal returns(uint amountOut) {\n    IEERC20(path[0]).safeTransferFrom(records[key].user, address(this), _amountIn);\n    IEERC20(path[0]).safeApprove(router, _amountIn);\n\n    uint[] memory amounts = IIUniswapV2Router02(router).swapExactTokensForTokens(_amountIn, _amountOutMin, path, records[key].user, block.timestamp);\n    \n    return amounts[amounts.length-1];\n  }\n  function swap(bytes32 key, address[] calldata path) external {\n    require(path.length >= 2,\"invalid path\");\n    require(records[key].fromToken == path[0],'invalid fromToken');\n    require(records[key].toToken == path[path.length-1],'invalid toToken');\n    if(records[key].isForever) {\n      require(block.timestamp >= records[key].lastCheck + records[key].interval,\"interval\");\n    }\n\n    uint _amountIn = 0;\n    address _tokenIn = path[0];\n    if( IEERC20(_tokenIn).balanceOf(records[key].user) < _amountIn || IEERC20(_tokenIn).allowance(records[key].user, address(this)) < _amountIn ) {\n        return;\n    }\n    uint amountOutMin = records[key].amount;\n    records[key].received = _swap(_amountIn, amountOutMin, path, key);\n    \n    if(records[key].isForever) {\n      records[key].lastCheck = block.timestamp;\n    } else {\n      records[key].amount = records[key].amount.sub(_amountIn);\n    }\n    emit changeOrderEvent(key, records[key]);\n  }\n}\n\n",
  "sourcePath": "/Users/lihuazhang/dfund/order_contract/contracts/Swap.sol",
  "compiler": {
    "name": "solc",
    "version": "0.6.6+commit.6c089d02.Emscripten.clang"
  },
  "schemaVersion": "3.4.7",
  "updatedAt": "2023-02-17T11:34:45.131Z",
  "devdoc": {
    "methods": {}
  },
  "userdoc": {
    "methods": {}
  }
}