{
  "contractName": "Swap",
  "abi": [
    {
      "inputs": [
        {
          "internalType": "address",
          "name": "_admin",
          "type": "address"
        },
        {
          "internalType": "address",
          "name": "_router",
          "type": "address"
        },
        {
          "internalType": "address",
          "name": "_feeTo",
          "type": "address"
        }
      ],
      "stateMutability": "nonpayable",
      "type": "constructor"
    },
    {
      "anonymous": false,
      "inputs": [
        {
          "indexed": true,
          "internalType": "bytes32",
          "name": "role",
          "type": "bytes32"
        },
        {
          "indexed": true,
          "internalType": "bytes32",
          "name": "previousAdminRole",
          "type": "bytes32"
        },
        {
          "indexed": true,
          "internalType": "bytes32",
          "name": "newAdminRole",
          "type": "bytes32"
        }
      ],
      "name": "RoleAdminChanged",
      "type": "event"
    },
    {
      "anonymous": false,
      "inputs": [
        {
          "indexed": true,
          "internalType": "bytes32",
          "name": "role",
          "type": "bytes32"
        },
        {
          "indexed": true,
          "internalType": "address",
          "name": "account",
          "type": "address"
        },
        {
          "indexed": true,
          "internalType": "address",
          "name": "sender",
          "type": "address"
        }
      ],
      "name": "RoleGranted",
      "type": "event"
    },
    {
      "anonymous": false,
      "inputs": [
        {
          "indexed": true,
          "internalType": "bytes32",
          "name": "role",
          "type": "bytes32"
        },
        {
          "indexed": true,
          "internalType": "address",
          "name": "account",
          "type": "address"
        },
        {
          "indexed": true,
          "internalType": "address",
          "name": "sender",
          "type": "address"
        }
      ],
      "name": "RoleRevoked",
      "type": "event"
    },
    {
      "anonymous": false,
      "inputs": [
        {
          "indexed": true,
          "internalType": "bytes32",
          "name": "key",
          "type": "bytes32"
        },
        {
          "indexed": false,
          "internalType": "address",
          "name": "user",
          "type": "address"
        },
        {
          "indexed": false,
          "internalType": "address",
          "name": "fromToken",
          "type": "address"
        },
        {
          "indexed": false,
          "internalType": "address",
          "name": "toToken",
          "type": "address"
        },
        {
          "indexed": false,
          "internalType": "uint256",
          "name": "price",
          "type": "uint256"
        },
        {
          "indexed": false,
          "internalType": "uint256",
          "name": "amount",
          "type": "uint256"
        }
      ],
      "name": "changeOrderEvent",
      "type": "event"
    },
    {
      "inputs": [],
      "name": "DEFAULT_ADMIN_ROLE",
      "outputs": [
        {
          "internalType": "bytes32",
          "name": "",
          "type": "bytes32"
        }
      ],
      "stateMutability": "view",
      "type": "function"
    },
    {
      "inputs": [],
      "name": "feeTo",
      "outputs": [
        {
          "internalType": "address",
          "name": "",
          "type": "address"
        }
      ],
      "stateMutability": "view",
      "type": "function"
    },
    {
      "inputs": [
        {
          "internalType": "bytes32",
          "name": "role",
          "type": "bytes32"
        }
      ],
      "name": "getRoleAdmin",
      "outputs": [
        {
          "internalType": "bytes32",
          "name": "",
          "type": "bytes32"
        }
      ],
      "stateMutability": "view",
      "type": "function"
    },
    {
      "inputs": [
        {
          "internalType": "bytes32",
          "name": "role",
          "type": "bytes32"
        },
        {
          "internalType": "uint256",
          "name": "index",
          "type": "uint256"
        }
      ],
      "name": "getRoleMember",
      "outputs": [
        {
          "internalType": "address",
          "name": "",
          "type": "address"
        }
      ],
      "stateMutability": "view",
      "type": "function"
    },
    {
      "inputs": [
        {
          "internalType": "bytes32",
          "name": "role",
          "type": "bytes32"
        }
      ],
      "name": "getRoleMemberCount",
      "outputs": [
        {
          "internalType": "uint256",
          "name": "",
          "type": "uint256"
        }
      ],
      "stateMutability": "view",
      "type": "function"
    },
    {
      "inputs": [
        {
          "internalType": "bytes32",
          "name": "role",
          "type": "bytes32"
        },
        {
          "internalType": "address",
          "name": "account",
          "type": "address"
        }
      ],
      "name": "grantRole",
      "outputs": [],
      "stateMutability": "nonpayable",
      "type": "function"
    },
    {
      "inputs": [
        {
          "internalType": "bytes32",
          "name": "role",
          "type": "bytes32"
        },
        {
          "internalType": "address",
          "name": "account",
          "type": "address"
        }
      ],
      "name": "hasRole",
      "outputs": [
        {
          "internalType": "bool",
          "name": "",
          "type": "bool"
        }
      ],
      "stateMutability": "view",
      "type": "function"
    },
    {
      "inputs": [
        {
          "internalType": "bytes32",
          "name": "",
          "type": "bytes32"
        }
      ],
      "name": "records",
      "outputs": [
        {
          "internalType": "address",
          "name": "user",
          "type": "address"
        },
        {
          "internalType": "address",
          "name": "fromToken",
          "type": "address"
        },
        {
          "internalType": "address",
          "name": "toToken",
          "type": "address"
        },
        {
          "internalType": "uint256",
          "name": "price",
          "type": "uint256"
        },
        {
          "internalType": "uint256",
          "name": "amount",
          "type": "uint256"
        }
      ],
      "stateMutability": "view",
      "type": "function"
    },
    {
      "inputs": [
        {
          "internalType": "bytes32",
          "name": "role",
          "type": "bytes32"
        },
        {
          "internalType": "address",
          "name": "account",
          "type": "address"
        }
      ],
      "name": "renounceRole",
      "outputs": [],
      "stateMutability": "nonpayable",
      "type": "function"
    },
    {
      "inputs": [
        {
          "internalType": "bytes32",
          "name": "role",
          "type": "bytes32"
        },
        {
          "internalType": "address",
          "name": "account",
          "type": "address"
        }
      ],
      "name": "revokeRole",
      "outputs": [],
      "stateMutability": "nonpayable",
      "type": "function"
    },
    {
      "inputs": [],
      "name": "router",
      "outputs": [
        {
          "internalType": "address",
          "name": "",
          "type": "address"
        }
      ],
      "stateMutability": "view",
      "type": "function"
    },
    {
      "inputs": [
        {
          "internalType": "address",
          "name": "_router",
          "type": "address"
        },
        {
          "internalType": "address",
          "name": "_feeTo",
          "type": "address"
        }
      ],
      "name": "setDepedency",
      "outputs": [],
      "stateMutability": "nonpayable",
      "type": "function"
    },
    {
      "inputs": [
        {
          "internalType": "address",
          "name": "user",
          "type": "address"
        },
        {
          "internalType": "address",
          "name": "fromToken",
          "type": "address"
        },
        {
          "internalType": "address",
          "name": "toToken",
          "type": "address"
        },
        {
          "internalType": "uint256",
          "name": "price",
          "type": "uint256"
        }
      ],
      "name": "getKey",
      "outputs": [
        {
          "internalType": "bytes32",
          "name": "key",
          "type": "bytes32"
        }
      ],
      "stateMutability": "pure",
      "type": "function"
    },
    {
      "inputs": [
        {
          "internalType": "address",
          "name": "_fromToken",
          "type": "address"
        },
        {
          "internalType": "address",
          "name": "_toToken",
          "type": "address"
        },
        {
          "internalType": "uint256",
          "name": "_price",
          "type": "uint256"
        },
        {
          "internalType": "uint256",
          "name": "_amount",
          "type": "uint256"
        }
      ],
      "name": "changeOrder",
      "outputs": [],
      "stateMutability": "nonpayable",
      "type": "function"
    },
    {
      "inputs": [
        {
          "internalType": "bytes32",
          "name": "key",
          "type": "bytes32"
        },
        {
          "internalType": "address[]",
          "name": "path",
          "type": "address[]"
        },
        {
          "internalType": "uint256",
          "name": "_amountIn",
          "type": "uint256"
        },
        {
          "internalType": "uint256",
          "name": "_amountOutMin",
          "type": "uint256"
        }
      ],
      "name": "swap",
      "outputs": [],
      "stateMutability": "nonpayable",
      "type": "function"
    }
  ],
  "bytecode": "0x60806040523480156200001157600080fd5b5060405162001c0238038062001c02833981810160405260608110156200003757600080fd5b50805160208201516040909201519091906200005e60008464010000000062000091810204565b60018054600160a060020a03938416600160a060020a0319918216179091556002805492909316911617905550620001cc565b620000a68282640100000000620000aa810204565b5050565b6000828152602081905260409020620000d29082640100000000620013ff6200012f82021704565b15620000a657620000eb64010000000062000158810204565b600160a060020a031681600160a060020a0316837f2f8788117e7eff1d82e926ec794901d17c78024a50270940304540a733656f0d60405160405180910390a45050565b60006200014f83600160a060020a0384166401000000006200015c810204565b90505b92915050565b3390565b6000620001738383640100000000620001b4810204565b620001ab5750815460018181018455600084815260208082209093018490558454848252828601909352604090209190915562000152565b50600062000152565b60009081526001919091016020526040902054151590565b611a2680620001dc6000396000f3fe608060405234801561001057600080fd5b5060043610610112576000357c0100000000000000000000000000000000000000000000000000000000900480638a7b8b95116100b4578063ca15c87311610083578063ca15c8731461036d578063d547741f1461038a578063d9160bb0146103b6578063f887ea40146103f257610112565b80638a7b8b95146102855780639010d07c1461030257806391d1485414610325578063a217fddf1461036557610112565b80632f2ff15d116100f05780632f2ff15d146101c157806336568abe146101ef5780634fe520a51461021b5780635a6ac1ec1461025757610112565b8063017e7e581461011757806301e647251461013b578063248a9ca314610192575b600080fd5b61011f6103fa565b60408051600160a060020a039092168252519081900360200190f35b6101586004803603602081101561015157600080fd5b5035610409565b60408051600160a060020a039687168152948616602086015292909416838301526060830152608082019290925290519081900360a00190f35b6101af600480360360208110156101a857600080fd5b5035610448565b60408051918252519081900360200190f35b6101ed600480360360408110156101d757600080fd5b5080359060200135600160a060020a031661045d565b005b6101ed6004803603604081101561020557600080fd5b5080359060200135600160a060020a03166104cc565b6101af6004803603608081101561023157600080fd5b50600160a060020a03813581169160208101358216916040820135169060600135610530565b6101ed6004803603604081101561026d57600080fd5b50600160a060020a038135811691602001351661057b565b6101ed6004803603608081101561029b57600080fd5b813591908101906040810160208201356401000000008111156102bd57600080fd5b8201836020820111156102cf57600080fd5b803590602001918460208302840111640100000000831117156102f157600080fd5b919350915080359060200135610615565b61011f6004803603604081101561031857600080fd5b5080359060200135610cb4565b6103516004803603604081101561033b57600080fd5b5080359060200135600160a060020a0316610cdb565b604080519115158252519081900360200190f35b6101af610cf9565b6101af6004803603602081101561038357600080fd5b5035610cfe565b6101ed600480360360408110156103a057600080fd5b5080359060200135600160a060020a0316610d15565b6101ed600480360360808110156103cc57600080fd5b50600160a060020a03813581169160208101359091169060408101359060600135610d71565b61011f610f4c565b600254600160a060020a031681565b600360208190526000918252604090912080546001820154600283015493830154600490930154600160a060020a039283169491831693919092169185565b60009081526020819052604090206002015490565b6000828152602081905260409020600201546104809061047b610f5b565b610cdb565b6104be5760405160e560020a62461bcd02815260040180806020018281038252602f8152602001806118bc602f913960400191505060405180910390fd5b6104c88282610f5f565b5050565b6104d4610f5b565b600160a060020a031681600160a060020a0316146105265760405160e560020a62461bcd02815260040180806020018281038252602f8152602001806119c2602f913960400191505060405180910390fd5b6104c88282610fce565b60408051600160a060020a03958616602080830191909152948616818301529290941660608301526080808301919091528351808303909101815260a0909101909252815191012090565b610586600033610cdb565b6105da576040805160e560020a62461bcd02815260206004820152600960248201527f6e6f742061646d696e0000000000000000000000000000000000000000000000604482015290519081900360640190fd5b60018054600160a060020a0393841673ffffffffffffffffffffffffffffffffffffffff199182161790915560028054929093169116179055565b600283101561062357600080fd5b811580159061064357506000858152600360205260409020600401548211155b610697576040805160e560020a62461bcd02815260206004820152600e60248201527f696e76616c696420616d6f756e74000000000000000000000000000000000000604482015290519081900360640190fd5b838360008181106106a457fe5b60008881526003602090815260409091206001015491029290920135600160a060020a0390811692169190911490506106dc57600080fd5b838360001981018181106106ec57fe5b60008881526003602090815260409091206002015491029290920135600160a060020a03908116921691909114905061072457600080fd5b60008484600081811061073357fe5b6000898152600360209081526040918290205482517f70a08231000000000000000000000000000000000000000000000000000000008152600160a060020a03918216600482015292519382029590950135909416945086938593506370a0823192602480840193829003018186803b1580156107af57600080fd5b505afa1580156107c3573d6000803e3d6000fd5b505050506040513d60208110156107d957600080fd5b5051108061088757506000868152600360209081526040918290205482517fdd62ed3e000000000000000000000000000000000000000000000000000000008152600160a060020a039182166004820152306024820152925186939185169263dd62ed3e9260448082019391829003018186803b15801561085957600080fd5b505afa15801561086d573d6000803e3d6000fd5b505050506040513d602081101561088357600080fd5b5051105b15610931576000868152600360208181526040808420805473ffffffffffffffffffffffffffffffffffffffff199081168255600182018054821690556002820180549091169055928301849055600490920183905581518381529081018390528082018390526060810183905260808101929092525187917f76bcd833a3eddc3b94559e7484f93bad626e9558187f5fc88f9cda6c96012495919081900360a00190a250610cad565b60008681526003602052604090205461095e90600160a060020a038381169116308663ffffffff61103d16565b60006109836103e861097786600363ffffffff6110cb16565b9063ffffffff61112716565b6002549091506109a690600160a060020a0384811691168363ffffffff61119116565b60006109b8858363ffffffff61121616565b6001549091506109db90600160a060020a0385811691168363ffffffff61127616565b600160009054906101000a9004600160a060020a0316600160a060020a03166338ed173982868a8a600360008f815260200190815260200160002060000160009054906101000a9004600160a060020a0316426040518763ffffffff167c0100000000000000000000000000000000000000000000000000000000028152600401808781526020018681526020018060200184600160a060020a0316600160a060020a031681526020018381526020018281038252868682818152602001925060200280828437600081840152601f19601f820116905080830192505050975050505050505050600060405180830381600087803b158015610adc57600080fd5b505af1158015610af0573d6000803e3d6000fd5b505050506040513d6000823e601f3d908101601f191682016040526020811015610b1957600080fd5b8101908080516040519392919084640100000000821115610b3957600080fd5b908301906020820185811115610b4e57600080fd5b8251866020820283011164010000000082111715610b6b57600080fd5b82525081516020918201928201910280838360005b83811015610b98578181015183820152602001610b80565b5050505091909101604090815260008e8152600360205220600401548a9003945050508215159150610c1790505760008981526003602081905260408220805473ffffffffffffffffffffffffffffffffffffffff19908116825560018201805482169055600282018054909116905590810182905560040155610c2c565b60008981526003602052604090206004018190555b60008981526003602081815260409283902080546001820154600283015492909401548551600160a060020a03928316815294821693850193909352168284015260608201526080810183905290518a917f76bcd833a3eddc3b94559e7484f93bad626e9558187f5fc88f9cda6c96012495919081900360a00190a2505050505b5050505050565b6000828152602081905260408120610cd2908363ffffffff6113d316565b90505b92915050565b6000828152602081905260408120610cd2908363ffffffff6113df16565b600081565b6000818152602081905260408120610cd5906113f4565b600082815260208190526040902060020154610d339061047b610f5b565b6105265760405160e560020a62461bcd0281526004018080602001828103825260308152602001806119116030913960400191505060405180910390fd5b82600160a060020a031684600160a060020a03161415610d9057600080fd5b6000610d9e33868686610530565b600081815260036020526040902054909150600160a060020a03161580610ddb5750600081815260036020526040902054600160a060020a031633145b610e2f576040805160e560020a62461bcd02815260206004820152600e60248201527f696e76616c69642073656e646572000000000000000000000000000000000000604482015290519081900360640190fd5b81610e855760008181526003602081905260408220805473ffffffffffffffffffffffffffffffffffffffff19908116825560018201805482169055600282018054909116905590810182905560040155610eeb565b600081815260036020819052604090912080543373ffffffffffffffffffffffffffffffffffffffff199182161782556001820180548216600160a060020a038a8116919091179091556002830180549092169088161790559081018490556004018290555b60408051338152600160a060020a0380881660208301528616818301526060810185905260808101849052905182917f76bcd833a3eddc3b94559e7484f93bad626e9558187f5fc88f9cda6c96012495919081900360a00190a25050505050565b600154600160a060020a031681565b3390565b6000828152602081905260409020610f7d908263ffffffff6113ff16565b156104c857610f8a610f5b565b600160a060020a031681600160a060020a0316837f2f8788117e7eff1d82e926ec794901d17c78024a50270940304540a733656f0d60405160405180910390a45050565b6000828152602081905260409020610fec908263ffffffff61141416565b156104c857610ff9610f5b565b600160a060020a031681600160a060020a0316837ff6391f5c32d9c69d2a47ea670b442974b53935d1edc7fd64eb21e047a839171b60405160405180910390a45050565b60408051600160a060020a0380861660248301528416604482015260648082018490528251808303909101815260849091019091526020810180517bffffffffffffffffffffffffffffffffffffffffffffffffffffffff167f23b872dd000000000000000000000000000000000000000000000000000000001790526110c5908590611429565b50505050565b6000826110da57506000610cd5565b828202828482816110e757fe5b0414610cd25760405160e560020a62461bcd0281526004018080602001828103825260218152602001806119416021913960400191505060405180910390fd5b6000808211611180576040805160e560020a62461bcd02815260206004820152601a60248201527f536166654d6174683a206469766973696f6e206279207a65726f000000000000604482015290519081900360640190fd5b81838161118957fe5b049392505050565b60408051600160a060020a038416602482015260448082018490528251808303909101815260649091019091526020810180517bffffffffffffffffffffffffffffffffffffffffffffffffffffffff167fa9059cbb00000000000000000000000000000000000000000000000000000000179052611211908490611429565b505050565b600082821115611270576040805160e560020a62461bcd02815260206004820152601e60248201527f536166654d6174683a207375627472616374696f6e206f766572666c6f770000604482015290519081900360640190fd5b50900390565b8015806113155750604080517fdd62ed3e000000000000000000000000000000000000000000000000000000008152306004820152600160a060020a03848116602483015291519185169163dd62ed3e91604480820192602092909190829003018186803b1580156112e757600080fd5b505afa1580156112fb573d6000803e3d6000fd5b505050506040513d602081101561131157600080fd5b5051155b6113535760405160e560020a62461bcd02815260040180806020018281038252603681526020018061198c6036913960400191505060405180910390fd5b60408051600160a060020a038416602482015260448082018490528251808303909101815260649091019091526020810180517bffffffffffffffffffffffffffffffffffffffffffffffffffffffff167f095ea7b300000000000000000000000000000000000000000000000000000000179052611211908490611429565b6000610cd283836114dd565b6000610cd283600160a060020a038416611544565b6000610cd58261155c565b6000610cd283600160a060020a038416611560565b6000610cd283600160a060020a0384166115aa565b606061147e826040518060400160405280602081526020017f5361666545524332303a206c6f772d6c6576656c2063616c6c206661696c656481525085600160a060020a03166116709092919063ffffffff16565b8051909150156112115780806020019051602081101561149d57600080fd5b50516112115760405160e560020a62461bcd02815260040180806020018281038252602a815260200180611962602a913960400191505060405180910390fd5b815460009082106115225760405160e560020a62461bcd02815260040180806020018281038252602281526020018061189a6022913960400191505060405180910390fd5b82600001828154811061153157fe5b9060005260206000200154905092915050565b60009081526001919091016020526040902054151590565b5490565b600061156c8383611544565b6115a257508154600181810184556000848152602080822090930184905584548482528286019093526040902091909155610cd5565b506000610cd5565b6000818152600183016020526040812054801561166657835460001980830191908101906000908790839081106115dd57fe5b90600052602060002001549050808760000184815481106115fa57fe5b60009182526020808320909101929092558281526001898101909252604090209084019055865487908061162a57fe5b60019003818190600052602060002001600090559055866001016000878152602001908152602001600020600090556001945050505050610cd5565b6000915050610cd5565b606061167f8484600085611689565b90505b9392505050565b606030318311156116ce5760405160e560020a62461bcd0281526004018080602001828103825260268152602001806118eb6026913960400191505060405180910390fd5b6116d7856117ec565b61172b576040805160e560020a62461bcd02815260206004820152601d60248201527f416464726573733a2063616c6c20746f206e6f6e2d636f6e7472616374000000604482015290519081900360640190fd5b6000606086600160a060020a031685876040518082805190602001908083835b6020831061176a5780518252601f19909201916020918201910161174b565b6001836020036101000a03801982511681845116808217855250505050505090500191505060006040518083038185875af1925050503d80600081146117cc576040519150601f19603f3d011682016040523d82523d6000602084013e6117d1565b606091505b50915091506117e18282866117f2565b979650505050505050565b3b151590565b60608315611801575081611682565b8251156118115782518084602001fd5b8160405160e560020a62461bcd0281526004018080602001828103825283818151815260200191508051906020019080838360005b8381101561185e578181015183820152602001611846565b50505050905090810190601f16801561188b5780820380516001836020036101000a031916815260200191505b509250505060405180910390fdfe456e756d657261626c655365743a20696e646578206f7574206f6620626f756e6473416363657373436f6e74726f6c3a2073656e646572206d75737420626520616e2061646d696e20746f206772616e74416464726573733a20696e73756666696369656e742062616c616e636520666f722063616c6c416363657373436f6e74726f6c3a2073656e646572206d75737420626520616e2061646d696e20746f207265766f6b65536166654d6174683a206d756c7469706c69636174696f6e206f766572666c6f775361666545524332303a204552433230206f7065726174696f6e20646964206e6f7420737563636565645361666545524332303a20617070726f76652066726f6d206e6f6e2d7a65726f20746f206e6f6e2d7a65726f20616c6c6f77616e6365416363657373436f6e74726f6c3a2063616e206f6e6c792072656e6f756e636520726f6c657320666f722073656c66a2646970667358221220563e25186cde72ec27ef37ce87958c8c6507e22e93ed3aae58f5e7df9dc1e4cf64736f6c63430006060033",
  "immutableReferences": {},
  "source": "// SPDX-License-Identifier: MIT\npragma solidity >=0.6.2;\n\nimport \"@openzeppelin/contracts/access/AccessControl.sol\";\nimport \"@openzeppelin/contracts/token/ERC20/IERC20.sol\";\nimport \"@openzeppelin/contracts/token/ERC20/SafeERC20.sol\";\nimport \"@openzeppelin/contracts/math/SafeMath.sol\";\n\n\nstruct Order {\n  address user;\n  address fromToken;\n  address toToken;\n  uint    price;\n  uint    amount;\n}\n\ninterface IUniswapV2Router02{\n      function swapExactTokensForTokens(\n        uint amountIn,\n        uint amountOutMin,\n        address[] calldata path,\n        address to,\n        uint deadline\n    ) external returns (uint[] memory amounts);\n}\n\ncontract Swap is AccessControl {\n  using SafeMath for uint;\n  using SafeERC20 for IERC20;\n\n  address public router;\n  address public feeTo;\n\n  mapping(bytes32=>Order) public records;\n\n\n  event changeOrderEvent(bytes32 indexed key, address user, address fromToken, address toToken, uint price, uint amount);\n  // event insertOrder(bytes32 indexed key, address user, address fromToken, address toToken, uint price, uint amount);\n  // event updateOrder(bytes32 indexed key, address user, address fromToken, address toToken, uint price, uint newAmount);\n  // event deleteOrder(bytes32 indexed key, address user, address fromToken, address toToken, uint price, uint newAmount);\n  constructor(address _admin, address _router, address _feeTo) public {\n    _setupRole(DEFAULT_ADMIN_ROLE, _admin);\n    router = _router;\n    feeTo = _feeTo;\n  }\n\n  // TODO: need this?\n  function setDepedency(address _router, address _feeTo) external {\n    require(hasRole(DEFAULT_ADMIN_ROLE, msg.sender), \"not admin\");\n    router = _router;\n    feeTo = _feeTo;\n  }\n\n  function getKey(address user, address fromToken, address toToken, uint price) public pure returns (bytes32 key){\n    return keccak256(abi.encode(user, fromToken, toToken, price));\n  }\n\n  function changeOrder(address _fromToken, address _toToken, uint _price, uint _amount) external {\n    require(_fromToken != _toToken);\n    bytes32 key = getKey(msg.sender, _fromToken, _toToken, _price);\n\n    // TODO: check the amount > 1 wan.\n    // can only insert or change/delete himself's order.\n    require(records[key].user == address(0) || records[key].user == msg.sender,\"invalid sender\");\n    if(_amount == 0) {\n      delete records[key];\n    }else {\n      records[key].user = msg.sender;\n      records[key].fromToken = _fromToken;\n      records[key].toToken = _toToken;\n      records[key].price = _price;\n      records[key].amount = _amount;\n    }\n    emit changeOrderEvent(key, msg.sender, _fromToken, _toToken, _price, _amount);\n  }\n  function swap(bytes32 key, address[] calldata path, uint256 _amountIn, uint256 _amountOutMin) external {\n    require(path.length >= 2);\n    require(_amountIn != 0 && _amountIn <= records[key].amount,\"invalid amount\");\n    require(records[key].fromToken == path[0]);\n    require(records[key].toToken == path[path.length-1]);\n    address _tokenIn = path[0];\n\n    // TODO check, if not approve, delete this record.\n    if( IERC20(_tokenIn).balanceOf(records[key].user) < _amountIn \n      || IERC20(_tokenIn).allowance(records[key].user, address(this)) < _amountIn ) {\n            delete records[key];\n            emit changeOrderEvent(key, records[key].user, records[key].fromToken, records[key].toToken, records[key].price, 0);\n            return;\n      }\n    IERC20(_tokenIn).safeTransferFrom(records[key].user, address(this), _amountIn);\n\n\n    uint fee = _amountIn.mul(3).div(1000);\n    IERC20(_tokenIn).safeTransfer(feeTo, fee);\n\n    uint amountInWithoutFee = _amountIn.sub(fee);\n    IERC20(_tokenIn).safeApprove(router, amountInWithoutFee);\n\n    IUniswapV2Router02(router).swapExactTokensForTokens(amountInWithoutFee, _amountOutMin, path, records[key].user, block.timestamp);\n\n    uint newAmount = records[key].amount-_amountIn;\n    if(newAmount == 0) {\n      delete records[key];\n    } else {\n      records[key].amount = newAmount;\n    }\n    emit changeOrderEvent(key, records[key].user, records[key].fromToken, records[key].toToken, records[key].price, newAmount);\n  }\n}\n\n",
  "sourcePath": "/home/lzhang/dfund/order_contract/contracts/Swap.sol",
  "compiler": {
    "name": "solc",
    "version": "0.6.6+commit.6c089d02.Emscripten.clang"
  },
  "schemaVersion": "3.4.3",
  "updatedAt": "2021-09-10T07:28:07.492Z",
  "devdoc": {
    "methods": {
      "getRoleAdmin(bytes32)": {
        "details": "Returns the admin role that controls `role`. See {grantRole} and {revokeRole}.     * To change a role's admin, use {_setRoleAdmin}."
      },
      "getRoleMember(bytes32,uint256)": {
        "details": "Returns one of the accounts that have `role`. `index` must be a value between 0 and {getRoleMemberCount}, non-inclusive.     * Role bearers are not sorted in any particular way, and their ordering may change at any point.     * WARNING: When using {getRoleMember} and {getRoleMemberCount}, make sure you perform all queries on the same block. See the following https://forum.openzeppelin.com/t/iterating-over-elements-on-enumerableset-in-openzeppelin-contracts/2296[forum post] for more information."
      },
      "getRoleMemberCount(bytes32)": {
        "details": "Returns the number of accounts that have `role`. Can be used together with {getRoleMember} to enumerate all bearers of a role."
      },
      "grantRole(bytes32,address)": {
        "details": "Grants `role` to `account`.     * If `account` had not been already granted `role`, emits a {RoleGranted} event.     * Requirements:     * - the caller must have ``role``'s admin role."
      },
      "hasRole(bytes32,address)": {
        "details": "Returns `true` if `account` has been granted `role`."
      },
      "renounceRole(bytes32,address)": {
        "details": "Revokes `role` from the calling account.     * Roles are often managed via {grantRole} and {revokeRole}: this function's purpose is to provide a mechanism for accounts to lose their privileges if they are compromised (such as when a trusted device is misplaced).     * If the calling account had been granted `role`, emits a {RoleRevoked} event.     * Requirements:     * - the caller must be `account`."
      },
      "revokeRole(bytes32,address)": {
        "details": "Revokes `role` from `account`.     * If `account` had been granted `role`, emits a {RoleRevoked} event.     * Requirements:     * - the caller must have ``role``'s admin role."
      }
    }
  },
  "userdoc": {
    "methods": {}
  }
}