{
  "contractName": "Swap",
  "abi": [
    {
      "inputs": [
        {
          "internalType": "address",
          "name": "_admin",
          "type": "address"
        },
        {
          "internalType": "address",
          "name": "_router",
          "type": "address"
        },
        {
          "internalType": "address",
          "name": "_feeTo",
          "type": "address"
        },
        {
          "internalType": "address",
          "name": "_operator",
          "type": "address"
        }
      ],
      "stateMutability": "nonpayable",
      "type": "constructor"
    },
    {
      "anonymous": false,
      "inputs": [
        {
          "indexed": true,
          "internalType": "bytes32",
          "name": "role",
          "type": "bytes32"
        },
        {
          "indexed": true,
          "internalType": "bytes32",
          "name": "previousAdminRole",
          "type": "bytes32"
        },
        {
          "indexed": true,
          "internalType": "bytes32",
          "name": "newAdminRole",
          "type": "bytes32"
        }
      ],
      "name": "RoleAdminChanged",
      "type": "event"
    },
    {
      "anonymous": false,
      "inputs": [
        {
          "indexed": true,
          "internalType": "bytes32",
          "name": "role",
          "type": "bytes32"
        },
        {
          "indexed": true,
          "internalType": "address",
          "name": "account",
          "type": "address"
        },
        {
          "indexed": true,
          "internalType": "address",
          "name": "sender",
          "type": "address"
        }
      ],
      "name": "RoleGranted",
      "type": "event"
    },
    {
      "anonymous": false,
      "inputs": [
        {
          "indexed": true,
          "internalType": "bytes32",
          "name": "role",
          "type": "bytes32"
        },
        {
          "indexed": true,
          "internalType": "address",
          "name": "account",
          "type": "address"
        },
        {
          "indexed": true,
          "internalType": "address",
          "name": "sender",
          "type": "address"
        }
      ],
      "name": "RoleRevoked",
      "type": "event"
    },
    {
      "anonymous": false,
      "inputs": [
        {
          "indexed": true,
          "internalType": "bytes32",
          "name": "key",
          "type": "bytes32"
        },
        {
          "indexed": false,
          "internalType": "address",
          "name": "user",
          "type": "address"
        },
        {
          "indexed": false,
          "internalType": "address",
          "name": "fromToken",
          "type": "address"
        },
        {
          "indexed": false,
          "internalType": "address",
          "name": "toToken",
          "type": "address"
        },
        {
          "indexed": false,
          "internalType": "uint256",
          "name": "price",
          "type": "uint256"
        },
        {
          "indexed": false,
          "internalType": "uint256",
          "name": "amount",
          "type": "uint256"
        }
      ],
      "name": "changeOrderEvent",
      "type": "event"
    },
    {
      "inputs": [],
      "name": "DEFAULT_ADMIN_ROLE",
      "outputs": [
        {
          "internalType": "bytes32",
          "name": "",
          "type": "bytes32"
        }
      ],
      "stateMutability": "view",
      "type": "function",
      "constant": true
    },
    {
      "inputs": [],
      "name": "feeTo",
      "outputs": [
        {
          "internalType": "address",
          "name": "",
          "type": "address"
        }
      ],
      "stateMutability": "view",
      "type": "function",
      "constant": true
    },
    {
      "inputs": [
        {
          "internalType": "bytes32",
          "name": "role",
          "type": "bytes32"
        }
      ],
      "name": "getRoleAdmin",
      "outputs": [
        {
          "internalType": "bytes32",
          "name": "",
          "type": "bytes32"
        }
      ],
      "stateMutability": "view",
      "type": "function",
      "constant": true
    },
    {
      "inputs": [
        {
          "internalType": "bytes32",
          "name": "role",
          "type": "bytes32"
        },
        {
          "internalType": "uint256",
          "name": "index",
          "type": "uint256"
        }
      ],
      "name": "getRoleMember",
      "outputs": [
        {
          "internalType": "address",
          "name": "",
          "type": "address"
        }
      ],
      "stateMutability": "view",
      "type": "function",
      "constant": true
    },
    {
      "inputs": [
        {
          "internalType": "bytes32",
          "name": "role",
          "type": "bytes32"
        }
      ],
      "name": "getRoleMemberCount",
      "outputs": [
        {
          "internalType": "uint256",
          "name": "",
          "type": "uint256"
        }
      ],
      "stateMutability": "view",
      "type": "function",
      "constant": true
    },
    {
      "inputs": [
        {
          "internalType": "bytes32",
          "name": "role",
          "type": "bytes32"
        },
        {
          "internalType": "address",
          "name": "account",
          "type": "address"
        }
      ],
      "name": "grantRole",
      "outputs": [],
      "stateMutability": "nonpayable",
      "type": "function"
    },
    {
      "inputs": [
        {
          "internalType": "bytes32",
          "name": "role",
          "type": "bytes32"
        },
        {
          "internalType": "address",
          "name": "account",
          "type": "address"
        }
      ],
      "name": "hasRole",
      "outputs": [
        {
          "internalType": "bool",
          "name": "",
          "type": "bool"
        }
      ],
      "stateMutability": "view",
      "type": "function",
      "constant": true
    },
    {
      "inputs": [],
      "name": "operator",
      "outputs": [
        {
          "internalType": "address",
          "name": "",
          "type": "address"
        }
      ],
      "stateMutability": "view",
      "type": "function",
      "constant": true
    },
    {
      "inputs": [
        {
          "internalType": "bytes32",
          "name": "",
          "type": "bytes32"
        }
      ],
      "name": "records",
      "outputs": [
        {
          "internalType": "address",
          "name": "user",
          "type": "address"
        },
        {
          "internalType": "address",
          "name": "fromToken",
          "type": "address"
        },
        {
          "internalType": "address",
          "name": "toToken",
          "type": "address"
        },
        {
          "internalType": "uint256",
          "name": "price",
          "type": "uint256"
        },
        {
          "internalType": "uint256",
          "name": "amount",
          "type": "uint256"
        }
      ],
      "stateMutability": "view",
      "type": "function",
      "constant": true
    },
    {
      "inputs": [
        {
          "internalType": "bytes32",
          "name": "role",
          "type": "bytes32"
        },
        {
          "internalType": "address",
          "name": "account",
          "type": "address"
        }
      ],
      "name": "renounceRole",
      "outputs": [],
      "stateMutability": "nonpayable",
      "type": "function"
    },
    {
      "inputs": [
        {
          "internalType": "bytes32",
          "name": "role",
          "type": "bytes32"
        },
        {
          "internalType": "address",
          "name": "account",
          "type": "address"
        }
      ],
      "name": "revokeRole",
      "outputs": [],
      "stateMutability": "nonpayable",
      "type": "function"
    },
    {
      "inputs": [],
      "name": "router",
      "outputs": [
        {
          "internalType": "address",
          "name": "",
          "type": "address"
        }
      ],
      "stateMutability": "view",
      "type": "function",
      "constant": true
    },
    {
      "inputs": [
        {
          "internalType": "address",
          "name": "_router",
          "type": "address"
        },
        {
          "internalType": "address",
          "name": "_feeTo",
          "type": "address"
        },
        {
          "internalType": "address",
          "name": "_operator",
          "type": "address"
        }
      ],
      "name": "setDepedency",
      "outputs": [],
      "stateMutability": "nonpayable",
      "type": "function"
    },
    {
      "inputs": [
        {
          "internalType": "address",
          "name": "user",
          "type": "address"
        },
        {
          "internalType": "address",
          "name": "fromToken",
          "type": "address"
        },
        {
          "internalType": "address",
          "name": "toToken",
          "type": "address"
        },
        {
          "internalType": "uint256",
          "name": "price",
          "type": "uint256"
        }
      ],
      "name": "getKey",
      "outputs": [
        {
          "internalType": "bytes32",
          "name": "key",
          "type": "bytes32"
        }
      ],
      "stateMutability": "pure",
      "type": "function",
      "constant": true
    },
    {
      "inputs": [
        {
          "internalType": "address",
          "name": "_fromToken",
          "type": "address"
        },
        {
          "internalType": "address",
          "name": "_toToken",
          "type": "address"
        },
        {
          "internalType": "uint256",
          "name": "_price",
          "type": "uint256"
        },
        {
          "internalType": "uint256",
          "name": "_amount",
          "type": "uint256"
        }
      ],
      "name": "changeOrder",
      "outputs": [],
      "stateMutability": "nonpayable",
      "type": "function"
    },
    {
      "inputs": [
        {
          "internalType": "bytes32",
          "name": "key",
          "type": "bytes32"
        },
        {
          "internalType": "address[]",
          "name": "path",
          "type": "address[]"
        },
        {
          "internalType": "uint256",
          "name": "_amountIn",
          "type": "uint256"
        },
        {
          "internalType": "uint256",
          "name": "_amountOutMin",
          "type": "uint256"
        }
      ],
      "name": "swap",
      "outputs": [],
      "stateMutability": "nonpayable",
      "type": "function"
    }
  ],
  "bytecode": "0x60806040523480156200001157600080fd5b5060405162001dd938038062001dd9833981810160405260808110156200003757600080fd5b508051602082015160408301516060909301519192909162000064600085640100000000620000a8810204565b60018054600160a060020a03948516600160a060020a03199182161790915560028054938516938216939093179092556003805491909316911617905550620001e3565b620000bd8282640100000000620000c1810204565b5050565b6000828152602081905260409020620000e99082640100000000620015bf6200014682021704565b15620000bd57620001026401000000006200016f810204565b600160a060020a031681600160a060020a0316837f2f8788117e7eff1d82e926ec794901d17c78024a50270940304540a733656f0d60405160405180910390a45050565b60006200016683600160a060020a03841664010000000062000173810204565b90505b92915050565b3390565b60006200018a8383640100000000620001cb810204565b620001c25750815460018181018455600084815260208082209093018490558454848252828601909352604090209190915562000169565b50600062000169565b60009081526001919091016020526040902054151590565b611be680620001f36000396000f3fe608060405234801561001057600080fd5b506004361061011d576000357c0100000000000000000000000000000000000000000000000000000000900480638a7b8b95116100b4578063ca15c87311610083578063ca15c8731461038a578063d547741f146103a7578063d9160bb0146103d3578063f887ea401461040f5761011d565b80638a7b8b95146102a25780639010d07c1461031f57806391d1485414610342578063a217fddf146103825761011d565b806336568abe116100f057806336568abe146101fa5780634fe520a514610226578063570ca735146102625780635ce0755e1461026a5761011d565b8063017e7e581461012257806301e6472514610146578063248a9ca31461019d5780632f2ff15d146101cc575b600080fd5b61012a610417565b60408051600160a060020a039092168252519081900360200190f35b6101636004803603602081101561015c57600080fd5b5035610426565b60408051600160a060020a039687168152948616602086015292909416838301526060830152608082019290925290519081900360a00190f35b6101ba600480360360208110156101b357600080fd5b5035610465565b60408051918252519081900360200190f35b6101f8600480360360408110156101e257600080fd5b5080359060200135600160a060020a031661047a565b005b6101f86004803603604081101561021057600080fd5b5080359060200135600160a060020a03166104e9565b6101ba6004803603608081101561023c57600080fd5b50600160a060020a0381358116916020810135821691604082013516906060013561054d565b61012a610598565b6101f86004803603606081101561028057600080fd5b50600160a060020a0381358116916020810135821691604090910135166105a7565b6101f8600480360360808110156102b857600080fd5b813591908101906040810160208201356401000000008111156102da57600080fd5b8201836020820111156102ec57600080fd5b8035906020019184602083028401116401000000008311171561030e57600080fd5b919350915080359060200135610652565b61012a6004803603604081101561033557600080fd5b5080359060200135610e76565b61036e6004803603604081101561035857600080fd5b5080359060200135600160a060020a0316610e9d565b604080519115158252519081900360200190f35b6101ba610ebb565b6101ba600480360360208110156103a057600080fd5b5035610ec0565b6101f8600480360360408110156103bd57600080fd5b5080359060200135600160a060020a0316610ed7565b6101f8600480360360808110156103e957600080fd5b50600160a060020a03813581169160208101359091169060408101359060600135610f33565b61012a61110c565b600254600160a060020a031681565b600460208190526000918252604090912080546001820154600283015460038401549390940154600160a060020a039283169491831693919092169185565b60009081526020819052604090206002015490565b60008281526020819052604090206002015461049d9061049861111b565b610e9d565b6104db5760405160e560020a62461bcd02815260040180806020018281038252602f815260200180611a7c602f913960400191505060405180910390fd5b6104e5828261111f565b5050565b6104f161111b565b600160a060020a031681600160a060020a0316146105435760405160e560020a62461bcd02815260040180806020018281038252602f815260200180611b82602f913960400191505060405180910390fd5b6104e5828261118e565b60408051600160a060020a03958616602080830191909152948616818301529290941660608301526080808301919091528351808303909101815260a0909101909252815191012090565b600354600160a060020a031681565b6105b2600033610e9d565b610606576040805160e560020a62461bcd02815260206004820152600960248201527f6e6f742061646d696e0000000000000000000000000000000000000000000000604482015290519081900360640190fd5b60018054600160a060020a0394851673ffffffffffffffffffffffffffffffffffffffff1991821617909155600280549385169382169390931790925560038054919093169116179055565b600354600160a060020a031633146106b4576040805160e560020a62461bcd02815260206004820152600e60248201527f696e76616c69642073656e646572000000000000000000000000000000000000604482015290519081900360640190fd5b600283101561070d576040805160e560020a62461bcd02815260206004820152600c60248201527f696e76616c696420706174680000000000000000000000000000000000000000604482015290519081900360640190fd5b811580159061072e5750600085815260046020819052604090912001548211155b610782576040805160e560020a62461bcd02815260206004820152600e60248201527f696e76616c696420616d6f756e74000000000000000000000000000000000000604482015290519081900360640190fd5b8383600081811061078f57fe5b60008881526004602090815260409091206001015491029290920135600160a060020a0390811692169190911490506107c757600080fd5b838360001981018181106107d757fe5b60008881526004602090815260409091206002015491029290920135600160a060020a03908116921691909114905061080f57600080fd5b60008484600081811061081e57fe5b90506020020135600160a060020a03169050600460008781526020019081526020016000206003015461086e84610862633b9aca00866111fd90919063ffffffff16565b9063ffffffff61125916565b10156108c4576040805160e560020a62461bcd02815260206004820152600d60248201527f696e76616c696420707269636500000000000000000000000000000000000000604482015290519081900360640190fd5b6000868152600460208181526040928390205483517f70a08231000000000000000000000000000000000000000000000000000000008152600160a060020a0391821693810193909352925186938516926370a08231926024808301939192829003018186803b15801561093757600080fd5b505afa15801561094b573d6000803e3d6000fd5b505050506040513d602081101561096157600080fd5b50511080610a1157506000868152600460208181526040928390205483517fdd62ed3e000000000000000000000000000000000000000000000000000000008152600160a060020a03918216938101939093523060248401529251869385169263dd62ed3e926044808301939192829003018186803b1580156109e357600080fd5b505afa1580156109f7573d6000803e3d6000fd5b505050506040513d6020811015610a0d57600080fd5b5051105b15610ae85760008681526004602090815260408083208054600182015460028301546003909301548451600160a060020a0393841681529183169582019590955291168183015260608101929092526080820192909252905187917f76bcd833a3eddc3b94559e7484f93bad626e9558187f5fc88f9cda6c96012495919081900360a00190a25060008581526004602081905260408220805473ffffffffffffffffffffffffffffffffffffffff199081168255600182018054821690556002820180549091169055600381018390550155610e6f565b600086815260046020526040902054610b1590600160a060020a038381169116308663ffffffff6112c316565b6000610b2e6103e861086286600363ffffffff6111fd16565b600254909150610b5190600160a060020a0384811691168363ffffffff61135116565b6000610b63858363ffffffff6113d616565b600154909150610b8690600160a060020a0385811691168363ffffffff61143616565b600160009054906101000a9004600160a060020a0316600160a060020a03166338ed173982868a8a600460008f815260200190815260200160002060000160009054906101000a9004600160a060020a0316426040518763ffffffff167c0100000000000000000000000000000000000000000000000000000000028152600401808781526020018681526020018060200184600160a060020a0316600160a060020a031681526020018381526020018281038252868682818152602001925060200280828437600081840152601f19601f820116905080830192505050975050505050505050600060405180830381600087803b158015610c8757600080fd5b505af1158015610c9b573d6000803e3d6000fd5b505050506040513d6000823e601f3d908101601f191682016040526020811015610cc457600080fd5b8101908080516040519392919084640100000000821115610ce457600080fd5b908301906020820185811115610cf957600080fd5b8251866020820283011164010000000082111715610d1657600080fd5b82525081516020918201928201910280838360005b83811015610d43578181015183820152602001610d2b565b50505050905001604052505050506000610d7c86600460008c8152602001908152602001600020600401546113d690919063ffffffff16565b60008a8152600460209081526040918290208054600182015460028301546003909301548551600160a060020a0393841681529183169482019490945291168184015260608101919091526080810183905290519192508a917f76bcd833a3eddc3b94559e7484f93bad626e9558187f5fc88f9cda6c960124959181900360a00190a280610e545760008981526004602081905260408220805473ffffffffffffffffffffffffffffffffffffffff199081168255600182018054821690556002820180549091169055600381018390550155610e6a565b6000898152600460208190526040909120018190555b505050505b5050505050565b6000828152602081905260408120610e94908363ffffffff61159316565b90505b92915050565b6000828152602081905260408120610e94908363ffffffff61159f16565b600081565b6000818152602081905260408120610e97906115b4565b600082815260208190526040902060020154610ef59061049861111b565b6105435760405160e560020a62461bcd028152600401808060200182810382526030815260200180611ad16030913960400191505060405180910390fd5b82600160a060020a031684600160a060020a03161415610f5257600080fd5b6000610f603386868661054d565b600081815260046020526040902054909150600160a060020a03161580610f9d5750600081815260046020526040902054600160a060020a031633145b610ff1576040805160e560020a62461bcd02815260206004820152600e60248201527f696e76616c69642073656e646572000000000000000000000000000000000000604482015290519081900360640190fd5b816110465760008181526004602081905260408220805473ffffffffffffffffffffffffffffffffffffffff1990811682556001820180548216905560028201805490911690556003810183905501556110ab565b600081815260046020819052604090912080543373ffffffffffffffffffffffffffffffffffffffff199182161782556001820180548216600160a060020a038a81169190911790915560028301805490921690881617905560038101859055018290555b60408051338152600160a060020a0380881660208301528616818301526060810185905260808101849052905182917f76bcd833a3eddc3b94559e7484f93bad626e9558187f5fc88f9cda6c96012495919081900360a00190a25050505050565b600154600160a060020a031681565b3390565b600082815260208190526040902061113d908263ffffffff6115bf16565b156104e55761114a61111b565b600160a060020a031681600160a060020a0316837f2f8788117e7eff1d82e926ec794901d17c78024a50270940304540a733656f0d60405160405180910390a45050565b60008281526020819052604090206111ac908263ffffffff6115d416565b156104e5576111b961111b565b600160a060020a031681600160a060020a0316837ff6391f5c32d9c69d2a47ea670b442974b53935d1edc7fd64eb21e047a839171b60405160405180910390a45050565b60008261120c57506000610e97565b8282028284828161121957fe5b0414610e945760405160e560020a62461bcd028152600401808060200182810382526021815260200180611b016021913960400191505060405180910390fd5b60008082116112b2576040805160e560020a62461bcd02815260206004820152601a60248201527f536166654d6174683a206469766973696f6e206279207a65726f000000000000604482015290519081900360640190fd5b8183816112bb57fe5b049392505050565b60408051600160a060020a0380861660248301528416604482015260648082018490528251808303909101815260849091019091526020810180517bffffffffffffffffffffffffffffffffffffffffffffffffffffffff167f23b872dd0000000000000000000000000000000000000000000000000000000017905261134b9085906115e9565b50505050565b60408051600160a060020a038416602482015260448082018490528251808303909101815260649091019091526020810180517bffffffffffffffffffffffffffffffffffffffffffffffffffffffff167fa9059cbb000000000000000000000000000000000000000000000000000000001790526113d19084906115e9565b505050565b600082821115611430576040805160e560020a62461bcd02815260206004820152601e60248201527f536166654d6174683a207375627472616374696f6e206f766572666c6f770000604482015290519081900360640190fd5b50900390565b8015806114d55750604080517fdd62ed3e000000000000000000000000000000000000000000000000000000008152306004820152600160a060020a03848116602483015291519185169163dd62ed3e91604480820192602092909190829003018186803b1580156114a757600080fd5b505afa1580156114bb573d6000803e3d6000fd5b505050506040513d60208110156114d157600080fd5b5051155b6115135760405160e560020a62461bcd028152600401808060200182810382526036815260200180611b4c6036913960400191505060405180910390fd5b60408051600160a060020a038416602482015260448082018490528251808303909101815260649091019091526020810180517bffffffffffffffffffffffffffffffffffffffffffffffffffffffff167f095ea7b3000000000000000000000000000000000000000000000000000000001790526113d19084906115e9565b6000610e94838361169d565b6000610e9483600160a060020a038416611704565b6000610e978261171c565b6000610e9483600160a060020a038416611720565b6000610e9483600160a060020a03841661176a565b606061163e826040518060400160405280602081526020017f5361666545524332303a206c6f772d6c6576656c2063616c6c206661696c656481525085600160a060020a03166118309092919063ffffffff16565b8051909150156113d15780806020019051602081101561165d57600080fd5b50516113d15760405160e560020a62461bcd02815260040180806020018281038252602a815260200180611b22602a913960400191505060405180910390fd5b815460009082106116e25760405160e560020a62461bcd028152600401808060200182810382526022815260200180611a5a6022913960400191505060405180910390fd5b8260000182815481106116f157fe5b9060005260206000200154905092915050565b60009081526001919091016020526040902054151590565b5490565b600061172c8383611704565b61176257508154600181810184556000848152602080822090930184905584548482528286019093526040902091909155610e97565b506000610e97565b60008181526001830160205260408120548015611826578354600019808301919081019060009087908390811061179d57fe5b90600052602060002001549050808760000184815481106117ba57fe5b6000918252602080832090910192909255828152600189810190925260409020908401905586548790806117ea57fe5b60019003818190600052602060002001600090559055866001016000878152602001908152602001600020600090556001945050505050610e97565b6000915050610e97565b606061183f8484600085611849565b90505b9392505050565b6060303183111561188e5760405160e560020a62461bcd028152600401808060200182810382526026815260200180611aab6026913960400191505060405180910390fd5b611897856119ac565b6118eb576040805160e560020a62461bcd02815260206004820152601d60248201527f416464726573733a2063616c6c20746f206e6f6e2d636f6e7472616374000000604482015290519081900360640190fd5b6000606086600160a060020a031685876040518082805190602001908083835b6020831061192a5780518252601f19909201916020918201910161190b565b6001836020036101000a03801982511681845116808217855250505050505090500191505060006040518083038185875af1925050503d806000811461198c576040519150601f19603f3d011682016040523d82523d6000602084013e611991565b606091505b50915091506119a18282866119b2565b979650505050505050565b3b151590565b606083156119c1575081611842565b8251156119d15782518084602001fd5b8160405160e560020a62461bcd0281526004018080602001828103825283818151815260200191508051906020019080838360005b83811015611a1e578181015183820152602001611a06565b50505050905090810190601f168015611a4b5780820380516001836020036101000a031916815260200191505b509250505060405180910390fdfe456e756d657261626c655365743a20696e646578206f7574206f6620626f756e6473416363657373436f6e74726f6c3a2073656e646572206d75737420626520616e2061646d696e20746f206772616e74416464726573733a20696e73756666696369656e742062616c616e636520666f722063616c6c416363657373436f6e74726f6c3a2073656e646572206d75737420626520616e2061646d696e20746f207265766f6b65536166654d6174683a206d756c7469706c69636174696f6e206f766572666c6f775361666545524332303a204552433230206f7065726174696f6e20646964206e6f7420737563636565645361666545524332303a20617070726f76652066726f6d206e6f6e2d7a65726f20746f206e6f6e2d7a65726f20616c6c6f77616e6365416363657373436f6e74726f6c3a2063616e206f6e6c792072656e6f756e636520726f6c657320666f722073656c66a2646970667358221220e544d1998492dcb6b669717dd39a29a34efa31ef1ad1cd2afc1dbc274b0b75e364736f6c63430006060033",
  "immutableReferences": {},
  "source": "// SPDX-License-Identifier: MIT\npragma solidity >=0.6.2;\n\nimport \"@openzeppelin/contracts/access/AccessControl.sol\";\nimport \"@openzeppelin/contracts/token/ERC20/IERC20.sol\";\nimport \"@openzeppelin/contracts/token/ERC20/SafeERC20.sol\";\nimport \"@openzeppelin/contracts/math/SafeMath.sol\";\n\n\nstruct Order {\n  address user;\n  address fromToken;\n  address toToken;\n  uint    price;\n  uint    amount;\n}\n\ninterface IUniswapV2Router02{\n      function swapExactTokensForTokens(\n        uint amountIn,\n        uint amountOutMin,\n        address[] calldata path,\n        address to,\n        uint deadline\n    ) external returns (uint[] memory amounts);\n}\n\ncontract Swap is AccessControl {\n  using SafeMath for uint;\n  using SafeERC20 for IERC20;\n\n  address public router;\n  address public feeTo;\n  address public operator;\n\n  mapping(bytes32=>Order) public records;\n\n\n  event changeOrderEvent(bytes32 indexed key, address user, address fromToken, address toToken, uint price, uint amount);\n  // event insertOrder(bytes32 indexed key, address user, address fromToken, address toToken, uint price, uint amount);\n  // event updateOrder(bytes32 indexed key, address user, address fromToken, address toToken, uint price, uint newAmount);\n  // event deleteOrder(bytes32 indexed key, address user, address fromToken, address toToken, uint price, uint newAmount);\n  constructor(address _admin, address _router, address _feeTo, address _operator) public {\n    _setupRole(DEFAULT_ADMIN_ROLE, _admin);\n    router = _router;\n    feeTo = _feeTo;\n    operator = _operator;\n  }\n\n  // TODO: need this?\n  function setDepedency(address _router, address _feeTo, address _operator) external {\n    require(hasRole(DEFAULT_ADMIN_ROLE, msg.sender), \"not admin\");\n    router = _router;\n    feeTo = _feeTo;\n    operator = _operator;\n  }\n\n  function getKey(address user, address fromToken, address toToken, uint price) public pure returns (bytes32 key){\n    return keccak256(abi.encode(user, fromToken, toToken, price));\n  }\n\n  function changeOrder(address _fromToken, address _toToken, uint _price, uint _amount) external {\n    require(_fromToken != _toToken);\n    bytes32 key = getKey(msg.sender, _fromToken, _toToken, _price);\n\n    // TODO: check the amount > 1 wan.\n    // can only insert or change/delete himself's order.\n    require(records[key].user == address(0) || records[key].user == msg.sender,\"invalid sender\");\n    if(_amount == 0) {\n      delete records[key];\n    }else {\n      records[key].user = msg.sender;\n      records[key].fromToken = _fromToken;\n      records[key].toToken = _toToken;\n      records[key].price = _price;\n      records[key].amount = _amount;\n    }\n    emit changeOrderEvent(key, msg.sender, _fromToken, _toToken, _price, _amount);\n  }\n  function swap(bytes32 key, address[] calldata path, uint256 _amountIn, uint256 _amountOutMin) external {\n    require(msg.sender == operator,\"invalid sender\");\n    require(path.length >= 2,\"invalid path\");\n    require(_amountIn != 0 && _amountIn <= records[key].amount,\"invalid amount\");\n    require(records[key].fromToken == path[0]);\n    require(records[key].toToken == path[path.length-1]);\n    address _tokenIn = path[0];\n\n    //  check the _amountOutMin is >= price.\n    require(_amountOutMin.mul(10**9).div(_amountIn) >= records[key].price, \"invalid price\");\n\n    //  if not approve, delete this record.\n    if( IERC20(_tokenIn).balanceOf(records[key].user) < _amountIn \n      || IERC20(_tokenIn).allowance(records[key].user, address(this)) < _amountIn ) {\n            emit changeOrderEvent(key, records[key].user, records[key].fromToken, records[key].toToken, records[key].price, 0);\n            delete records[key];\n            return;\n      }\n    IERC20(_tokenIn).safeTransferFrom(records[key].user, address(this), _amountIn);\n\n    uint fee = _amountIn.mul(3).div(1000);\n    IERC20(_tokenIn).safeTransfer(feeTo, fee);\n\n    uint amountInWithoutFee = _amountIn.sub(fee);\n    IERC20(_tokenIn).safeApprove(router, amountInWithoutFee);\n\n\n    IUniswapV2Router02(router).swapExactTokensForTokens(amountInWithoutFee, _amountOutMin, path, records[key].user, block.timestamp);\n\n    uint newAmount = records[key].amount.sub(_amountIn);\n    emit changeOrderEvent(key, records[key].user, records[key].fromToken, records[key].toToken, records[key].price, newAmount);\n\n    if(newAmount == 0) {\n      delete records[key];\n    } else {\n      records[key].amount = newAmount;\n    }\n  }\n}\n\n",
  "sourcePath": "/home/lzhang/dfund/order_contract/contracts/Swap.sol",
  "compiler": {
    "name": "solc",
    "version": "0.6.6+commit.6c089d02.Emscripten.clang"
  },
  "schemaVersion": "3.4.3",
  "updatedAt": "2021-09-13T09:43:06.117Z",
  "networkType": "ethereum",
  "devdoc": {
    "methods": {
      "getRoleAdmin(bytes32)": {
        "details": "Returns the admin role that controls `role`. See {grantRole} and {revokeRole}.     * To change a role's admin, use {_setRoleAdmin}."
      },
      "getRoleMember(bytes32,uint256)": {
        "details": "Returns one of the accounts that have `role`. `index` must be a value between 0 and {getRoleMemberCount}, non-inclusive.     * Role bearers are not sorted in any particular way, and their ordering may change at any point.     * WARNING: When using {getRoleMember} and {getRoleMemberCount}, make sure you perform all queries on the same block. See the following https://forum.openzeppelin.com/t/iterating-over-elements-on-enumerableset-in-openzeppelin-contracts/2296[forum post] for more information."
      },
      "getRoleMemberCount(bytes32)": {
        "details": "Returns the number of accounts that have `role`. Can be used together with {getRoleMember} to enumerate all bearers of a role."
      },
      "grantRole(bytes32,address)": {
        "details": "Grants `role` to `account`.     * If `account` had not been already granted `role`, emits a {RoleGranted} event.     * Requirements:     * - the caller must have ``role``'s admin role."
      },
      "hasRole(bytes32,address)": {
        "details": "Returns `true` if `account` has been granted `role`."
      },
      "renounceRole(bytes32,address)": {
        "details": "Revokes `role` from the calling account.     * Roles are often managed via {grantRole} and {revokeRole}: this function's purpose is to provide a mechanism for accounts to lose their privileges if they are compromised (such as when a trusted device is misplaced).     * If the calling account had been granted `role`, emits a {RoleRevoked} event.     * Requirements:     * - the caller must be `account`."
      },
      "revokeRole(bytes32,address)": {
        "details": "Revokes `role` from `account`.     * If `account` had been granted `role`, emits a {RoleRevoked} event.     * Requirements:     * - the caller must have ``role``'s admin role."
      }
    }
  },
  "userdoc": {
    "methods": {}
  }
}